:020000040800F2
:1000000090080020ED010008A9050008A5050008DA
:10001000A7050008A7020008B50E000800000000B0
:100020000000000000000000000000001D0A0008A1
:10003000E5030008000000003D090008E10A00088F
:10004000070200080702000807020008070200086C
:10005000070200080702000807020008070200085C
:10006000070200080702000807020008070200084C
:10007000070200080702000807020008070200083C
:10008000070200080702000807020008070200082C
:10009000070200080702000807020008070200081C
:1000A000070200080702000807020008070200080C
:1000B00007020008070200080702000807020008FC
:1000C00007020008070200080702000807020008EC
:1000D00007020008070200089D0B0008070200083D
:1000E00007020008070200080702000807020008CC
:1000F00007020008070200080702000807020008BC
:1001000007020008070200080702000807020008AB
:10011000070200080702000807020008070200089B
:10012000070200080702000807020008070200088B
:1001300000F002F800F03AF80AA090E8000C8244BF
:100140008344AAF10107DA4501D100F02FF8AFF29C
:10015000090EBAE80F0013F0010F18BFFB1A43F0A5
:10016000010318470019000020190000103A24BFAD
:1001700078C878C1FAD8520724BF30C830C144BF0C
:1001800004680C607047000000230024002500264E
:10019000103A28BF78C1FBD8520728BF30C148BFEA
:1001A0000B6070471FB51FBD10B510BD00F041F8C2
:1001B0001146FFF7F7FF00F04FFF00F05FF803B4C0
:1001C000FFF7F2FF03BC00F067F80000EFF30980CF
:1001D000704780F309887047EFF30880704780F319
:1001E0000888704740BA7047C0BA704709488047CE
:1001F00009480047FEE7FEE7FEE7FEE7FEE7FEE709
:10020000FEE7FEE7FEE7FEE704480549054A064B20
:1002100070470000E50A0008310100089002002044
:100220009008002090040020900400207047704740
:100230007047754600F02CF8AE46050069465346F7
:1002400020F00700854618B020B5FFF7DDFFBDE8B8
:1002500020404FF000064FF000074FF000084FF02D
:10026000000B21F00701AC46ACE8C009ACE8C009BE
:10027000ACE8C009ACE8C0098D46704710B504462B
:10028000AFF300802046BDE81040FFF798BF0000A4
:10029000004870473002002001491820ABBEFEE73D
:1002A000260002007047FEE70029016802D041F0F5
:1002B000010102E04FF6FE7211400160704700003C
:1002C00001684FF6FE72114001600021016041603B
:1002D0008160C1603149314A0839904203D1486890
:1002E00040F00F0006E02D4A1432904204D14868D5
:1002F00040F0F00048607047284A2832904203D10D
:10030000486840F47060F5E7244A3C32904203D1DB
:10031000486840F47040EDE7204A5032904203D1E3
:10032000486840F47020E5E71C4A6432904203D1EB
:10033000486840F47000DDE7184A7832904203D1F3
:10034000486840F07060D5E7154A111F904203D10C
:10035000086840F00F0006E0114A1432904204D1C0
:10036000086840F0F000086070470D4A283290425B
:1003700003D1086840F47060F5E7094A3C329042C6
:1003800003D1086840F47040EDE7054A50329042CE
:10039000EAD1086840F47020E5E700000800024058
:1003A00008040240406880B2704730B5026847F6E2
:1003B000F0739A430C6A8B682343D1E904452C43BC
:1003C00023438C692343CC6923434C6A23438C6ABF
:1003D000234313430360CA6842600A688260496825
:1003E000C16030BD704700000B49498848434FF059
:1003F000E021486100238B61086940F00100086139
:100400000869C20701D0C003FAD5086920F00100CD
:1004100008618B61704700002800002070B5054618
:100420004FF43026304600F059F8042811D1094C19
:10043000206940F0020020616561206940F04000C1
:100440002061304600F04AF8216941F6FD72114002
:10045000216170BD0020024008490420CA68D2070B
:1004600001D001207047CA68520701D502207047A9
:10047000C968C906FBD50320704700000020024070
:100480000248016941F0800101617047002002408B
:10049000F0B506464FF400570D46384600F01EF8FA
:1004A00004280CD1064C206940F001002061358001
:1004B000384600F013F82169BA1E11402161F0BDE1
:1004C00000200240034802494160034941607047EF
:1004D0002301674500200240AB89EFCD00B50346FC
:1004E000FFF7BAFF02E0FFF7B7FF5B1E012803D05A
:1004F000002B00D1052000BD002BF4D1FAE7F0B5A8
:10050000CC78002204F00F03E40601D58C78234355
:100510000C784FF00F0C14F0FF0F4FF0010E1BD0B2
:1005200005680E880EFA02F42640A64210D1960005
:100530000CFA06F725EA070703FA06F5CE783D43DD
:10054000282E02D0482E02D002E0446100E004616F
:10055000521C082AE5D305600A88FF2A1CD9446882
:10056000002202F108060EFA06F50E882E40AE4271
:100570000ED196000CFA06F7BC4303FA06F7CE78C4
:100580003C43282E00D14561CE78482E00D105612C
:10059000521C082AE5D34460F0BD0AB101617047DE
:1005A00041617047FEE7FEE77047000030B50F235A
:1005B000C27801780125F2B1144A126801F1E021F4
:1005C00002F4E062C2F5E062120AC2F10404D34010
:1005D0004278A24084781C401443220181F8002410
:1005E000007800F01F018D404009800000F1E020FC
:1005F000C0F8005130BD01F01F008540480980005F
:1006000000F1E020C0F8805130BD00000CED00E0AA
:1006100070B500250021284600F0F5F800240020E0
:1006200000F07BF9641CE4B2802CF8D36D1CEDB2B1
:10063000082DEFD370BD000038B50121102000F067
:1006400097F914208DF8030002208DF802004FF472
:100650004040094CADF8000069462046FFF74FFFC7
:100660000122D1032046FFF798FF01229103204683
:10067000FFF793FF38BD0000001001402DE9F0475F
:10068000164E074600244FF080084FF480494FF47F
:10069000004528FA04F0384201D0012200E000228F
:1006A00049463046FFF779FF012229463046FFF7D9
:1006B00074FF002229463046FFF76FFF641CE4B246
:1006C000082CE6D3012229463046FFF766FF29466B
:1006D0003046BDE8F0470022FFF75FBF0010014041
:1006E00070B501220B4D940321462846FFF755FFB4
:1006F0000122D60331462846FFF74FFF002221464C
:100700002846FFF74AFF31462846BDE870400022E0
:10071000FFF743BF0010014070B50A4D4FF480440D
:10072000002221462846FFF738FF0122D103284640
:10073000FFF733FF21462846BDE870400122FFF74E
:100740002CBF00000010014010B5002142F21072D1
:100750004FF47A730020401C9042FCD3491C99420C
:10076000F8D3FFF769FFAE2000F0C6F8D52000F0FF
:10077000C3F8802000F0C0F8A82000F0BDF83F20AA
:1007800000F0BAF8D32000F0B7F8002000F0B4F879
:10079000402000F0B1F8A12000F0AEF8C82000F031
:1007A000ABF8DA2000F0A8F8122000F0A5F88120BC
:1007B00000F0A2F8CF2000F09FF8D92000F09CF8BC
:1007C000F12000F099F8DB2000F096F8302000F0DE
:1007D00093F8A42000F090F8A62000F08DF88D206A
:1007E00000F08AF8142000F087F8AF2000F084F8B9
:1007F000BDE81040FFF70CBF0346012000E058435E
:10080000491EFCD2704710B50C4640F0B00000F015
:1008100073F8102040EA141000F06EF804F00F0096
:10082000BDE8104000F068B82DE9F0410746CE0061
:100830004000083E801E15464FF0FF38F1B2C0B2AE
:10084000FFF7E1FF1148002400EB05152819A0F57A
:10085000805090F8000E00F060F8641CE4B2082CA0
:10086000F4D308EB4700F1B2C0B2FFF7CCFF00248D
:100870002819A0F5805090F8080E00F04EF8641C7E
:10088000E4B2082CF4D3BDE8F0810000B4160008EF
:100890002DE9F0471D4616460F46814600244FF0CD
:1008A0000A0812E0291B0A20491EFFF7A5FFB6FB24
:1008B000F0F1B1FBF8F208FB12123819C1B2484648
:1008C0003032FFF7B1FF641CE4B2AC42EAD3BDE8BA
:1008D000F0872DE9F04115460E460746002406E054
:1008E0003019C1B23846FFF79FFF641CE4B22A5D9D
:1008F000002AF5D1BDE8F08110B50446FFF7F0FEFF
:100900007820FFF7BBFE0020FFF7B8FE2046FFF778
:10091000B5FEBDE81040FFF7FFBE10B50446FFF777
:10092000DFFE7820FFF7AAFE4020FFF7A7FE204653
:10093000FFF7A4FEBDE81040FFF7EEBE70470000D1
:10094000044A0029516901D0014300E0814351610B
:100950007047000000100240044A0029D16901D00C
:10096000014300E08143D161704700000010024064
:10097000044A0029916901D0014300E0814391615B
:10098000704700000010024030B5204A5168204BEB
:1009900011F00C0103D0042901D0082901D0036013
:1009A00012E05168536801F470114FF0020413F41F
:1009B000803F04EB914102D053689B0301D5154B56
:1009C00000E0134B5943016051680F2303EA1111F2
:1009D000114B5C5C0168E14041605468072505EA01
:1009E00014241C5D21FA04F48460546805EAD424BC
:1009F0001B5DD940C1605268032303EA9232064B63
:100A00001B1F9A5CB1FBF2F1016130BD0010024086
:100A100000127A0000093D00180000207047000015
:100A20000CB50022264800920192016841F4803101
:100A300001604FF4A063016801F400310191009955
:100A4000491C0091019911B900999942F3D10168AB
:100A5000890333D5012101911A490A6842F0100235
:100A60000A600A6822F003020A600A6842F0020281
:100A70000A604168416041684160416841F48061B9
:100A80004160416821F47C114160416841F4E81102
:100A90004160016841F08071016001688901FCD505
:100AA000416821F003014160416841F00201416069
:100AB0004168C1F381010229FAD10CBD01920CBD3C
:100AC00000100240002002404FF0E0210428086995
:100AD00003D020F004000861704740F00400FAE7FA
:100AE000704700000F4810B5016841F00101016036
:100AF00041680D4A1140416001680C4A1140016093
:100B0000016821F480210160416821F4FE01416007
:100B10004FF41F018160FFF783FF05494FF000602C
:100B2000086010BD001002400000FFF8FFFFF6FE55
:100B300008ED00E010B56FF00400FFF7C5FF0848AE
:100B400008490068B0FBF1F0074900EB400208805B
:100B5000C2EBC0104FF6FF7202EAC000488010BD21
:100B60000000002000127A002800002010B509487B
:100B7000FFF718FC0849C0F5007080B2088049886A
:100B8000884201D3401A02E0C1F50071084480B2E6
:100B900010BD00006C0002402C00002038B50A4C4B
:100BA00040F22441204600F0F4F800280AD02088C2
:100BB000201D008800900548FFF7F4FB0449C0F5AC
:100BC0000070088038BD0000004400406C00024006
:100BD0002C00002070B50446012192B04804FFF7B4
:100BE000BBFE01210420FFF7C3FE01210846FFF7E9
:100BF000A7FE0421ADF83C1018208DF83F0003201B
:100C00002E4D8DF83E000FA92846FFF778FC0821ED
:100C1000ADF83C1048218DF83F100FA92846FFF78A
:100C20006EFC0B9400240C20ADF83600244DADF87A
:100C30003240ADF83840ADF83440ADF830400BA943
:100C4000284600F0DDF81F4E3046FFF739FB281D1F
:100C500000901D48CDE901046815CDE9030480200A
:100C6000CDE905042020CDE907400002CDE90904C3
:100C700069463046FFF799FB01213046FFF714FB28
:100C800001224021284600F075F826208DF840000A
:100C900001218DF841108DF842408DF8431010A8C5
:100CA000FFF784FC012240F22441284600F090F82E
:100CB0000121284600F054F812B070BD0008014030
:100CC000004400406C0002403000002070B50D462A
:100CD0000646002404E000F00BF83055641CA4B272
:100CE000AC4203D2FFF742FF0028F4D1204670BD8A
:100CF00010B500240848FFF755FB084AC0F50070FE
:100D000080B25188814205D00548445C491CC1F33A
:100D100008005080204610BD6C0002402C000020CE
:100D20003000002070B50C46054603E015F8010BB5
:100D300000F004F8641EA4B2F8D270BD70B5074C80
:100D400005468021204600F01DF80028F9D02946EC
:100D50002046BDE8704000F0A9B800000044004003
:100D60000029818902D041F4005101E021F40051B1
:100D700081817047002A828A01D00A4300E08A43B9
:100D8000828270470246002012880A4200D0012069
:100D9000704770B501F01F0501260024C1F342130E
:100DA00006FA05F2012B0FD0022B0FD0838A4FEAEF
:100DB00011210088134206FA01F600EA060001D06C
:100DC00000B10124204670BD8389F0E7038AEEE775
:100DD00010B5C1F3421301F01F040121A140012B02
:100DE00007D0022B07D01430002A026805D00A432E
:100DF00004E00C30F8E71030F6E78A43026010BDDB
:100E000030B50446008A85B00D464CF6FF710840A7
:100E1000E98801432182A0894EF6F3110840A98890
:100E20002A8911436A8902431143A181A08A4FF69E
:100E3000FF410840A9890143A1826846FFF7A4FD4C
:100E40001948844201D1039800E00298A18909045D
:100E500000EBC00101EB0010296801D5490000E05A
:100E60008900B0FBF1F06422B0FBF2F109010B093B
:100E70006FF018056B4300EB8300A3891D044FF04E
:100E8000320306D503EBC000B0FBF2F000F0070020
:100E900005E003EB0010B0FBF2F000F00F00084398
:100EA000208105B030BD000000380140C1F30801C9
:100EB00081807047FEE7000070B509250A4C4FF0AD
:100EC000FF310023C25C51400022CE0702D084EAE9
:100ED000510100E04908521C082AF6DB5B1CAB42BA
:100EE000F0D3C84370BD00002083B8ED70B54FF05B
:100EF000FF320024094D0CE0035D5A400023D60761
:100F000002D085EA520200E052085B1C082BF6DB97
:100F1000641C8C42F0D3D04370BD00002083B8ED38
:100F200070B528B10C4C04F5E045FFF7CBFA0DE0A5
:100F30000A4CF8E72046FFF771FA042804D0FFF7BF
:100F40009FFA4FF0FF3070BD04F58064AC42F1D3DE
:100F5000FFF796FA002070BD0090000800200008FE
:100F600030B501000D480E4B09D01C460D4DD4F88C
:100F7000002104F58074AA4203D0A81730BD0446AE
:100F8000F4E701B11846A168FFF7B0FFE1688142BC
:100F900002D04FF0FF3030BD002030BD00200008EF
:100FA00000900008DDCCBBAA48B10B480B4AD0F832
:100FB000001100F58070914203D0D01770470848A7
:100FC000F4E7806810B1B0F5E04F02D96FF001008E
:100FD000704700207047000000900008DDCCBBAADD
:100FE000002000082DE9F04115000F4606460AD002
:100FF0001748864203D317497019884205D96FF004
:101000000100BDE8F0810020FBE7FFF75BFA002458
:101010004FF0FF3807E0381901883019FFF738FA28
:1010200004280DD1A41C601CA842F4D3AC420BD2FE
:10103000385D40F47F413019FFF72AFA042803D0C5
:10104000FFF71EFA4046DCE7FFF71AFADBE700007D
:1010500000200008000001081FB5FFF76BFD4FF4EA
:10106000E130FFF7B7FDFFF76FFBFFF7D1FA012182
:101070005DA20846FFF72DFC684600F04FF95E4C74
:1010800000984FF4FA75A04221D19DF80600F0B106
:1010900000F03CF9064659A201210220FFF719FC95
:1010A0003046FFF781FF20B93046FFF759FF00288F
:1010B0005AD056A201210320FFF70BFC00208DF827
:1010C0000600684600F052F92846FFF78DF90098AF
:1010D000A04233D19DF8050080B350A20121022027
:1010E000FFF7F7FB002400F089F9002844D006211F
:1010F0004DA0641CFFF716FE04F13000C0B2FFF7EC
:101100001DFE04214AA0FFF70DFE4BA20121042081
:10111000FFF7DFFB202206210420FFF785FB0123D8
:10112000224607210420FFF7B3FB45A20821042033
:10113000FFF7CFFB032CD6DB00F0CBF800F0D4F8A0
:10114000002831D03F4CFFF72FFF00282ED0FFF7AB
:101150005FFA01213CA20846FFF7BBFB3EA201213A
:101160000220FFF7B6FBFEE700F037F93EA20121AF
:101170000320FFF7AEFBA7E710213EA0FFF7D2FD4B
:1011800041A201210420FFF7A4FB2846FFF72CF918
:1011900000F010F940490868404A00F4E06010434C
:1011A0000860BFF34F8FFEE73D4CCCE7FFF730FA06
:1011B00001213CA20846FFF78CFBC820FFF714F979
:1011C00072B600213A48FFF7CBFD00213948FFF7FE
:1011D0006BF8BFF34F8FBFF3608F2068FEF7FFFF00
:1011E00060688047FEE70000424F4F544C4F414437
:1011F00045522056312E3000A5A555AA41435449E9
:1012000056415445204E4557000000004143544983
:1012100056415445204641494C0000004F5441205E
:101220004D4F4445000000005245545259200000E3
:101230002F330D0A0000000052455452590000009F
:101240002F330000009000084E4F2056414C494477
:101250002041505021000000464C4153482056493F
:101260004120535744000000535749544348204FEE
:101270004B000000555044415445205355434345CD
:1012800053530D0A000000004F4B21205245534597
:10129000542E2E2E000000000CED00E00400FA0594
:1012A000002000084A554D5020544F204150500016
:1012B000004400406C00024048B100210A22B0FB0B
:1012C000F2F0491CC9B20028F9D108467047012044
:1012D00070471FB5684600F021F800208DF8050022
:1012E000684600F043F81FBD1FB5684600F016F8C9
:1012F00005490098884203D19DF80400012800D0D8
:10130000002004B010BD0000A5A555AA10B5FFF738
:10131000EBFF08B1002010BD012010BD7FB51149C1
:101320000546114A08680024904208D000940194B0
:10133000029403942C606C60AC60EC607FBD091D6E
:101340000EC98DE80F006846FFF7B6FD039981428C
:1013500003D000940194029403949DE80F0085E863
:101360000F007FBD001C0008A5A555AA7FB5001D74
:1013700001AB07C883E807000C4800906846FFF7F8
:101380009BFD0390FFF79EF8094E3046FFF746F8A5
:101390006D46002424F00100295AA019FFF778F8BF
:1013A000A41C102CF6D3FFF76BF87FBDA5A555AA9A
:1013B000001C00081FB56846FFF7B0FFFFF7A6FF47
:1013C00001218DF8061028B18DF808106846FFF746
:1013D000CDFF1FBD8DF80710F8E71FB56846FFF772
:1013E0009DFFFFF793FF8DF8040000208DF80600A5
:1013F0008DF805006846FFF7B9FF1FBD2DE9F04FD6
:10140000C1B0FFF783FF5FEA000A14D070480026DE
:101410008146C84637463546FFF7FAF801216DA2E6
:101420000846FFF756FA5046FFF77AFD28B101212A
:101430006CA20220AAE06E48E9E718216DA0FFF730
:1014400071FCFFF7E5F8012172A20846FFF741FAA7
:101450004FF4807BFFF78AFB04006FD05C4500D916
:101460005C4621466846FFF731FC22466946404605
:10147000FFF7B8FD08B16BA286E0A0442644002522
:101480004FB909F58870804505D31038684A01685E
:10149000914200D187683046FFF70EFF034632467F
:1014A00001210220FFF7F4F93046FFF705FF401C49
:1014B000C1B22F220220FFF7B7F9AFB33846FFF7CA
:1014C000FBFE04463046FFF7F7FE801CC1B2234600
:1014D0003A460220FFF7DCF93046FFF7EDFE0446FE
:1014E0003846FFF7E9FE2044801CC1B251A2022019
:1014F000FFF7EFF964207043B0FBF7F4642C00D9D8
:1015000064242046FFF7D8FE03462246012103202B
:10151000FFF7BEF92046FFF7CFFE401CC1B22522DF
:101520000320FFF781F909E0FFE73046FFF7C4FE2B
:10153000801CC1B240A20220FFF7CBF90A20FEF7BF
:1015400053FF0A35BEB140F6B830854282D301213F
:101550003BA20846FFF7BDF96420FEF745FF504661
:10156000FFF722FD4FF0FF34B8B10C2138A0FFF790
:10157000D9FB3BA21AE047F230508542E6D3112155
:101580003AA0FFF7CFFB3EA201210846FFF7A1F9E1
:101590006FF0010041B0BDE8F08F5046FFF7E0FC6E
:1015A00050B10A2138A0FFF7BDFB3AA2012108463D
:1015B000FFF78FF92046EDE7082139A0FFF7B2FBCE
:1015C00001213AA20846FFF784F90020E2E7000073
:1015D0000090000845524153494E4720534C4F5408
:1015E0002E2E2E004552415345204641494C2100A4
:1015F000002000084552415345204F4B0D0A5245EB
:1016000041445920544F20524543454956450D0AFF
:1016100000000000524543454956494E472E2E2EA4
:10162000000000005752495445204641494C2100D2
:10163000DDCCBBAA20420000203F20420000000079
:10164000564552494659494E472E2E2E000000005D
:10165000424144204845414445520D0A00000000E3
:1016600042414420484541444552000054494D45BB
:101670004F5554204E4F20444154410D0A00000064
:1016800054494D454F555400435243204641494C1F
:101690000D0A0000435243204641494C000000001F
:1016A000435243204F4B0D0A000000004352432099
:1016B0004F4B000000000000000000000000000090
:1016C00000000000000000F80000000000000033EF
:1016D0003000000000100C06100C06000000000096
:1016E0000000000040C07840C0784000043F04047F
:1016F0003F040400007088FC08300000001820FF40
:10170000211E0000F008F000E018000000211C037A
:101710001E211E0000F00888700000001E212324F6
:101720001927211010160E00000000000000000014
:1017300000000000000000E01804020000000007A4
:101740001820400000020418E000000000402018AB
:1017500007000000404080F0804040000202010F7E
:1017600001020200000000F0000000000101011F62
:1017700001010100000000000000000080B07000C6
:101780000000000000000000000000000001010156
:1017900001010101000000000000000000303000E5
:1017A00000000000000000008060180400601806BF
:1017B0000100000000E010080810E000000F1020F9
:1017C00020100F00001010F8000000000020203F43
:1017D00020200000007008080888700000302824CD
:1017E000222130000030088888483000001820206E
:1017F00020110E000000C02010F800000007042493
:10180000243F240000F808888808080000192120D7
:1018100020110E0000E0108888180000000F112031
:1018200020110E0000380808C83808000000003FEA
:10183000000000000070880808887000001C222149
:1018400021221C0000E010080810E00000003122F6
:1018500022110F00000000C0C00000000000003096
:1018600030000000000000800000000000008060E8
:101870000000000000008040201008000001020469
:101880000810200040404040404040000404040450
:10189000040404000008102040800000002010080C
:1018A00004020100007048080808F0000000003041
:1018B00036010000C030C828E810E00007182724CF
:1018C00023140B000000C038E0000000203C23027D
:1018D0000227382008F8888888700000203F2020E0
:1018E00020110E00C0300808080838000718202012
:1018F0002010080008F808080810E000203F202009
:1019000020100F0008F88888E8081000203F2020E9
:101910002320180008F88888E8081000203F2000DD
:1019200003000000C0300808083800000718202015
:10193000221E020008F808000008F808203F2101D4
:1019400001213F20000808F8080800000020203F7F
:101950002020000000000808F8080800C0808080EF
:101960007F00000008F888C028180800203F2001E8
:101970002638200008F8080000000000203F202042
:101980002020300008F8F800F8F80800203F003F59
:10199000003F200008F830C00008F808203F200071
:1019A00007183F00E01008080810E0000F10202082
:1019B00020100F0008F808080808F000203F210157
:1019C00001010000E01008080810E0000F182424AE
:1019D00038504F0008F8888888887000203F200021
:1019E000030C3020007088080808380000382021D7
:1019F00021221C00180808F8080818000000203FE1
:101A00002000000008F808000008F808001F202047
:101A100020201F000878880000C838080000073818
:101A20000E010000F80800F80008F800033C070069
:101A3000073C0300081868808068180820302C03D1
:101A4000032C30200838C800C83808000000203FA8
:101A50002000000010080808C83808002038262197
:101A600020201800841A0008000000203000000028
:101A70006C010008B41A0008300000206008000063
:101A80008801000800A24A040000000000000000D5
:101A9000010203040607080902040608000000000A
:101AA0000102030401020304060708090000000004
:041AB0000000000032
:0400000508000131BD
:00000001FF
