:020000040800F2
:10000000F80B0020DD010008213200081725000848
:1000100055310008B91400086B48000800000000C2
:10002000000000000000000000000000693C000823
:100030000917000800000000DD3800089D3D000899
:10004000F7010008F7010008F7010008F7010008B0
:10005000F7010008F7010008F7010008F7010008A0
:10006000F7010008F7010008F7010008F701000890
:10007000F7010008F7010008F7010008F701000880
:10008000F7010008F7010008F7010008F701000870
:10009000F7010008F7010008F7010008F701000860
:1000A000F7010008F7010008F7010008F701000850
:1000B000F7010008F7010008F7010008F701000840
:1000C000F7010008F7010008F7010008F701000830
:1000D000F701000801430008AD440008F7010008DB
:1000E000F7010008F7010008F7010008F701000810
:1000F000F7010008F7010008F7010008F701000800
:10010000F7010008F7010008F7010008F7010008EF
:10011000F7010008F7010008F7010008F7010008DF
:10012000F7010008F7010008F7010008F7010008CF
:1001300000F002F800F042F80AA090E8000C8244B7
:100140008344AAF10107DA4501D100F037F8AFF294
:10015000090EBAE80F0013F0010F18BFFB1A43F0A5
:1001600001031847045C0000245C0000103A24BF1F
:1001700078C878C1FAD8520724BF30C830C144BF0C
:1001800004680C607047000000230024002500264E
:10019000103A28BF78C1FBD8520728BF30C148BFEA
:1001A0000B607047642900F09D80732900F029835B
:1001B000002070471FB51FBD10B510BD00F02EFB0D
:1001C0001146FFF7F7FF04F03BFD00F04CFB03B4D2
:1001D000FFF7F2FF03BC00F04FFB00000948804727
:1001E00009480047FEE7FEE7FEE7FEE7FEE7FEE719
:1001F000FEE7FEE7FEE7FEE704480549054A064B31
:1002000070470000A13D000831010008F8050020FA
:10021000F80B0020F8070020F80700200FB41CB5E9
:10022000074B06AA7B4469460090059800F0BFFA88
:100230000020694600F0CEFA1CBC5DF814FB0000FB
:10024000AD05000070B5044685690068C10601D59A
:10025000302600E02026C00707D070BDD4E9012178
:1002600030469047206A401C20626D1EF6D570BD56
:1002700070B5044685690078C00707D170BDD4E920
:10028000012120209047206A401C20626D1EF6D577
:1002900070BD70B50C460546012A05D02878800649
:1002A00000D5EA69002302E0012305E05B1C9342CC
:1002B00002D2E05C0028F9D1A869E618C01AA8614A
:1002C000286A184428622846FFF7BCFF04E0D5E9F5
:1002D000012114F8010B9047B442F8D32846FFF7E8
:1002E000C7FF70BD2DE9F04106460024106875294E
:1002F000314616A510D0AFF30080002802DA404244
:1003000013A507E031688A0701D512A502E0490765
:1003100004D511A5012401E0AFF3008000210A22D9
:1003200006F1240709E0B0FBF2FCB0FBF2F302FB9C
:100330001C00303078541846491C0028F3D123465D
:100340002A463046BDE8F04100F0D2B90000000076
:100350002D0000002B000000200000002DE9F047D8
:100360004FF0000A89460446C0F820A02046E16804
:100370008847002876D0252806D0D4E90121904767
:10038000206A401C2062F1E7E16820460026884789
:10039000C4F81CA005460027C4F818A02A2D09D0CF
:1003A000284604F085FA38B304EB8708303DC8F8D6
:1003B000185019E059F8041B204604EB870291619C
:1003C000E1688847012F054618D1E069002820DA46
:1003D00026F020061DE0D8F8180000EB800005EBA1
:1003E00040003038C8F818002046E16888470546C4
:1003F00004F05EFA0028EED1012F0AD02E2D08D18C
:100400002046E16888477F1C0546022F46F02006FB
:10041000C4DBA069002803DA404246F00106A0616F
:10042000F00701D026F010066C2D0AD0682D08D0F8
:100430004C2D39D06A2D35D0742D35D07A2D33D04E
:1004400016E0E1682F4620468847B84205460AD1A3
:100450006C2F27D04FF48060E16806432046884720
:10046000054605E027E06C2F1AD04FF48070064354
:100470000DB3A5F14100192802D8203546F40066D5
:100480004A462946204626604E46FFF78BFE80B13D
:1004900001280BD0F61D26F0070000F1080965E7DA
:1004A0004020E4E78020D7E70020D5E706F10409E3
:1004B0005CE7284661E7206ABDE8F08730B505466D
:1004C0000B462A4613F8014B12F8010B08B1A04263
:1004D000F8D01CB1002802D06D1CF1E7284630BDD1
:1004E00010B5431C02E010F8011B71B18107FAD16D
:1004F0004FF0013202C88C1A8C4314EAC211F9D0B1
:10050000C01A0A0603D0C01E10BDC01A10BD0A04CE
:1005100001D0801E10BD0902FCD0401E10BD032A70
:1005200040F2308010F0030C00F0158011F8013B10
:10053000BCF1020F624498BF11F801CB00F8013BF7
:1005400038BF11F8013BA2F1040298BF00F801CBBB
:1005500038BF00F8013B11F0030300F02580083A92
:10056000C0F0088051F8043B083A51F804CBA0E8E9
:100570000810F5E7121D5CBF51F8043B40F8043B3E
:10058000AFF30080D20724BF11F8013B11F801CB73
:1005900048BF11F8012B24BF00F8013B00F801CB44
:1005A00048BF00F8012B704710B5203AC0F00B800F
:1005B000B1E81850203AA0E81850B1E81850A0E867
:1005C0001850BFF4F5AF5FEA027C24BFB1E81850C1
:1005D000A0E8185044BF18C918C0BDE810405FEA31
:1005E000827C24BF51F8043B40F8043B08BF7047AD
:1005F000D20728BF31F8023B48BF11F8012B28BFB2
:1006000020F8023B48BF00F8012B7047431A28BF6F
:100610009A427FF6C9AF104410F0030F11441EBF79
:1006200011F8013D521E00F8013D10F0030F7FF458
:10063000F6AF103AC0F00A8010B531E91850103A00
:1006400020E91850BFF4F9AFBDE81040530724BFAC
:1006500031E9081020E9081044BF51F8043D40F882
:10066000043D12F0030F08BF7047D20728BF31F8CE
:10067000023D48BF11F8012C28BF20F8023D48BFB9
:1006800000F8012C70474FF0000200B51346944665
:100690009646203922BFA0E80C50A0E80C50B1F1DA
:1006A0002001BFF4F7AF090728BFA0E80C5048BFEE
:1006B0000CC05DF804EB890028BF40F8042B08BF8C
:1006C000704748BF20F8022B11F0804F18BF00F888
:1006D000012B704770477047704710B500F096F8CF
:1006E000006810BD10B5044600F090F8046010BD1D
:1006F0002DE9F0470D4699469246044600F124083C
:100700000168880604D5E06921F01001216000E04D
:100710000120A84201DD471B00E00027A1697A19EA
:1007200002EB0900081AA0612078C00602D4204616
:10073000FFF788FD002608E0D4E901211AF8060039
:100740009047206A401C761C20624E45F4DB2078DE
:10075000C0060AD52046FFF775FD06E0D4E9012161
:1007600030209047206A401C2062381EA7F1010704
:10077000F4DC07E0D4E9012118F805009047206A6D
:10078000401C2062281EA5F10105F3DC2046FFF77E
:100790006FFD2078000602D50220BDE8F087012019
:1007A000FBE7000001694A1C02610878704700B548
:1007B0008FB0CDE901310021059105497944CDE99A
:1007C000031011466846FFF7C9FD0FB000BD0000D9
:1007D000E5FFFFFF0A6802F8010B0A60704710B5D9
:1007E000436913B1AFF3008001E0FFF752FD012030
:1007F00010BD127800F124010A7000224A70012213
:10080000EDE711684FF0FF32E9E70000004870475C
:100810009805002000487047980500207546FFF7AE
:10082000F9FFAE4605006946534620F007008546AD
:1008300018B020B5FFF7E0FCBDE820404FF00006FF
:100840004FF000074FF000084FF0000B21F00701B8
:10085000AC46ACE8C009ACE8C009ACE8C009ACE8FB
:10086000C0098D46704710B50446AFF3008020469E
:10087000BDE81040FFF7ABBC01491820ABBEFEE756
:10088000260002007047000070B50446ECB10F4925
:1008900008680F4904F0B4FC054604F049FC00B2B6
:1008A00020800A4948680A4904F0AAFC054604F079
:1008B0003FFC00B2608005498868054904F0A0FC4F
:1008C000054604F035FC00B2A08070BD9C020020FB
:1008D0000000C84210B5044802F03EFB18B90349B5
:1008E000014802F033F810BD8C0200200AD7233CE7
:1008F0002DE9F04104460B49204604F023FB8046D5
:10090000094904F07DFC0746084904F0A7FA0646A9
:100910004FF07C5104F0A2FA054604F025FC80B2A9
:10092000BDE8F081000034430000FA440000FA43BF
:1009300010B502F057FE10BD10B504460348047010
:100940000146087802F098FE10BD00004500002026
:1009500010B5002002490870087802F08DFE10BD25
:10096000450000203748007880B93748007A36497A
:1009700008740846417A4174817A81748189818240
:10098000817B817501202F4908705AE02E48007A3A
:10099000C0EB001040002C49097CC1EBC10101EB08
:1009A000810100EB4100642190FBF1F026490874BD
:1009B0000846407AC0EB001041002348407CC0EB61
:1009C000C00000EB800001EB4000642190FBF1F0DF
:1009D000C1B21D484174807AC0EB001041001A4832
:1009E000807CC0EBC00000EB800001EB4000642184
:1009F00090FBF1F0C1B2144881748089C0EB001003
:100A000041001148808AC0EBC00000EB800001EB80
:100A10004000642190FBF1F081B20B488182807B21
:100A2000C0EB001041000848807DC0EBC00000EB27
:100A3000800001EB4000642190FBF1F0C1B202485C
:100A4000817570473F000020CC00002010B501F0F8
:100A500049FF10BD10B500F061F8FFF7F7FF00F097
:100A600047F9FFF765FF00F02FF900F039FD01208D
:100A70000149487110BD00002800002002460A29E3
:100A800047D2DFE801F046050C141B222A31383F1B
:100A9000C2EBC200204B03EB800040887047C2EBE2
:100AA000C2001D4B03EB8000B0F90400F6E7C2EB77
:100AB000C200194B03EB8000C088EFE7C2EBC20015
:100AC000154B03EB80008068E8E7C2EBC200124BD5
:100AD00003EB8000B0F90C00E0E7C2EBC2000E4B64
:100AE00003EB80000069D9E7C2EBC2000A4B03EBBD
:100AF00080004069D2E7C2EBC200074B03EB8000E5
:100B0000007ECBE7C2EBC200034B03EB8000407ECC
:100B1000C4E70020C2E700009400002010B538218F
:100B20000548FFF7B0FD012003490870022008774F
:100B3000024802F0D5FE10BD94000020650B0008AD
:100B400038B504468DF8004043208DF801007A2026
:100B50008DF802006B208DF803000421684603F035
:100B600067FC38BD70B50446FF252078012801D107
:100B7000002503E02078022800D10125FF2D00D1B7
:100B800070BD6078432805D194F82220A11C284626
:100B900002F0FEFD00BFF3E71CB50648411EA0F1C0
:100BA0000F03CDE900109A88598818880C3302F099
:100BB0006CFA1CBDDB00002011490988104A5288DC
:100BC00011440F4A9288881800B901200C490988FD
:100BD00064225143B1FBF0F1094A11721146498870
:100BE00064225143B1FBF0F1CAB205494A728988C7
:100BF00064225143B1FBF0F1CAB201498A727047D5
:100C0000CC00002010B51648818A827D847CC38880
:100C1000B3F5967F01DA002010BD642903DB1C2A9E
:100C200001DC0120F8E732290DDB55290BDC282AED
:100C300003DD162C01DC0320EEE7282A03DC162C4A
:100C400001DD0220E8E741F28830834201DD012026
:100C5000E2E7B3F5E16F01DA0320DDE70020DBE72F
:100C6000CC00002010B5FFF7CDFF04463CB90020B2
:100C700012490870124908801249087010BD0F48C7
:100C8000007884420CD10E480088142805DA0C48FC
:100C90000088401C0A49088007E00A48047004E004
:100CA000002007490880054804700548008814287A
:100CB00002DB04480078E1E7FF20DFE74000002086
:100CC000420000204400002010B503F0BBF810BD26
:100CD00010B5064803F0CBF800F02CF8FFF76CFFD6
:100CE000FFF75AFFFFF73EFE10BD00003600002060
:100CF00010B502F0D5FC10BD70B504460D46022CAF
:100D000008DA0B4800EB44004570611CC8B2294664
:100D100002F022FD54B906484570C57029460120ED
:100D200002F01AFD2946022002F016FD70BD0000F7
:100D30004600002010B51D4840881D491D4A127804
:100D400021F81200194880881B491A4A127821F8A4
:100D500012001648C0881949164A127821F8120064
:100D6000124801881648134A127820F812101148C8
:100D70000078401CC0B20F490870052801DB002034
:100D800008700B4802F04BF90E4908800A4802F03F
:100D900046F90C494880094802F041F90949888020
:100DA000074802F03CF90749C88010BD3600002012
:100DB000E40000203E000020EE000020F8000020AB
:100DC00002010020CC00002010B586B0FD4800686C
:100DD000401CFC490860084600680A21B0FBF1F29B
:100DE00001FB120080B9FFF775FDFFF771FFF648B0
:100DF0000078FFF7A5FEF4480078012801D1022011
:100E000000E00120F0490870F0484078012828D11E
:100E100004A8FFF739FD5A208DF80800BDF810002E
:100E2000C0B28DF80900BDF81000000A8DF80A0064
:100E3000BDF81200C0B28DF80B00BDF81200000A18
:100E40008DF80C00BDF81400C0B28DF80D00BDF88F
:100E50001400000A8DF80E00072102A802F09CFD84
:100E600000BFDA48807801281BD15B208DF8000094
:100E70001C22D7490DF10100FFF751FB18216846EC
:100E800002F08AFD5B208DF800001C22D0491C3145
:100E90000DF10100FFF743FB1821684602F07CFDCD
:100EA00000BFCA48007901280CD1FFF7DBFE0446D9
:100EB0005D208DF814008DF81540022105A802F080
:100EC0006BFD00BFC148C078012813D15C208DF8AC
:100ED0001000C04840788DF81100BE48C0788DF8E9
:100EE0001200BD4800788DF81300052104A802F017
:100EF00053FD00BFB54800780A2879D2DFE800F03A
:100F000078053B6A99C6FDFBFAF9B4A201210846AF
:100F100002F033FBB5A20121022002F02EFBB449FE
:100F2000086804F005F904B20323224604210220D4
:100F300002F0F0FAAFA20121032002F01EFBAC493F
:100F4000486804F0F5F804B2032322460421184649
:100F500002F0E0FAA8A20121042002F00EFBA4494D
:100F6000886804F0E5F804B2032322460421084609
:100F700002F0D0FA4DE29648A0A1026902A8FFF75C
:100F80004DF902AA0121084602F0F7FA9048B0F99B
:100F90000C209DA102A8FFF741F902AA012102201D
:100FA00002F0EBFA8A489BA1C26A02A8FFF736F961
:100FB00002AA0121032002F0E0FA8548B0F92820B6
:100FC00097A102A8FFF72AF902AA0121042002F042
:100FD000D4FA1EE29548428895A102A8FFF71EF9AF
:100FE00002AA0121084602F0C8FA9048828800E06F
:100FF0000EE292A102A8FFF711F902AA0121022034
:1010000002F0BBFA8948C2888FA102A8FFF706F94F
:1010100002AA0121032002F0B0FA844802888DA1BF
:1010200002A8FFF7FBF802AA0121042002F0A5FAAA
:10103000EFE18B4802888BA102A8FFF7EFF802AA24
:101040000121084602F099FA8548428888A102A841
:10105000FFF7E4F802AA0121022002F08EFA80488C
:10106000828886A102A8FFF7D9F802AA01210320ED
:1010700002F083FA7A48C28883A102A8FFF7CEF86B
:1010800002AA0121042002F078FAC2E17448027A2F
:1010900080A102A8FFF7C2F802AA0121084602F0C7
:1010A0006CFA6F48427A7FA102A8FFF7B7F802AA4C
:1010B0000121022002F061FA6948827A7DA102A82A
:1010C000FFF7ACF802AA0121032002F056FA6448A7
:1010D000008863494988084461498988421879A190
:1010E00002A8FFF79BF802AA0121042002F045FAAA
:1010F0008FE15AE154E027E0FFE75948828975A162
:1011000002A8FFF78BF802AA0121084602F035FA7F
:101110005348827B73A102A8FFF780F802AA01213D
:10112000022002F02AFA4E48C27B72A102A8FFF701
:1011300075F802AA0121032002F01FFA71A2012111
:10114000042002F01AFA64E14548807C009044488B
:10115000437C027C6FA102A8FFF760F802AA01217C
:10116000084602F00AFA3E48837D828A6EA102A8F0
:10117000FFF754F802AA0121022002F0FEF93848D4
:10118000C2886CA102A8FFF749F802AA0121032036
:1011900002F0F3F96BA20121042002F0EEF938E12C
:1011A000FFF730FD04466BA20121084602F0E5F985
:1011B000012C05D16BA20121032002F0DEF9EEE043
:1011C000D8E000003000002034000020280000207B
:1011D0009400002046000020450000204D5055207E
:1011E000417474697475646500000000523A00002F
:1011F0009C020020503A0000593A00004D31205026
:101200006F733A25366C64004D312056656C3A2573
:10121000346400004D3220506F733A25366C640000
:101220004D322056656C3A253464000036000020AB
:10123000525F5261773A253564000000475F526182
:10124000773A253564000000425F5261773A2535D0
:1012500064000000435F5261773A25356400000066
:10126000CC000020525F436C6E3A253564000000CC
:10127000475F436C6E3A253564000000425F436C63
:101280006E3A253564000000435F436C6E3A2535A5
:1012900064000000525063745F5261773A20253336
:1012A00064252500475063745F5261773A202533E7
:1012B00064252500425063745F5261773A202533DC
:1012C0006425250053756D5F436C6E203A253564A7
:1012D000000000004875655F5261773A202533644D
:1012E000000000005361745F5261773A2025336437
:1012F0000000000056616C5F5261773A202533642C
:10130000000000004D6F64653A20496E73742048F8
:1013100053560000523A25326420473A2532642061
:10132000423A253264000000483A25336420533A9B
:1013300025336400436C6561725F436C6E3A2535FA
:101340006400000046696E616C2046757365642018
:101350004F4B00002D2D2D20535441545553202D1B
:101360002D2D0000204245414E3A20574849544512
:1013700020200000022C05D127A20121032002F029
:10138000FCF80CE0032C05D127A20121032002F078
:10139000F4F804E028A20121032002F0EEF82AA2CA
:1013A0000121042002F0E9F833E0FFF75BFC04467A
:1013B00029A20121084602F0E0F8012C05D12AA259
:1013C0000121032002F0D9F81CE0022C05D12AA249
:1013D0000121032002F0D1F814E0032C05D12AA248
:1013E0000121032002F0C9F80CE0FF2C05D12AA24C
:1013F0000121032002F0C1F804E02BA20121032007
:1014000002F0BBF810A20121042002F0B6F800E0BF
:1014100000BF00BF06B010BD204245414E3A2059E2
:10142000454C4C4F57200000204245414E3A204742
:101430005245454E20200000204245414E3A204E64
:101440004F4E4520202000002D2D2D2D2D2D2D2DF2
:101450002D2D2D2D2D2D00002D534D415254204367
:101460004845434B2D000000205B57484954452018
:101470004245414E5D200000205B59454C4C4F5782
:10148000204245414E5D0000205B475245454E20BD
:101490004245414E5D2000002020434845434B49D2
:1014A0004E472E2E2E20000020202020454D505447
:1014B000592020202020000000BFFEE710B5014683
:1014C0008A788878801EC3B2002005E0CC1C245C9A
:1014D0001444E2B2441CA0B29842F7DB104610BD9F
:1014E00010B501F08FFE024802F04CFA10BD00006A
:1014F000F514000810B50446204601F055FE10BD55
:10150000F0B591B0684601F027FE20B39DF80200C7
:10151000032820DB9DF8035001AE9DF80200C01E99
:10152000C7B2002413E00D4810F83400A8420CD1D3
:101530000A4800EBC400406838B1084800EBC4001A
:10154000394642683046904703E0601C84B21E2C46
:10155000E9D300BF00BF11B0F0BD0000785C000807
:1015600021B1026842F00102026004E002684FF615
:10157000FE731A400260704701684FF6FE72114018
:1015800001600021016041608160C1604B49884277
:1015900008D14A490839496841F00F01474A083AD9
:1015A00051608AE045491431884208D143490839DD
:1015B000496841F0F001414A083A51607DE03F49F5
:1015C0002831884208D13D490839496841F47061A1
:1015D0003A4A083A516070E038493C31884208D1B3
:1015E00036490839496841F47041344A083A516033
:1015F00063E032495031884208D13049083949689E
:1016000041F470212D4A083A516056E02B4964316B
:10161000884208D129490839496841F47001274AAC
:10162000083A516049E025497831884208D1234978
:101630000839496841F07061204A083A51603CE03D
:101640001F49884206D1011F096841F00F01021F9E
:10165000116032E01A491431884208D11849091F33
:10166000096841F0F001164A121F116025E0144983
:101670002831884208D11249091F096841F4706174
:101680000F4A121F116018E00D493C31884208D101
:101690000B49091F096841F47041094A121F116082
:1016A0000BE007495031884207D10549091F0968F5
:1016B00041F47021024A121F116070470800024075
:1016C000080402400146486880B2704710B5002205
:1016D000026847F6F0739A430C6A8B6823430C69DF
:1016E00023434C6923438C692343CC6923434C6ACD
:1016F00023438C6A23431A430260CB6843600B6820
:1017000083604B68C36010BD704700000146114AFA
:1017100012884A434FF0E0235A6100229A611A4628
:10172000126942F001021A6100BF4FF0E022106915
:1017300000F001021AB100F48032002AF5D04FF017
:10174000E022126922F001024FF0E0231A61002228
:101750009A6170474C0000200146114A12884A43A2
:101760004FF0E0235A6100229A611A46126942F052
:1017700001021A6100BF4FF0E022106900F001027F
:101780001AB100F48032002AF5D04FF0E02212693D
:1017900022F001024FF0E0231A6100229A617047A3
:1017A0004A00002000B5A1B0C820FFF7AFFF032119
:1017B00036A002F03DFF4FF47A70FFF7A7FF4FF419
:1017C000FA7233A133A000F0E3F84FF4FA7230A1BB
:1017D00032A000F0DDF84FF47A722DA131A000F0B4
:1017E000D7F810B9002021B000BD32A334A237A130
:1017F00001A8FEF713FD42F2107225A101A800F026
:10180000C7F840B94FF4FA7236A1002000F0C0F8D2
:1018100008B90020E7E74FF4FA721DA133A000F0E9
:10182000B7F84FF4FA72002134A000F0B1F84FF489
:10183000FA70FFF76BFF35A336A23AA101A8FEF7B5
:10184000EDFC41F2883212A101A800F0A1F840B9E4
:101850004FF47A723AA1002000F09AF808B90020FB
:10186000C1E74FF47A720AA13AA000F091F808B9E2
:101870000020B8E74FF47A723AA13BA000F088F854
:1018800008B90020AFE70120ADE700002B2B2B00AB
:101890004F4B000041540D0A0000000041544530F8
:1018A0000D0A000041542B43574D4F44453D310D27
:1018B0000A00000034343730343437300000000080
:1018C0005265646D69204B373000000041542B4352
:1018D000574A41503D222573222C222573220D0A9E
:1018E00000000000474F54204950000041542B4352
:1018F00049504D55583D300D0A00000041542B43CE
:101900004950434C4F53450D0A00000033343536DF
:101910000000000031302E31392E35302E3130317B
:101920000000000041542B43495053544152543D50
:1019300022544350222C222573222C25730D0A0099
:10194000414C524541445920434F4E4E4543544526
:101950004400000041542B4349504D4F44453D3114
:101960000D0A00003E00000041542B4349505345EE
:101970004E440D0A0000000010B508E0FFF712FF0A
:10198000012800D110BD4FF47A70FFF7BFFEF5E7D4
:101990002DE9F043A1B005460E46174600248021EC
:1019A00001A8FEF770FE01E002F01EFE02F05EFDEF
:1019B0000028F9D145B12846FEF792FD1FFA80F8BC
:1019C0004146284602F034FE1EB9012021B0BDE890
:1019D000F0834FF0000824E00120FFF797FE1AE0A3
:1019E00002F002FE81467F2C05D3202209A901A81E
:1019F000FEF70CFE20242046611C8CB201A901F8E0
:101A0000009000200855314601A8FEF757FD08B1A7
:101A10000120DBE700BF02F029FD0028E0D108F13A
:101A20000108B845D8D30020D0E77FB506460C465C
:101A30001546002000900190029003908DF8006000
:101A4000F3208DF80100AB208DF802008DF80340E3
:101A50008DF804506B208DF805000621684602F0D1
:101A6000E7FC7FBD7FB506460C461546002000907A
:101A70000190029003908DF8006046208DF80100DF
:101A800069208DF802008DF803408DF804506B201A
:101A90008DF805000621684602F0CAFC7FBD1FB51F
:101AA0000446002000900190029003908DF80040C1
:101AB0009C208DF8010048208DF802006B208DF8E5
:101AC00003000421684602F0B3FC1FBD2DE9F04F6E
:101AD00089B005460E461746984613AC94E8100E9A
:101AE000202101A8FEF7CFFD8DF804504C208DF881
:101AF0000500AE208DF806008DF807608DF808709F
:101B00008DF80980129800128DF80A001298C0B260
:101B10008DF80B00200E8DF80C00200C8DF80D00B8
:101B2000200A8DF80E00E0B28DF80F004FEA292050
:101B30008DF8100009F0FF008DF811004FEA2A20FF
:101B40008DF812000AF0FF008DF813004FEA2B20E9
:101B50008DF814000BF0FF008DF8150017988DF824
:101B600016006B208DF81700142101A802F060FC0C
:101B700009B0BDE8F08F7FB505460C460020009007
:101B80000190029003908DF8005093208DF8010091
:101B900088208DF802008DF803406B208DF804003A
:101BA0000521684602F044FC7FBD7FB506460C4621
:101BB0001546002000900190029003908DF800607F
:101BC0009A208DF801008DF802408DF803506B20AB
:101BD0008DF804000521684602F02AFC7FBD2DE93E
:101BE000FF4706460F4615469846DDE90D9A0C9CC0
:101BF000002000900190029003908DF80060FD207D
:101C00008DF801008DF8027028128DF80300E8B2FB
:101C10008DF804008DF80580200E8DF80600200C4C
:101C20008DF80700200A8DF80800E0B28DF8090051
:101C30008DF80A908DF80BA06B208DF80C000D210B
:101C4000684602F0F5FBBDE8FF871FB5044600209B
:101C500000900190029003908DF800400E208DF8C6
:101C6000010052208DF802006B208DF80300042142
:101C7000684602F0DDFB1FBD1FB504460020009042
:101C80000190029003908DF800400A208DF8010029
:101C90006D208DF802006B208DF80300042168464A
:101CA00002F0C6FB1FBD7FB505460C460020009024
:101CB0000190029003908DF80050FE208DF80100F5
:101CC00098208DF802008DF803406B208DF80400F9
:101CD0000521684602F0ACFB7FBD1FB5044600201D
:101CE00000900190029003908DF80040FF208DF845
:101CF000010066208DF802006B208DF8030004219E
:101D0000684602F095FB1FBD2DE9FF4105460F46D1
:101D100014461E46DDF828800020009001900290B5
:101D200003908DF80050F6208DF801008DF80270B8
:101D300020128DF80300E0B28DF804008DF80560E4
:101D40008DF806806B208DF807000821684602F0A8
:101D50006FFBBDE8FF812DE9F0410246002500261A
:101D6000002000230024002791F803C00CF00F0589
:101D700091F803C00CF0100CBCF1000F03D091F8E7
:101D800002C04CEA050591F800C0BCF1000F31D04B
:101D9000146800202BE04FF0010C0CFA00F3B1F8AE
:101DA00000C00CEA03069E4220D183004FF00F0CC6
:101DB0000CFA03F7BC4305FA03FC4CEA040491F85F
:101DC00003C0BCF1280F06D14FF0010C0CFA00FC47
:101DD000C2F814C00AE091F803C0BCF1480F05D165
:101DE0004FF0010C0CFA00FCC2F810C0401C08288F
:101DF000D1D31460B1F800C0BCF1FF0F34DD5468DA
:101E000000202EE000F1080C4FF0010808FA0CF356
:101E1000B1F800C00CEA03069E4221D183004FF0C6
:101E20000F0C0CFA03F7BC4305FA03FC4CEA04045C
:101E300091F803C0BCF1280F05D100F1080C08FA95
:101E40000CF8C2F8148091F803C0BCF1480F07D118
:101E500000F1080C4FF0010808FA0CF8C2F81080E5
:101E6000401C0828CED35460BDE8F0810246002013
:101E700093680B400BB1012000E0002070474161E6
:101E80007047016170470AB1016100E0416170472C
:101E900070B504460E46012E00DA70BD257828463E
:101EA000FEF74AFD6D21002001F0E0FE00BFF4E7DF
:101EB00070B504460D46FEF74BFD6E21002001F083
:101EC000D5FE70BD2DE9F04104460D46032D01DA23
:101ED000BDE8F0812678607808B1012000E000209C
:101EE0000746A07808B1012000E000208046B8F144
:101EF000000F01D0012000E0002002460FB10120B8
:101F000000E0002001463046FFF78FFD2078602179
:101F100001F0ACFE00BFDBE72DE9F04104460D46C1
:101F2000032D01DABDE8F0812678607808B1012040
:101F300000E000208046A7783A4641463046FFF749
:101F400091FD2078692101F091FE00BFEAE770B5AC
:101F500004460D4600F082FC7121002001F086FE4F
:101F600070BD000070B504460D46012D00DA70BD4D
:101F70002078044948707221002001F077FE00BFEC
:101F8000F5E700002800002070B504460D46012D3D
:101F900000DA70BD26783046FFF781FD2078682191
:101FA00001F064FE00BFF4E72DE9F04F8BB004466A
:101FB0000D46112D02DA0BB0BDE8F08F267860785F
:101FC00008B1012000E000200A90A77894F803806F
:101FD0006079217940EA0129607A217A40EA01207A
:101FE000E17940EA0140A17940EA016AE07AA17A08
:101FF00040EA012B607B217B40EA01200990E07BD5
:10200000A17B40EA01200890207C08B1012000E07B
:102010000020079007A807C843468DE8000ECDE9C9
:10202000032105903A4630460A99FFF74FFD207884
:10203000662101F01BFE00BFBDE72DE9F04104461B
:102040000D46022D01DABDE8F0812678607808B1EE
:10205000012000E0002007460FB1012000E0002031
:1020600001463046FFF787FD2078652101F0FEFD2F
:1020700000BFE8E72DE9F04104460D46032D01DAE3
:10208000BDE8F08126786778A07808B1012000E0EB
:1020900000208046B8F1000F01D0012000E00020B0
:1020A000024639463046FFF780FD2078672101F06F
:1020B000DDFD00BFE4E7000070B504460D46012DCC
:1020C00000DA70BD20780449C8707421002001F046
:1020D000CDFD00BFF5E70000280000202DE9FF5FDF
:1020E00004460D460A2D01DABDE8FF9F2678607888
:1020F00008B1012000E000200390E078A17840EAD8
:10210000012794F80480207AE17940EA0120A1793E
:1021100040EA0140617940EA0169607A08B1012032
:1021200000E000208246A07A08B1012000E00020F3
:102130008346BBF1000F01D0012000E00020BAF17E
:10214000000F01D0012100E0002143463A46CDE9CD
:102150000091029030460399FFF741FD20786221FB
:1021600001F084FD00BFBFE738B504460D46852069
:102170008DF80000044800788DF8010002216846BF
:1021800001F00AFC38BD0000450000207047704790
:102190007FB504460D4602A8FEF776FB80208DF839
:1021A0000000BDF80800C0B28DF80100BDF80800BD
:1021B000000A8DF80200BDF80A00C0B28DF80300D5
:1021C000BDF80A00000A8DF80400BDF80C00C0B28A
:1021D0008DF80500BDF80C00000A8DF806000721F7
:1021E000684601F0D9FB7FBD30B589B004460D4685
:1021F00005A800F0B1FE81208DF804000E2205A98B
:102200000DF10500FEF78BF90F2101A801F0C4FBC9
:1022100009B030BD7CB504460D46012D00DA7CBD09
:10222000267826B1012E12D0022E28D11BE0842060
:102230008DF8000014480088ADF801001249498863
:10224000ADF803100521684601F0A6FB18E08420D4
:102250008DF804000C480088ADF80500032101A8A2
:1022600001F09AFB0CE084208DF8040006484088B9
:10227000ADF80500032101A801F08EFB00E000BFCE
:1022800000BF00BFCBE70000460000202DE9FC475F
:1022900006460F46022F01DABDE8FC873078012898
:1022A00001D0012000E0002081467578294648468B
:1022B000FEF7E4FB04464FF0010887208DF800008C
:1022C0000A2D2BD2DFE805F0050D0E0F19101A1B91
:1022D000060700BF00BFE0B28DF801004FF0020812
:1022E0001DE000BF00BF00BFE0B28DF80100200A72
:1022F0008DF802004FF0030811E000BF00BFE0B20C
:102300008DF80100200A8DF80200200C8DF80300E2
:10231000200E8DF804004FF0050800E0BCE700BF78
:102320004146684601F038FB00BFB5E770B586B09E
:1023300004460D46002D06DD2078012801D001203D
:1023400002E0002000E00020064686208DF8000014
:10235000C6EBC600064A02EB80011C220DF101000B
:10236000FEF7DDF81821684601F016FB06B070BDD7
:102370009400002070B504460D46012D00DA70BDB2
:1023800026783046FFF761FC20786B2101F06EFC67
:1023900000BFF4E770B504460D46012D00DA70BDAC
:1023A00026783046FFF768FC20786A2101F05EFC51
:1023B00000BFF4E770B505460C46012C03DB6F2126
:1023C000002001F053FC70BD70B504460D46012D90
:1023D00000DA70BD2078044908717521002001F0F1
:1023E00045FC00BFF5E70000280000202DE9F04182
:1023F00004460F46022F01DABDE8F08125786678A1
:1024000031462846FEF778FC6C21284601F02EFC68
:1024100000BFF1E770B504460D46012D00DA70BD2E
:1024200020780549087000F035FF7021002001F088
:102430001DFC00BFF3E700002800002070B5044633
:102440000D46012D00DA70BD207804498870732193
:10245000002001F00BFC00BFF5E700002800002081
:102460002DE9F04104460D46022D01DABDE8F08168
:102470002678607808B1012000E0002007460FB1FF
:10248000012000E0002001463046FFF70CFC2078D8
:10249000632101F0EBFB00BFE8E770B504460D4691
:1024A000012D00DA70BD26783046FFF716FC207843
:1024B000642101F0DBFB00BFF4E72DE9F84F04468F
:1024C0000D46062D01DABDE8F88F2678607808B150
:1024D000012000E000208146E078A17840EA012751
:1024E00094F80480607908B1012000E00020824661
:1024F000BAF1000F01D0012000E0002043463A4627
:10250000494600903046FFF7FFFB2078612101F03B
:10251000ADFB00BFD7E700BFFEE7000010B54021CC
:102520000A48FFF7ACFC80210848FFF7A8FC02200E
:10253000FFF712F940210548FFF7A3FC0220FFF73F
:102540000BF940210148FFF79AFC10BD000C014037
:1025500008B50121082001F00DFBC020ADF80000F6
:1025600003208DF8020014208DF803006946064808
:10257000FFF7F1FB40210448FFF783FC802102486C
:10258000FFF77FFC08BD0000000C014010B54021A2
:102590000A48FFF774FC80210848FFF772FC02200C
:1025A000FFF7DAF840210548FFF76BFC0220FFF740
:1025B000D3F840210148FFF762FC10BD000C014038
:1025C00070B50546002480211548FFF75AFC002607
:1025D00018E040211248FFF752FC0220FFF7BCF838
:1025E00040210F48FFF74DFC6006040E80210C4887
:1025F000FFF73CFC08B1601CC4B20220FFF7ACF846
:10260000701CC6B2082EE4DB40210548FFF737FCFA
:1026100015B9FFF7BBFF01E0FFF780FF204670BD53
:10262000000C014070B5044640211448FFF727FC18
:10263000002520E004F0800020B180210F48FFF742
:1026400020FC03E080210D48FFF719FC6006040E12
:102650000520FFF781F840210848FFF712FC05200C
:10266000FFF77AF840210548FFF709FC0520FFF73E
:1026700073F8681CC5B2082DDCDB70BD000C01408E
:1026800010B580210B48FFF7FCFB40210948FFF7FC
:10269000F8FB0420FFF760F880210648FFF7EFFB06
:1026A0000420FFF759F840210248FFF7E8FB01201A
:1026B00010BD0000000C014010B580210A48FFF752
:1026C000DEFB0420FFF748F840210748FFF7D9FB5D
:1026D0000420FFF741F880210348FFF7D2FB0420D4
:1026E000FFF73AF810BD0000000C014010B50024BF
:1026F00080211148FFF7C5FB40210F48FFF7C1FBC0
:102700000520FFF729F80AE0601CC4B2FA2C03DDAB
:10271000FFF7D2FF012010BD0120FFF71DF8802137
:102720000548FFF7A3FB0028EED140210248FFF740
:10273000A6FB0020EFE70000000C014070B5054645
:102740000E461446234601223146284600F001F881
:1027500070BD2DE9F0410646884615461F46FFF735
:102760008FFF002141EA4601C8B2FFF75BFFFFF788
:10277000BDFF20B1FFF7A0FF0020BDE8F08140467B
:10278000FFF750FFFFF7B2FF18B1FFF795FF0020EA
:10279000F3E7FFF775FF012101EB4601C8B2FFF730
:1027A00041FFFFF7A3FF18B1FFF786FF0020E4E722
:1027B00000240DE0681EA04204D10020FFF700FFB6
:1027C000385503E00120FFF7FBFE3855601CC4B20A
:1027D000AC42EFDBFFF770FF2846CEE737B5044683
:1027E0000D4602AB01222946204600F001F83EBD0D
:1027F0002DE9F04105460E4617469846FFF740FF83
:10280000002141EA4501C8B2FFF70CFFFFF76EFF58
:1028100020B1FFF751FF0020BDE8F0813046FFF7FF
:1028200001FFFFF763FF18B1FFF746FF0020F3E752
:1028300000240CE018F80400FFF7F4FEFFF756FF41
:1028400018B1FFF739FF0020E6E7601CC4B2BC42B4
:10285000F0DBFFF731FF0120DEE7000030B587B085
:102860000020009001900290002421E003A800F0D5
:1028700073FBBDF9140002F097FC0546009902F0C5
:10288000EDFA0090BDF9160002F08EFC05460199A4
:1028900002F0E4FA0190BDF9180002F085FC05464B
:1028A000029902F0DBFA02900220FEF72FFF641C6F
:1028B000C82CDBDB0949009802F044FB084908609A
:1028C0000649019802F03EFB054948600349029819
:1028D00002F038FB0249886007B030BD0000484371
:1028E000A802002008B5FFF733FE002000906946DB
:1028F000752000F077FB9DF80000682801D00120CA
:1029000008BD80216B2000F081FB6420FEF7FEFEF5
:1029100000216B2000F07AFB0121192000F076FBEA
:1029200003211A2000F072FB08211B2000F06EFB2F
:1029300000211C2000F06AFB0021232000F066FB30
:102940000021382000F062FB0020D9E703B59BB0DE
:10295000FE4800681A90FD4840681990FB4880685E
:102960001890FA48C06817901B98B0F900000990B9
:1029700002F01AFC0F901B98B0F90200099002F0C7
:1029800013FC0E901B98B0F90400099002F00CFCA7
:102990000D901B98B0F90800069002F005FC079016
:1029A000EB48006801460690079802F087FDE94968
:1029B000089002F0C7FAE849099002F021FC0C9057
:1029C0001B98B0F90A00069002F0EEFB0790E04871
:1029D000406801460690079802F070FDDD490890B6
:1029E00002F0B0FADC49099002F00AFC0B901B9847
:1029F000B0F90C00069002F0D7FB0790D44880682D
:102A000001460690079802F059FDD249089002F05D
:102A100099FAD149099002F0F3FB0A9000210F982E
:102A200002F052FB09D100210E9802F04DFB04D1B7
:102A300000210D9802F048FB7ED00D99084602F067
:102A4000DFFB08900E99084602F0DAFB06900F991A
:102A5000084602F0D5FB0590069902F0FFF90790B1
:102A6000089902F0FBF9099002F0E2F91690169924
:102A70000F9802F067FA0F9016990E9802F062FA1A
:102A80000E9016990D9802F05DFA0D9018991A980B
:102A900002F0B6FB08901799199802F0B1FB079065
:102AA000089902F00BFD4FF08041099002F0A8FB5D
:102AB0001590DDE9171002F0A3FB0890DDE919106D
:102AC00002F09EFB0790089902F0C8F94FF0804190
:102AD000099002F095FB14901799084602F090FBBC
:102AE00009901899084602F08BFB0790199908463F
:102AF00002F086FB05901A99084602F081FB0490CB
:102B0000059902F0DBFC0690079902F0D7FC0890CB
:102B1000099902F0A3F9139014990D9802F070FB33
:102B2000099013990E9802F06BFB0890099902F036
:102B3000C5FC1290139900E06EE00F9802F060FB64
:102B4000099015990D9802F05BFB0890099902F025
:102B5000B5FC119015990E9802F052FB099014994A
:102B60000F9802F04DFB0890099902F0A7FC109015
:102B70007A49129802F044FB099079480168099853
:102B800002F06CF9764908607449119802F038FB3C
:102B9000099074480168099802F060F97149086069
:102BA0006E49109802F02CFB09906F480168099853
:102BB00002F054F96C4908604FF08040129902F01D
:102BC0001FFB089066480168089802F047F90990D1
:102BD0000C9902F043F90C904FF08040119902F0EB
:102BE0000FFB08905F480168089802F037F90990D8
:102BF0000B9902F033F90B904FF08040109902F0DE
:102C0000FFFA089058480168089802F027F90990DF
:102C10000A9902F023F90A904FF07C501C9902F0B7
:102C2000EFFA08900A99179802F0EAFA06900B99C1
:102C3000189802F0E5FA0490199880F0004002908C
:102C40000C9902F0DDFA0390049902F037FC05902C
:102C5000069902F033FC0790089902F0D1FA099026
:102C60001A9902F0FBF81A904FF07C501C9902F070
:102C7000C7FA08900B99179802F0C2FA06900A99C1
:102C8000189802F0BDFA04900C991A9802F0B8FA5C
:102C90000390049902F0E2F80590069902F00EFC08
:102CA0000790089902F0ACFA0990199902F0D6F849
:102CB00019904FF07C501C9902F0A2FA08900C99E0
:102CC000179802F09DFA06900A99199802F098FA5E
:102CD00004900B991A9802F093FA0390049902F069
:102CE000EDFB0590069902F0B9F80790089902F0FB
:102CF00087FA0990189902F0B1F818904FF07C50BB
:102D00001C9902F07DFA08900C99189802F078FA54
:102D100006900B99199802F073FA04900A991A9880
:102D200002F06EFA0390049902F098F80590069963
:102D300002F0C4FB0790089902F062FA0990179913
:102D400002F08CF81790179908460FE05800002001
:102D5000A80200200000834235FA8E3C0AD7A33B2C
:102D6000680000206C0000207000002002F048FA8B
:102D700008901899084602F043FA069019990846F7
:102D800002F03EFA04901A99084602F039FA0390CC
:102D9000049902F063F80590069902F05FF8079035
:102DA000089902F05BF8099002F042F81690169923
:102DB0001A9802F0C7F8654908601699199802F048
:102DC000C1F8624948601699189802F0BBF85F494B
:102DD0008860DDE9161002F0B5F85C49C860084665
:102DE00080680290084680680190029902F008FA13
:102DF00004905648406802905448406801900299F7
:102E000002F0FEF90390049902F028F84FF0804197
:102E1000059002F0F5F94FF07E51069002F0BCFAF1
:102E200008904A48C0680390484880680290039917
:102E300002F0E6F905904548406803904348006871
:102E40000290039902F0DCF90490059902F006F86B
:102E50004FF08041069002F0D3F90790089901F0F5
:102E6000C1FD3B49099002F0CBF93A490860374867
:102E7000406804903548C0680390049902F0C0F996
:102E800006903248806804903048006803900499A6
:102E900002F0B6F90590069902F010FB4FF0804160
:102EA000079002F0ADF9089001F00AFD2849099059
:102EB00002F0A6F9274948602448C06802902348D8
:102EC000C0680190029902F09BF904901F48806845
:102ED00002901E4880680190029902F091F90390D7
:102EE000049901F0BBFF4FF08041059002F088F992
:102EF0004FF07E51069002F04FFA08901348806818
:102F00000390124840680290039902F079F9059005
:102F10000E48C06803900D4800680290039902F0C3
:102F20006FF90490059901F099FF4FF080410690E8
:102F300002F066F90790089901F054FD04490990E0
:102F400002F05EF9034988601DB000BD5800002002
:102F5000E02E65429C0200201FB504460E22694601
:102F60003B2000F048F80E2802D0012004B010BD2C
:102F70009DF801009DF8001040EA012000B2208079
:102F80009DF803009DF8021040EA012000B2608025
:102F90009DF805009DF8041040EA012000B2A080D1
:102FA0009DF807009DF8061040EA012000B2E0807D
:102FB0009DF809009DF8081040EA012000B2208128
:102FC0009DF80B009DF80A1040EA012000B26081D4
:102FD0009DF80D009DF80C1040EA012000B2A08180
:102FE0000020C3E770B504460D462A4621466820F6
:102FF000FFF7A4FB70BD70B504460D4616462B4680
:10300000324621466820FFF7A4FB70BD70B5044628
:103010000D462A4621466820FFF7E0FB70BD3EB50D
:10302000024610680090506801901089ADF80800C1
:1030300000211BE0002013E03DF81040431C3DF848
:1030400013309C420ADD3DF81030441C3DF814401A
:103050002DF81040441C2DF8143000BF431CD8B28A
:10306000C1F104038342E7DC481CC1B20429E1DB5F
:10307000BDF80200BDF804100844BDF8061008446D
:10308000032190FBF1F080B23EBD2DE9F0431E46D6
:10309000DDE9077C884205DD904201DD054606E05A
:1030A000154604E0914201DD0D4600E015462B4631
:1030B000884205DA904201DA054606E0154604E04A
:1030C000914201DA0D4600E01546A846A3EB08043C
:1030D00064255D434FF6FF79B5FBF9F58CF8005098
:1030E00023B900253D703580BDE8F0836425654334
:1030F000B5FBF3F53D7014B90025358028E000BF1D
:10310000834208D1A1EB0209C9EB09194FEA8909E9
:1031100099FBF4F516E08B420AD1A2EB0009C9EB4A
:1031200009194FEA890999FBF4F909F1780509E0D1
:10313000A0EB0109C9EB09194FEA890999FBF4F9D8
:1031400009F1F005002D01DA05F5B475358000BFF1
:1031500000BFC9E700BFFEE710B504460F4800886E
:103160000F490988884201D1002010BD0B48008812
:1031700000EB00100B4A02EB800144222046FDF7D1
:10318000CEF906490988481CC11700EB5171C910D6
:10319000A0EBC101014A11800120E6E77400002084
:1031A00076000020B402002070B504461149098859
:1031B000481CC11700EB5171C910A0EBC1018DB2C1
:1031C0000D480088854206D10C480068401C0B4918
:1031D0000860002070BD0749098801EB0111084A09
:1031E00002EB810044222146FDF799F90148058050
:1031F0000120EFE776000020740000207800002016
:10320000B4020020002003490880034908800349D4
:1032100008607047740000207600002078000020CD
:103220007047000070B5002100230F22C47804B35A
:10323000154C246804F4E064C4F5E064210AC1F18B
:103240000403CA40447804FA03F18478144021430B
:1032500009010E4C0678A155047804F01F050124DD
:10326000AC4005786D11AD0005F1E025C5F80041D1
:1032700009E0047804F01F050124AC40044D0678F1
:10328000761145F8264070BD0CED00E000E400E04A
:1032900080E100E070B500240EE00021204600F03F
:1032A000EDF8002504E0002000F08BF9681CC5B2A1
:1032B000802DF8DB601CC4B2082CEEDB70BD000072
:1032C00008B50121102000F055FC14208DF80300F2
:1032D00002208DF802004FF44040ADF8000069462E
:1032E0000648FEF738FD0122D1030448FEF7CBFD66
:1032F000012291030148FEF7C6FD08BD0010014000
:1033000070B50546002419E080202041284008B10E
:10331000012000E0002002464FF480410E48FEF7F5
:10332000B2FD0122D1030C48FEF7ADFD00224FF49F
:1033300000410948FEF7A7FD601CC4B2082CE3DB7E
:103340000122D1030448FEF79EFD00224FF4004104
:103350000148FEF798FD70BD0010014010B5012234
:1033600091030A48FEF78FFD0122D1030748FEF7BB
:103370008AFD00224FF480410448FEF784FD0022BC
:103380004FF400410148FEF77EFD10BD00100140E2
:1033900010B500224FF480410648FEF774FD01226B
:1033A000D1030448FEF76FFD012291030148FEF7A7
:1033B0006AFD10BD0010014070B5002407E0002533
:1033C00000E06D1C42F210708542FAD3641CB4F523
:1033D0007A7FF4D3FFF774FFAE2000F0E2F8D52037
:1033E00000F0DFF8802000F0DCF8A82000F0D9F829
:1033F0003F2000F0D6F8D32000F0D3F8002000F0F2
:10340000D0F8402000F0CDF8A12000F0CAF8C82084
:1034100000F0C7F8DA2000F0C4F8122000F0C1F87C
:10342000812000F0BEF8CF2000F0BBF8D92000F0DA
:10343000B8F8F12000F0B5F8DB2000F0B2F8302049
:1034400000F0AFF8A42000F0ACF8A62000F0A9F836
:103450008D2000F0A6F8142000F0A3F8AF2000F0B3
:10346000A0F8FFF717FF70BD10B50246012000E07D
:1034700050430B1EA1F10101FAD110BD70B50546F4
:103480000C4645F0B00000F08CF8102141EA141011
:1034900000F087F804F00F0000F083F870BD000022
:1034A0002DE9F04105460E461746721ED206110E52
:1034B0006A1E5206100EFFF7E1FF002409E0A7F193
:1034C0002001134A02EB0111085D00F07AF8601C3C
:1034D000C4B2082CF3DB721ED206110E6A1E012341
:1034E00003EB4202D0B2FFF7C9FF00240BE0A7F1C3
:1034F0002001074A02EB011204F10801505C00F0C0
:1035000060F8601CC4B2082CF1DBBDE8F08100005B
:10351000865600082DE9F0478146884615461E4626
:10352000002D06DB2B2241464846FFF7B9FF2F4608
:1035300005E02D2241464846FFF7B2FF6F420024C6
:1035400017E0301B411E0A20FFF78EFFB7FBF0F09B
:103550000A21B0FBF1F201FB120000F1300A08EB86
:103560000400401CC1B252464846FFF799FF601C58
:10357000C4B2B442E5DBBDE8F0872DE9F04107466F
:103580000E461546002407E02A5D3019C1B23846C0
:10359000FFF786FF601CC4B2285D0028F4D1BDE8A7
:1035A000F08110B50446FFF7D9FE7820FFF7A8FE9A
:1035B0000020FFF7A5FE2046FFF7A2FEFFF7E8FE7A
:1035C00010BD10B50446FFF7C9FE7820FFF798FE3E
:1035D0004020FFF795FE2046FFF792FEFFF7D8FE4A
:1035E00010BD000000B589B00121022000F0B2FA40
:1035F0000121042000F0BEFA4020ADF82000182080
:103600008DF8230003208DF8220008A91848FEF742
:10361000A2FB0020ADF81A00ADF816006320ADF84B
:1036200018004720ADF8140000208DF81C0005A9F3
:10363000104800F0FDFD01A800F0E9FD6020ADF8A4
:1036400004000020ADF80C000120ADF806000020B9
:10365000ADF80A0001A9074800F0DEFC0821054882
:1036600000F026FD0121034800F0C9FC09B000BDAF
:10367000000801400004004070B50446642C00DDE1
:10368000642404EB441000EB40006421B0FBF1F52E
:103690002946024800F0C5FD70BD0000000400404E
:1036A00000B589B00121042000F054FA012108205E
:1036B00000F060FA4FF48070ADF8200018208DF80B
:1036C000230003208DF8220008A92148FEF743FBC0
:1036D0004FF40070ADF8200008A91D48FEF73BFB31
:1036E0000020ADF81A00ADF8160044F61F60ADF8E2
:1036F00018004720ADF8140000208DF81C0005A923
:10370000144800F095FD01A800F081FD6020ADF89F
:1037100004000020ADF80C000120ADF806000020E8
:10372000ADF80A0001A90B4800F0CCFC01A909483A
:1037300000F022FD0821074800F014FD082105488B
:1037400000F058FD0121034800F059FC09B000BD0C
:10375000000C0140000800402DE9F04104460D46F0
:10376000284601F039FD0746FDF7C2F80646012C50
:1037700004D13146054800F056FD05E0022C03D186
:103780003146024800F051FDBDE8F08100080040DC
:103790002DE9F0411C2A01DABDE8F081CF7891F8DB
:1037A00002C047EA0C27C0EBC00CDFF82C8108EB05
:1037B0008C0CACF802704F7991F804C047EA0C27E2
:1037C0003FB2C0EBC00C08EB8C0CACF80470CF79A6
:1037D00091F806C047EA0C27C0EBC00C08EB8C0C34
:1037E000ACF806704F7A3F0691F80AC047EA0C47DA
:1037F00091F80BC047EA0C2791F80CC047EA0C0679
:103800000F7A012F01D1774200E03746C0EBC00CA0
:10381000DFF8C48008EB8C0CCCF80870CF7B91F8F3
:103820000EC047EA0C273BB24F7B012F01D15F420C
:1038300000E01F463FB2C0EBC00CDFF89C8008EBF5
:103840008C0CACF80C704F7C3F0691F812C047EA24
:103850000C4791F813C047EA0C2791F814C047EAC7
:103860000C050F7C012F01D16F4200E02F46C0EB09
:10387000C00CDFF8648008EB8C0CCCF810708F7DE6
:103880003F0691F817C047EA0C4791F818C047EA7D
:103890000C2791F819C047EA0C044F7D012F01D184
:1038A000674200E02746C0EBC00CDFF82C8008EB35
:1038B0008C0CCCF814708F7EC0EBC00C08EB8C0C19
:1038C0008CF81870CF7EC0EBC00C08EB8C0C8CF819
:1038D000197000BF60E700009400002070470000EE
:1038E00001490860704700008C00002030B589B0A5
:1038F0003CE000F07FFD04461F4801780078401C42
:103900001D4A10701D48445400256B2C04D11046EC
:103910000078042800DB012505B3184800788DF8ED
:103920000000164840788DF8010013480078C01E4A
:1039300080B2ADF82200BDF822201049891C0DF19B
:103940000200FCF7ECFD0E48006818B168460C490F
:103950000968884700200849087000BF06480078B9
:10396000802802D300200449087000BF00F0B2FC98
:103970000028BEDC09B030BD9000002018050020F2
:103980008C000020024908600021024A1160704743
:10399000800000208400002030B591B005460C4620
:1039A000402C00DD4024FF208DF80000FB208DF826
:1039B0000100A01CC0B28DF80200002C06DD2DB164
:1039C000224629460DF10300FCF7A9FD6846FDF7E4
:1039D00075FD8DF843009DF8000000F037FE9DF85E
:1039E000010000F033FE9DF8020000F02FFE002CD5
:1039F00004DD21460DF1030000F01AFE9DF843009E
:103A000000F024FE11B030BD10B500F02FFD88B9D4
:103A10004248007868B142480088401C404908800C
:103A2000084600880A2804DD00203C4908703C490B
:103A3000088010BD6BE000F0D7FD04460020384937
:103A400008803648007805285FD2DFE800F0030BD5
:103A50001D324600FF2C04D13248047001202F494A
:103A6000087052E0FC2C05D12E48447002202B49EE
:103A7000087008E0FF2C03D101202849087002E0FB
:103A800000202649087040E0022C01DB422C03DDB7
:103A90000020224908700BE022488470002022494F
:103AA0000880022C01D1042000E003201B4908708B
:103AB0002BE01D4801880088401C1B4A10801948D3
:103AC000C01C4454C01E8078801E1146098888425C
:103AD00002DC04201149087017E0124880F84340C6
:103AE000FDF7ECFCA04207D11048006848B10D4832
:103AF0000E490968884704E00D480068401C0C49DD
:103B0000086000200549087000BF00BF00BF00F03A
:103B1000ADFC00288FDC00BF8BE700007C0000209C
:103B200088000020D40400207E00002080000020B7
:103B30008400002029B1064A52690243044B5A61AD
:103B400004E0034A52698243014B5A617047000006
:103B50000010024029B1064AD2690243044BDA61DF
:103B600004E0034AD2698243014BDA6170470000E6
:103B70000010024029B1064A92690243044B9A613F
:103B800004E0034A92698243014B9A617047000046
:103B90000010024030B500210022002400232D4DEA
:103BA0006D6805F00C0121B1042905D0082923D145
:103BB00005E0294D056022E0274D05601FE0254DF9
:103BC0006D6805F47012234D6D6805F4803402258C
:103BD00005EB92421CB9214D554305600BE01D4D8C
:103BE0006D6805F400351DB11C4D5543056002E0BC
:103BF000194D5543056002E0174D056000BF00BF39
:103C0000144D6D6805F0F0010909154D6B5C0568F0
:103C1000DD4045600F4D6D6805F4E061090A104D07
:103C20006B5C4568DD4085600A4D6D6805F4605148
:103C3000C90A0B4D6B5C4568DD40C560054D6D687C
:103C400005F44041890B074D6B5CC568B5FBF3F586
:103C5000056130BD0010024000127A0000093D00ED
:103C600014000020240000207047000038B50446EE
:103C70000D4605A0006800908DF8014002216846BD
:103C8000FFF78AFE38BD00009000000010B500F07C
:103C900001F810BD0CB50020019000903348006879
:103CA00040F480303149086000BF3048006800F4BB
:103CB000003000900198401C0190009818B90198BC
:103CC000B0F5A06FF1D12948006800F4003010B1C0
:103CD0000120009001E0002000900098012843D1CD
:103CE0002348006840F01000214908600846006839
:103CF00020F0030008600846006840F002000860F9
:103D00001A484068194948600846406848600846B3
:103D1000406840F4806048600846406820F47C10A9
:103D200048600846406840F4E8104860084600686B
:103D300040F08070086000BF0C48006800F0007020
:103D40000028F9D00948406820F00300074948607E
:103D50000846406840F00200486000BF03484068E1
:103D600000F00C000828F9D10CBD00000010024042
:103D700000200240042808D14FF0E021096941F0F9
:103D800004014FF0E022116107E04FF0E0210969E2
:103D900021F004014FF0E0221161704770470000EC
:103DA00010B51348006840F001001149086008464A
:103DB0004068104908400E494860084600680E49AE
:103DC00008400B4908600846006820F4802008601D
:103DD0000846406820F4FE0048604FF41F008860E9
:103DE000FFF754FF4FF000600449086010BD000069
:103DF000001002400000FFF8FFFFF6FE08ED00E0B3
:103E000010B56FF00400FFF7B5FF0A4800680A49D3
:103E1000B0FBF1F0094908800846008800EB40013A
:103E2000C1EBC0104FF6FF7101EAC00004490880E1
:103E300010BD00000000002000127A004A0000209F
:103E40004C00002010B50121002000F0B0F8032044
:103E5000FDF75CFC0321002000F0A9F8F621012009
:103E600000F0A5F802210F2000F0A1F810BD3EB52A
:103E7000044602A9132000F02DF800B93EBD9DF8BC
:103E8000080000F0010000B9F8E708226946142094
:103E900000F04EF800B9F1E79DF800009DF8011020
:103EA00040EA012020809DF802009DF8031040EABE
:103EB000012060809DF804009DF8051040EA012073
:103EC000A0809DF806009DF8071040EA0120E080E0
:103ED00000BFD3E770B504460D46FEF7D1FB522074
:103EE000FEF7A0FBFEF702FC18B1FEF7E5FB002091
:103EF00070BD44F08000FEF795FBFEF7F7FB18B1AC
:103F0000FEF7DAFB0020F3E7FEF7BAFB5320FEF7DB
:103F100089FBFEF7EBFB18B1FEF7CEFB0020E7E7CD
:103F20000020FEF74DFB2870FEF7C6FB0120DFE7FF
:103F30002DE9F04107460D461646FEF7A1FB52203B
:103F4000FEF770FBFEF7D2FB20B1FEF7B5FB0020B9
:103F5000BDE8F08147F0A000FEF764FBFEF7C6FB6A
:103F600018B1FEF7A9FB0020F2E7FEF789FB53200A
:103F7000FEF758FBFEF7BAFB18B1FEF79DFB0020D9
:103F8000E6E700240DE0701EA04204D10020FEF7F9
:103F900017FB285503E00120FEF712FB2855601C93
:103FA000C4B2B442EFDBFEF787FB0120D0E770B567
:103FB00004460D46FEF764FB5220FEF733FBFEF786
:103FC00095FB18B1FEF778FB002070BD44F080002F
:103FD000FEF728FBFEF78AFB18B1FEF76DFB002009
:103FE000F3E72846FEF71EFBFEF780FB18B1FEF74D
:103FF00063FB0020E9E7FEF75FFB0120E5E721B165
:10400000028842F00102028004E002884FF6FE734B
:104010001A4002807047000070B50024002200237F
:10402000058C4FF6FE7635400584028C8388048B20
:104030004FF68F752C40B51E2C400D882C43751EF5
:104040002A400D892A434D882A43144DA8420BD09B
:10405000134DA84208D0134DA84205D0124DA842D6
:1040600002D0124DA84213D14FF6F7752A404D8960
:104070002A434FF6FB752A408D882A434FF6FF6589
:104080002B404FF6FF552B408D892B43CD892B4379
:1040900083800483CD888586028470BD002C014016
:1040A000003401400040014000440140004801400C
:1040B0000A460021018B4FF6F77319401143018323
:1040C0007047000070B5002400220023058C4FF6D5
:1040D000FF6635400584028C8388848B4FF68F758C
:1040E0002C404FF6FC752C400D882C434FF6FF55A5
:1040F0002A400D894FF6FF7606EA05252A434D88AA
:1041000006EA05252A43154DA84202D0144DA842BF
:104110001DD14FF2FF752A404D894FF6FF7606EA12
:1041200005252A434FF6FF352A408D8806EA0525E6
:104130002A434EF6FF752B404DF6FF752B408D89B7
:1041400006EA05152B43CD8906EA05152B43838026
:104150008483CD888587028470BD0000002C0140D7
:10416000003401400A460021818B4FF6F773194055
:10417000114381837047000070B5002200230024A2
:10418000058C4EF6FF7635400584038C8488828B3F
:1041900048F6FF752A404FF6FF452A400D884FF636
:1041A000FF7606EA05252A434DF6FF752B400D895B
:1041B00006EA05352B434D8806EA05352B430B4DA2
:1041C000A84202D00A4DA84208D14BF6FF752C40F8
:1041D0008D894FF6FF7606EA85152C43848082830D
:1041E000CD88A0F84050038470BD0000002C014031
:1041F000003401400A460021818B4FF2FF731940C1
:104200004FF6FF7303EA02231943818370470021AD
:10421000018041808180C180018141818181C18192
:1042200070478186704781877047A0F840107047BB
:10423000002202881D4B98420ED01D4B98420BD095
:10424000B0F1804F08D01B4B984205D01A4B9842D2
:1042500002D01A4B984204D14FF68F731A404B8804
:104260001A43174B984207D0164B984204D04FF68A
:10427000FF431A40CB881A4302808B8883850B88C2
:1042800003850A4B98420BD0094B984208D00E4B3D
:10429000984205D00D4B984202D00D4B984201D167
:1042A0000B7A03860123838270470000002C0140B3
:1042B000003401400004004000080040000C0040B1
:1042C0000010004000140040004001400044014044
:1042D000004801400848018808480088814204DB02
:1042E00006480088081A80B2704704480088C0F168
:1042F0008000084480B2F7E74E0000205000002004
:1043000010B540F225510F4800F0EBF9C0B10D484F
:1043100000F0A2FAC4B20C480C49098844540B4975
:104320000988481CC11700EB5161C911A0EBC111EC
:10433000064A118040F22551024800F0A1F900BF61
:1043400010BD0000003801400C0100204E0000208C
:1043500010B586B00446012144F20400FFF70AFCC0
:104360004FF40070ADF8140018208DF817000320EA
:104370008DF8160005A91D48FDF7EDFC4FF480608F
:10438000ADF8140048208DF8170005A91748FDF76F
:10439000E2FC01940020ADF810000C20ADF80E00F6
:1043A0000020ADF80C00ADF80A00ADF8080001A936
:1043B0000F4800F0E5F925208DF8000001208DF868
:1043C000010000208DF8020001208DF803006846EE
:1043D000FEF728FF012240F22551054800F0ABF915
:1043E0000121034800F05BF906B010BD0008014050
:1043F0000038014000210B4800880B4A1288904287
:104400000ED00A48074A1288815C064A1288501C5E
:10441000C21700EB5262D211A0EBC212014B1A80FC
:1044200008467047500000204E0000200C0100207C
:1044300070B504460D4603E014F8010B00F006F8D1
:10444000281EA5F101018DB2F6D170BD10B504464C
:1044500000BF8021044800F037F90028F9D0214638
:10446000014800F0FEF910BD0038014010B50C48BD
:10447000FDF728F9C0F5807084B20A4804800A4824
:104480000088844204DB08480088201A80B210BDEE
:1044900005480088C0F58070204480B2F7E700002E
:1044A0006C000240520000205400002008B540F289
:1044B00024410A4800F015F978B1084800880090B6
:1044C0000648001D0088009000BF0548FDF7FAF877
:1044D000C0F580700349088000BF08BD004400405B
:1044E0006C0002405200002010B592B00446012139
:1044F0004804FFF72FFB01210420FFF73BFB0121BC
:104500000846FFF717FB18208DF847000420ADF888
:10451000440003208DF8460011A92F48FDF71BFC2D
:1045200048208DF847000820ADF8440011A92A481A
:10453000FDF711FC0D940020ADF840000C20ADF803
:104540003E000020ADF83C00ADF83A00ADF8380070
:104550000DA9224800F014F92148FDF70DF81F4875
:10456000001D02901F480390002004904FF48070BB
:104570000590002006908020079000200890099068
:1045800020200A9000020B9000200C9002A91448F1
:10459000FDF79CF801211248FCF7E2FF01224021BF
:1045A0000E4800F088F826208DF8040001208DF8D0
:1045B00005008DF806008DF8070001A8FEF732FE11
:1045C000012240F22441054800F0B5F801210348DA
:1045D00000F065F812B010BD000801400044004032
:1045E0006C0002408C01002070B500240D48FDF7DE
:1045F00069F8C0F5807085B20B480088A8420ED0DB
:104600000A4809490988445C07490988481CC117B8
:1046100000EB11610912A0EB0121034A1180204631
:1046200070BD00006C000240540000208C0100208E
:1046300070B504460D4603E014F8010B00F006F8CF
:10464000281EA5F101018DB2F6D170BD10B504464A
:1046500000BF8021044800F037F80028F9D0214637
:10466000014800F0FEF810BD0044004070B505465A
:104670000C462846FFF76CFE2046FFF735FF70BD5D
:1046800010B50022002340F66A14A14200D100BFF9
:104690000A1201249440A3B2DC43048010BD21B16E
:1046A000828942F40052828104E082894DF6FF73D0
:1046B0001A40828170471AB1838A0B43838202E0D9
:1046C000838A8B438382704702460020B1F5007FC6
:1046D00000D100BF13880B400BB1012000E0002087
:1046E000704770B50246002400230025002040F6E4
:1046F0006A16B14200D100BFC1F3421501F01F0399
:10470000012606FA03F3012D02D19689334006E013
:10471000022D02D1168A334001E0968A33400C12F2
:10472000012606FA04F41688344013B10CB10120B6
:1047300000E0002070BDF0B50346002400260025EF
:10474000002040F66A17B94200D100BF1846C1F3F5
:10475000421401F01F06012707FA06F5012C01D1CA
:104760000C3004E0022C01D1103000E014301AB1FA
:1047700007682F43076002E00768AF430760F0BD9A
:104780002DE9F04786B005460E460024A24600BF3C
:10479000A1460027B08900B100BF2F462C8A4CF6F5
:1047A000FF700440F08804432C82AC894EF6F3106D
:1047B0000440B08831890843718908430443AC81BF
:1047C000AC8A4FF6FF400440B0890443AC8201A894
:1047D000FFF7E0F91F48874202D1DDF810A001E0A1
:1047E000DDF80CA0A88900F4004040B10AEBCA0033
:1047F00000EB0A1031684900B0FBF1F807E00AEB62
:10480000CA0000EB0A1031688900B0FBF1F864209F
:10481000B8FBF0F004012009642101FB1089A8898C
:1048200000F4004040B1322000EBC900B0FBF1F0D1
:1048300000F00700044308E0322000EB0910642177
:10484000B0FBF1F000F00F0004432C8106B0BDE88E
:10485000F08700000038014001468888C0F3080056
:104860007047C1F308028280704700BFFEE7410035
:10487000080218BF04200A0E18BF40F001004FF0D4
:104880007F4232EA010108BF40F00200012808BF60
:1048900005207047012100F0B8BE00F0DFBA00210A
:1048A000084600F04FBB6FF05E01080700F0ADBE98
:1048B00030380A2801D201207047002070470000DC
:1048C0002DE9F04104464FF00E4000EB4400B0F1FA
:1048D000506F204655D84FF0FC41B1EB440F1CD22D
:1048E00024F000404FF07E5100F056FD4FF0FF31B4
:1048F00000F08BFE054600F09BFA14F0004F1DBF40
:104900002F4F304E80F000402F4F08BF2F4E4FF0FA
:10491000404100F075FC044605E000273E46014694
:1049200000F06EFC05462A49284600F069FC29493A
:1049300000F094FA294600F063FC274900F08EFA53
:10494000294600F05DFC254900F088FA294600F070
:1049500057FC234900F082FA80462946204600F0A1
:104960004FFC414600F04CFC05463146204600F025
:1049700075FA294600F072FA3946BDE8F04100F0B8
:104980006DBA4FF0E441B1EB440F08D9FFF76FFF68
:10499000042808BFFFF787FF2046BDE8F0814FF0ED
:1049A0007F41B1EB440F03D2BDE8F041FFF772BF86
:1049B0000120FBF797FEBDE8F041FFF770BF000054
:1049C0000000C9BF22AAFDB90000C93F22AAFD39D3
:1049D00024FE1C3DC78AD83C1E67383D1B93993D79
:1049E000AFAA2A3E2DE9F0474FF0684202EB4003A0
:1049F0000C460546B3F1654F3CBF02EB4102B2F1F4
:104A0000654F7CD2C0F3C753C1F3C7529A1A1B2A11
:104A100006DD10F0004F14BF76487748BDE8F087F8
:104A200012F11A0F17DA11F0004F06D010F0004FF4
:104A30000CBF72487248BDE8F0872146284600F056
:104A400081FA0446FFF713FF042808BFFFF72BFF86
:104A50002046BDE8F0874200B2EB410F25D910F0A7
:104A6000004F19BF674F684E684F694E224685F068
:104A7000004415460A4680F0004110460A1A5200CA
:104A8000B2F1807F40D248406249DFF88CA110F03B
:104A9000004F18D04FF03F48384600F00FFD074652
:104AA0005146304600F00AFD17E011F0004F04BFF8
:104AB00000263746E2D010F0004F19BF574F584E2E
:104AC000584F594EDAE74FF07C58384600F0C6F997
:104AD00007465146304600F0C1F906464146284691
:104AE00000F08EFB214600F0B9F98246214640468F
:104AF00000F086FB294600F04FFC514600E037E00D
:104B000000F020FA044604E02146284600F01AFA94
:104B10000446014600F074FB8046444900F070FBF7
:104B2000434900F09BF9414600F06AFB414900F01F
:104B300095F9414600F064FB3F4900F08FF941468A
:104B400000F05EFB3D4900F089F9054641462046EC
:104B500000F056FB294600F053FB314600F07EF989
:104B6000214600F07BF93946BDE8F04700F076B900
:104B70004FF07F42B2EB400F28BFB2EB410F03D2A0
:104B8000BDE8F047FFF789BE40EA01035B0008BFBC
:104B900044F0FF410AD0B2EB400F08BFB2EB410F27
:104BA00006D125F0804024F0804105460C4629E7D7
:104BB000B2EB400F12BF5FEA410245F0FF4004F044
:104BC00000413FF41FAF4A0092EA40033FF51AAF9D
:104BD000002AACBF4FF09F464FF03E56314600F0E2
:104BE0000FFB05463146204600F00AFB04462846E6
:104BF000214607E7DB0FC9BFDB0FC93FDB0F494089
:104C0000DB0F49C00000C9BF22AAFDB90000C93F9F
:104C100022AAFD390060ED3EC30ACE37000049C02C
:104C200022AA7DBA0000494022AA7D3A2DAD65BD79
:104C30008FB8D53D0FB511BE61C84C3EA8AAAABE1B
:104C4000FFF7DEF84FF4E1310846FFF70FFD4FF4B0
:104C50007A70FCF75BFDFEF7AFFBFEF71BFB36A29D
:104C600001210846FEF789FC37A201210220FEF748
:104C700084FC39A201210320FEF77FFCFCF77CFEB7
:104C8000012834D1FEF706FB37A201210846FEF7C2
:104C900074FC39A201210220FEF76FFC3AA2012127
:104CA0000320FEF76AFC3CA201210420FEF765FC0C
:104CB0004FF47A70FCF72AFDFEF7ECFA3AA20121D4
:104CC0000846FEF75AFC3AA201210220FEF755FCE5
:104CD0003AA201210320FEF750FC39A2042103204F
:104CE000FEF74BFC1B213AA0FFF7A2FC15E0FEF7F4
:104CF000D1FA3EA201210846FEF73FFC3FA2012166
:104D00000220FEF73AFC42A201210320FEF735FC07
:104D100043A201210420FEF730FCFBF79BFE0AE0D2
:104D2000FEF772FEFEF7E2FDFCF7EAFBFCF74CF83B
:104D30000220FCF7EBFCF3E74553503832363620BF
:104D4000426F6F742E2E2E00436F6E6E6563746912
:104D50006E67205769466900506C6561736520571E
:104D60006169742E2E2E20005769466920436F6EAC
:104D70006E656374656421005443502053657276F8
:104D80006572204F4B000000506173732D546872A0
:104D9000752052656164790057616974696E672096
:104DA000446174612E2E2E005749464900000000D0
:104DB0005265646D69204B373000000049503A005D
:104DC00031302E31392E35302E3130310000000097
:104DD00048656C6C6F20536572766572212049209E
:104DE000616D2053544D33322E0D0A00455350202F
:104DF000436F6E666967204641494C00312E436817
:104E000065636B2041542B43574A4150000000001A
:104E1000322E436865636B20544350204950000094
:104E2000332E526573657420426F61726400000016
:104E300070B5054600F0BAFA044620F00040C0F113
:104E4000FF40C00F08D025F00040C0F1FF40C00F68
:104E500004BF0120FBF746FC204670BD90EA010F1D
:104E600048BF81F0004100F13083421A3CBF801AF4
:104E700089184FEAD0524FF07F4C1CEA410FA2EB49
:104E8000D15318BF9CEA026F00F03B804FF0004CFA
:104E90004CEA00204CEA012121FA03FC10EB0C0C37
:104EA0001ED202F1FF325FEA1C2040EBC25038BF35
:104EB00070471CF07F0F4FEA400C18BFBCF17F4FCA
:104EC00038BF7047C3F12003994008BF20F00100AC
:104ED000BCF17F4F38BF7047A0F1C04000F057BA17
:104EE0004FEA3C00000A40EBC25028BF1CF0FF0F05
:104EF0004FEA400CE6D018BFBCF17F4F38BF704777
:104F0000EAE79CEA026F05D010EA5C0F08BF00F0E8
:104F10000040704710B500F0F4F900BF64FBBE3EDE
:104F2000014800F040BB00BF0000C07F401058BFE8
:104F3000C0F14040491058BFC1F140418142EFF3F8
:104F4000008070474FF47F0C1CEAD0121EBF1CEA91
:104F5000D11392EA0C0F93EA0C0F00F0858090EACF
:104F6000010F48BF42F4807240F4000C41F400008D
:104F70002CF07F4120F07F4000B58142A2EB03027C
:104F80000FF2081CACEB504EC0F100009EF800E0A0
:104F90004FEA4E0E00FB0EFC38BF49004FEA2C1CB6
:104FA00002F5FA020CFB0EF34FEACE1E4FEA112C6B
:104FB0004FEAC1210EEB635E42EB22420EFB0CFC7A
:104FC0004FEA1C5300FB03114FEA112C4FEA013149
:104FD0000EFB0CFC4FEADC4C00FB0C11C14228BF5D
:104FE00009184CEB03335DF804EB10EB410143EB84
:104FF000C250B2F57C0F38BF704729D512F0F00FC0
:105000001CBF00F1C04000F0004070470081828367
:105010008485868788898B8C8D8E8F9192939596C7
:1050200097999A9C9D9FA0A2A3A5A7A8AAACAEB051
:10503000B2B3B5B7B9BCBEC0C2C5C7C9CCCED1D456
:10504000D7D9DCDFE2E6E9ECF0F3F7FAFE00000086
:105050004FEA400C0CF1807CBCF17E4F28BF7047BA
:10506000B0F1C04000F093B990EA010F0CEAD113FF
:1050700048BF42F48072624538BF634507D213F4DB
:105080007F0F16D080EA010000F00040704710B595
:1050900000F037F9097EFC3E00F005B880EA010017
:1050A00000F00040704780EA010000F0004000F08E
:1050B0006EB912F47F0F04BF0248704780EA010006
:1050C00000F065B90000C07F50EA010C00F11380C8
:1050D0001CF5000F58BFBCF5000F01D48842704783
:1050E00007D710F5000F58BF11F5000F15D48842EF
:1050F0007047894270471CF5000F04D5BCF5000FBE
:10510000F7D5814270474FF0807C1CEB400F38BFD1
:105110001CEB410F01D28142704710B500F0F1F84D
:10512000922449004FF000504FF08051FFF7FEBE2F
:1051300041000B0ED3F19E0208D950F400034FEA50
:10514000032323FA02F048BF4042704710B500F035
:10515000D8F800BF49922480002070476FF00042C9
:1051600082EA200070470000C10DD1F19E0206DBEB
:105170004FEA002343F0004323FA02F07047004255
:1051800007D54FEA4001B1F1FE4F02D24FF00000C7
:10519000704710B500F0B5F84992248000207047A0
:1051A0006FEA20007047000010F0004148BF404205
:1051B000B0FA80F310FA03F2C3F19D030BD051EA69
:1051C000C35101EB1220530638BF704700F10100B4
:1051D00008BF20F001007047B0FA80F310FA03F224
:1051E000C3F19D030AD0D90501EB1220530638BF45
:1051F000704700F1010008BF20F001007047000077
:105200004FF47F0C1CEAD0121EBF1CEAD11392EAA5
:105210000C0F93EA0C0F00F0478090EA010F48BF93
:1052200042F480724FF0004C4CEA00204CEA01211D
:1052300002EB0302A0FB0113A2F50002002918BF34
:1052400043F001035B0028BF4FEA330342EB2242E5
:105250005FEA132C4CEBC2502EBFBCEB436FB2F590
:105260007C0F70474FEA036CBCF1004F08BF20F081
:105270000100B2F57C0F38BF70470BD582F0FF02FA
:1052800012F5803FC8BF704700F1C040D8BF00F0A2
:105290000040704700F5000C5FEA4C0C48BF7047B7
:1052A000B0F1C04000F073B890EA010F0CEAD113DE
:1052B00048BF42F48072624538BF634504D280EA39
:1052C000010000F00040704710B500F01AF800BF70
:1052D0008900013E00F007B800F009B85FEA410C10
:1052E0005FEA1C6C08D080EA010000F050B85FEA69
:1052F000400C5FEA1C6CF6D14FF00040A0F5800036
:1053000070470EF1020E2EF0030E5EF8044B24429D
:1053100004D44FEA4102B2F17F4F11D84FEA400363
:10532000B3F17F4F0CD80ED14FEAD07CB2F17F4F52
:105330000CEB4C0C0CF1020C08BF4CEBD17C04E0E4
:105340004FF0080C01E04FEAD17C0CEB4C0324FA3F
:1053500003F404F00704B4F1040C06D20EEB840C41
:10536000BDE810404CF0010C6047DFE80CF0070886
:1053700002024FF00040A0F5800010BD0846420038
:1053800018BFD2F1807288BF00F0004010BDFF212D
:1053900041EAD050C005704780F0004090EA010F0C
:1053A0007FF563AD81F0004100F08FB84FEAD05136
:1053B000002988BFD1F1FF0240F2758001F17D0123
:1053C0004FEA002070B5490840F0004038BF40085F
:1053D0000EA2430E040CD25C02FB02F304FB03F3A7
:1053E000C3F14043A3FB0254ED0D45EA442202FB06
:1053F00002F3A0FB03546D42C4F1404438BF641E65
:10540000A2FB05350023E2FB0453EA0B42EA4342C8
:10541000A0FB023212F14004A2F12103E40903F0DF
:105420007F031F2B32D904EBC15070BDFEFAF7F396
:10543000F0ECE9E6E4E1DEDCD9D7D4D2D0CECCCAB8
:10544000C8C6C4C2C1BFBDBCBAB9B7B6B4B3B2B0A6
:10545000AFAEACABAAA9A8A7A6A4A3A2A1A09F9EE9
:105460009E9D9C9B9A9998979796959493939291C9
:1054700090908F8E8E8D8C8C8B8A8A898988878775
:1054800086868584848383828281818004FB04F6FE
:10549000B6EB004603D5E64248BF641CC3E7A6420C
:1054A00058BF641CBFE711F0FF0F02D100F00040AD
:1054B000704710B5FFF725FF7FDBFFBE90EA010FB5
:1054C00048BF81F000413FF5D0AC421A04D882F0C9
:1054D0000042A0EB020011444FEAD0524FF07F4C43
:1054E0001CEA410FA2EBD15318BF9CEA026F4AD0CD
:1054F0004FF0004C4CEA00204CEA012121FA03FC59
:10550000B0EB0C0C0FD412F0FE0F36D05FEA4C005B
:105510001DD5001240EBC25038BF70471CF03F0F42
:1055200018BF70470BE0A2F101025FEA1C2040EBBC
:10553000C25038BF70471CF07F0F18BF7047C3F1CF
:105540002003994014BF401E20F0010070478008DE
:105550004FEA122308BF7047B0FA80FCA2EB0C029E
:10556000CCF1280C60FA0CF093EA122F04BF00EB88
:10557000C25070474FEAC3707047130A5FEADC10ED
:1055800008BF7047F6E79CEA026F04D010EA5C0F90
:1055900008BF0020704710B5FFF7B3FE40DFF63EAE
:1055A00081F0004070470CF00F03092B08BF082062
:1055B00000F051800A2B0BD0082B18BF704708BF92
:1055C0001CF0400F0AD04FF000004FF00001704770
:1055D0001CF0400F18BF4FF0004070471CF0100F38
:1055E00008D020F0704300F07F4242EAD3014FEA36
:1055F0004370704700F0604021F07F4242EA0002B1
:1056000001F07F4040EA727070474FF0FF0212EAEB
:10561000D0521CBF92F0FF038B42C2BFD14200EBBD
:10562000C1507047002A0AD0002B0BD0002900F08F
:105630000040A4BF40F0FE4040F40000704700F07E
:105640000040704743024FF00B0C18BF4CF0806CC9
:105650007FF466AC70471CF4801F11D01CF4E02F5F
:1056600003D06FEACC31490070474FF04050EFF360
:10567000008222F0704242EA000282F30088704702
:105680004FF0000070470000000000000000000024
:10569000000000000000000000F800000000000012
:1056A00000333000000000100C06100C0600000053
:1056B00000000000000040C07840C0784000043F77
:1056C00004043F040400007088FC08300000001847
:1056D00020FF211E0000F008F000E018000000216B
:1056E0001C031E211E0000F00888700000001E210F
:1056F00023241927211010160E00000000000000BE
:10570000000000000000000000E01804020000009B
:1057100000071820400000020418E00000000040CC
:10572000201807000000404080F080404000020246
:10573000010F01020200000000F000000000010162
:10574000011F01010100000000000000000080B006
:1057500070000000000000000000000000000001D8
:105760000101010101010000000000000000003003
:10577000300000000000000000008060180400609D
:1057800018060100000000E010080810E000000FFB
:10579000102020100F00001010F800000000002062
:1057A000203F2020000000700808088870000030AA
:1057B0002824222130000030088888483000001852
:1057C000202020110E000000C02010F8000000076B
:1057D0000424243F240000F80888880808000019E1
:1057E000212020110E0000E0108888180000000F12
:1057F000112020110E0000380808C83808000000E9
:10580000003F000000000070880808887000001C3D
:10581000222121221C0000E010080810E0000000F6
:10582000312222110F00000000C0C0000000000063
:105830000030300000000000008000000000000088
:10584000806000000000000080402010080000017F
:105850000204081020004040404040404000040442
:10586000040404040400000810204080000000200C
:10587000100804020100007048080808F000000049
:10588000003036010000C030C828E810E0000718DA
:10589000272423140B000000C038E0000000203C47
:1058A00023020227382008F8888888700000203FEB
:1058B000202020110E00C030080808083800071802
:1058C00020202010080008F808080810E000203FF9
:1058D000202020100F0008F88888E8081000203FDA
:1058E00020202320180008F88888E8081000203FAE
:1058F000200003000000C030080808380000071826
:105900002020221E020008F808000008F808203FA6
:10591000210101213F20000808F8080800000020AC
:10592000203F2020000000000808F8080800C08080
:1059300080807F00000008F888C028180800203FF9
:1059400020012638200008F8080000000000203F51
:1059500020202020300008F8F800F8F80800203F48
:10596000003F003F200008F830C00008F808203F42
:10597000200007183F00E01008080810E0000F1092
:10598000202020100F0008F808080808F000203F29
:10599000210101010000E01008080810E0000F18C4
:1059A000242438504F0008F8888888887000203FE9
:1059B0002000030C302000708808080838000038E8
:1059C000202121221C00180808F8080818000000EF
:1059D000203F2000000008F808000008F808001F19
:1059E000202020201F000878880000C83808000008
:1059F00007380E010000F80800F80008F800033C22
:105A00000700073C030008186880806818082030E9
:105A10002C03032C30200838C800C83808000000C8
:105A2000203F2000000010080808C838080020386F
:105A3000262120201800000000FE020202000000C3
:105A4000007F40404000000C30C00000000000001B
:105A500000010638C00000020202FE000000004003
:105A600040407F0000000000040202020400000029
:105A70000000000000000000000000000000808026
:105A8000808080808080000202040000000000000E
:105A900000000000000000008080808000000019ED
:105AA000242222223F2008F8008080000000003FCE
:105AB000112020110E000000008080800000000EE8
:105AC000112020201100000000808088F800000EC6
:105AD000112020103F200000808080800000001FE7
