:020000040800F2
:10000000080C0020DD010008D9390008C32C0008C5
:100010000D390008D51A00084B50000800000000F8
:100020000000000000000000000000003144000853
:10003000251D000800000000A540000865450008D7
:10004000F7010008F7010008F7010008F7010008B0
:10005000F7010008F7010008F7010008F7010008A0
:10006000F7010008F7010008F7010008F701000890
:10007000F7010008F7010008F7010008F701000880
:10008000F7010008F7010008F7010008F701000870
:10009000F7010008F7010008F7010008F701000860
:1000A000F7010008F7010008F7010008F701000850
:1000B000F7010008F7010008F7010008F701000840
:1000C000F7010008F7010008F7010008F701000830
:1000D000F7010008E14A00088D4C0008F70100080C
:1000E000F7010008F7010008F7010008F701000810
:1000F000F7010008F7010008F7010008F701000800
:10010000F7010008F7010008F7010008F7010008EF
:10011000F7010008F7010008F7010008F7010008DF
:10012000F7010008F7010008F7010008F7010008CF
:1001300000F002F800F042F80AA090E8000C8244B7
:100140008344AAF10107DA4501D100F037F8AFF294
:10015000090EBAE80F0013F0010F18BFFB1A43F0A5
:10016000010318476465000084650000103A24BF4D
:1001700078C878C1FAD8520724BF30C830C144BF0C
:1001800004680C607047000000230024002500264E
:10019000103A28BF78C1FBD8520728BF30C148BFEA
:1001A0000B607047642900F0C180732900F0E5837B
:1001B000002070471FB51FBD10B510BD00F0EAFB51
:1001C0001146FFF7F7FF05F04FF900F008FC03B404
:1001D000FFF7F2FF03BC00F00BFC0000094880476A
:1001E00009480047FEE7FEE7FEE7FEE7FEE7FEE719
:1001F000FEE7FEE7FEE7FEE704480549054A064B31
:100200007047000069450008310100080806002019
:10021000080C0020080800200808002010B54C1029
:1002200084EA530404D54042C1F1000138BF491E9D
:100230001B4204D55242C3F1000338BF5B1E00F0DD
:1002400092FA14F0804F04D04042C1F1000138BF4F
:10025000491E14F0004F04D05242C3F1000338BFCE
:100260005B1E10BD0FB41CB5074B06AA7B44694644
:100270000090059800F057FB0020694600F066FBEF
:100280001CBC5DF814FB0000DD06000070B50446E0
:1002900085690068C10601D5302600E02026C00728
:1002A00007D070BDD4E9012130469047206A401C38
:1002B00020626D1EF6D570BD70B504468569007864
:1002C000C00707D170BDD4E9012120209047206AE2
:1002D000401C20626D1EF6D570BD70B50C460546FB
:1002E000012A05D02878800600D5EA69002302E0BB
:1002F000012305E05B1C934202D2E05C0028F9D1A7
:10030000A869E618C01AA861286A18442862284615
:10031000FFF7BCFF04E0D5E9012114F8010B904779
:10032000B442F8D32846FFF7C7FF70BD2DE9F0416E
:100330000646002410687529314616A510D0AFF383
:100340000080002802DA404213A507E031688A07DE
:1003500001D512A502E0490704D511A5012401E049
:10036000AFF3008000210A2206F1240709E0B0FB68
:10037000F2FCB0FBF2F302FB1C003030785418465C
:10038000491C0028F3D123462A463046BDE8F041F7
:1003900000F06BBA000000002D0000002B000000F0
:1003A000200000002DE9F0474FF0000A894604467E
:1003B000C0F820A02046E1688847002876D025288C
:1003C00006D0D4E901219047206A401C2062F1E761
:1003D000E168204600268847C4F81CA0054600278F
:1003E000C4F818A02A2D09D0284604F051FE38B3CD
:1003F00004EB8708303DC8F8185019E059F8041B81
:10040000204604EB87029161E1688847012F054689
:1004100018D1E069002820DA26F020061DE0D8F87F
:10042000180000EB800005EB40003038C8F81800D9
:100430002046E1688847054604F02AFE0028EED1F0
:10044000012F0AD02E2D08D12046E16888477F1C55
:100450000546022F46F02006C4DBA069002803DA17
:10046000404246F00106A061F00701D026F01006D8
:100470006C2D0AD0682D08D04C2D39D06A2D35D07E
:10048000742D35D07A2D33D016E0E1682F46204602
:100490008847B84205460AD16C2F27D04FF48060B8
:1004A000E168064320468847054605E027E06C2FB3
:1004B0001AD04FF4807006430DB3A5F141001928FE
:1004C00002D8203546F400664A4629462046266072
:1004D0004E46FFF767FE80B101280BD0F61D26F0CF
:1004E000070000F1080965E74020E4E78020D7E72E
:1004F0000020D5E706F104095CE7284661E7206A99
:10050000BDE8F08730B505460B462A4613F8014B87
:1005100012F8010B08B1A042F8D01CB1002802D09B
:100520006D1CF1E7284630BD10B5431C02E010F801
:10053000011B71B18107FAD14FF0013202C88C1A48
:100540008C4314EAC211F9D0C01A0A0603D0C01EA7
:1005500010BDC01A10BD0A0401D0801E10BD0902D2
:10056000FCD0401E10BD032A40F2308010F0030C76
:1005700000F0158011F8013BBCF1020F624498BFF6
:1005800011F801CB00F8013B38BF11F8013BA2F193
:10059000040298BF00F801CB38BF00F8013B11F00E
:1005A000030300F02580083AC0F0088051F8043BAE
:1005B000083A51F804CBA0E80810F5E7121D5CBF1B
:1005C00051F8043B40F8043BAFF30080D20724BF4E
:1005D00011F8013B11F801CB48BF11F8012B24BFE2
:1005E00000F8013B00F801CB48BF00F8012B704731
:1005F00010B5203AC0F00B80B1E81850203AA0E8BE
:100600001850B1E81850A0E81850BFF4F5AF5FEAF1
:10061000027C24BFB1E81850A0E8185044BF18C9A4
:1006200018C0BDE810405FEA827C24BF51F8043B4B
:1006300040F8043B08BF7047D20728BF31F8023B9F
:1006400048BF11F8012B28BF20F8023B48BF00F833
:10065000012B7047431A28BF9A427FF6C9AF104456
:1006600010F0030F11441EBF11F8013D521E00F897
:10067000013D10F0030F7FF4F6AF103AC0F00A808E
:1006800010B531E91850103A20E91850BFF4F9AF0D
:10069000BDE81040530724BF31E9081020E90810D5
:1006A00044BF51F8043D40F8043D12F0030F08BF69
:1006B0007047D20728BF31F8023D48BF11F8012C1E
:1006C00028BF20F8023D48BF00F8012C70474FF0CA
:1006D00000020429C0F0128010F0030C00F01B800F
:1006E000CCF1040CBCF1020F18BF00F8012BA8BF1D
:1006F00020F8022BA1EB0C0100F00DB85FEAC17CE1
:1007000024BF00F8012B00F8012B48BF00F8012B93
:1007100070474FF0000200B51346944696462039C4
:1007200022BFA0E80C50A0E80C50B1F12001BFF4AA
:10073000F7AF090728BFA0E80C5048BF0CC05DF810
:1007400004EB890028BF40F8042B08BF704748BF5E
:1007500020F8022B11F0804F18BF00F8012B7047D2
:1007600070477047704753EA020C00F069802DE92A
:10077000F04B4FF00006002B1FBFB3FA83F503FACE
:1007800005F424FA05F65E4012BF1643B2FA82F56C
:1007900002FA05F4C5F120051EBF22FA05FC44EA61
:1007A0000C04203556EA044C4FEA144418BF641C6C
:1007B0004FF000084FF00009904271EB030C39D361
:1007C000002919BFB1FA81F701FA07F6B0FA80F7EC
:1007D00000FA07F6C7F120071EBF20FA07FC46EA19
:1007E0000C062037B6FBF4FCA7EB0507103F07F01B
:1007F0001F0BCBF120060CFA0BFB2CFA06F644BFBC
:10080000B3460026202FA4BF5E464FF0000B5BEAE4
:10081000060C08BF4FF0010B19EB0B09ABFB027C78
:1008200048EB0608C01B06FB02CC0BFB03CC71EBAC
:100830000C01C1E70B46024641464846BDE8F08B35
:1008400013B54FF000004FF00001AFF30080BDE89A
:100850001C40704710B500F095F8006810BD10B549
:10086000044600F08FF8046010BD2DE9F0470D46F6
:1008700099469246044600F124080168880604D58A
:10088000E06921F01001216000E00120A84201DDB3
:10089000471B00E00027A1697A1902EB0900081A3A
:1008A000A0612078C00602D42046FFF7EFFC0026A6
:1008B00008E0D4E901211AF806009047206A401C9C
:1008C000761C20624E45F4DB2078C0060AD520460F
:1008D000FFF7DCFC06E0D4E9012130209047206AD4
:1008E000401C2062381EA7F10107F4DC07E0D4E9C0
:1008F000012118F805009047206A401C2062281E3C
:10090000A5F10105F3DC2046FFF7D6FC20780006B0
:1009100002D50220BDE8F0870120FBE701694A1CEF
:1009200002610878704700B58FB0CDE90131002130
:10093000059105497944CDE9031011466846FFF752
:1009400031FD0FB000BD0000E5FFFFFF0A6802F8AF
:10095000010B0A60704710B5436913B1AFF3008013
:1009600001E0FFF7BAFC012010BD127800F124016C
:100970000A7000224A700122EDE711684FF0FF3241
:10098000E9E7000000487047A805002000487047CC
:10099000A80500207546FFF7F9FFAE460500694639
:1009A000534620F00700854618B020B5FFF724FC19
:1009B000BDE820404FF000064FF000074FF0000860
:1009C0004FF0000B21F00701AC46ACE8C009ACE8E1
:1009D000C009ACE8C009ACE8C0098D46704710B545
:1009E0000446AFF300802046BDE81040FFF7EFBBA0
:1009F00001491820ABBEFEE7260002007047000048
:100A000070B50446ECB10F4908680F4905F042F88B
:100A1000054604F0A3FF00B220800A4948680A494D
:100A200005F038F8054604F099FF00B260800549EA
:100A30008868054905F02EF8054604F08FFF00B2DE
:100A4000A08070BDAC0200200000C84270B501F06B
:100A5000B7F9044610490968601A04F0D3FF064646
:100A60000E4904F085FE05460B4804600021284627
:100A700004F0DCFF05D94FF07C51284605F0D6F88C
:100A800000D2074D074802F043FE18B92946054831
:100A900002F038FB70BD00003800002000247449CB
:100AA0000AD7A33C9C0200202DE9F04104460B49E3
:100AB000204604F05DFE8046094904F0EBFF07463E
:100AC000084904F0E1FD06464FF07C5104F0DCFDDE
:100AD000054604F05FFF80B2BDE8F08100003443BA
:100AE0000000FA440000FA430EB501200C490870DA
:100AF00000F016FA002000900190034602460146DD
:100B00000290012001F0A3FB002000900190034619
:100B1000024601460290022001F099FB0EBD000042
:100B2000500000200EB5A148007800B90EBDA048C5
:100B30000068401C9E4908600846006847F2305132
:100B4000884205D900209949087000F0E9F9EDE7DD
:100B500096480078012800D1E8E7944800780228F8
:100B60003ED100200121934A12686423CDE900217F
:100B70000290C8220146012001F069FB00200121FA
:100B8000CDE9000164234FF4FA720146029002207D
:100B900001F05DFB8848807D20F002008649887561
:100BA000084690F82D0020F00201834880F82D10AF
:100BB000807D00F0020090B17F4890F82D0000F099
:100BC000020060B10020794908707C4908707849BA
:100BD0000860012001F088FB022001F085FBA5E7F9
:100BE00072480078C01E07283ED2DFE800F00436C5
:100BF0001F051E37060000BF00BF6F4890F82D008C
:100C000000F0020030B96D48007840F002006B49F6
:100C1000087009E06948007800F0020020B16348DC
:100C20000078401C614908701FE000BF6248807D69
:100C300000F0020030B96148007840F001005F49DF
:100C4000087009E05D48007800F0010020B15748C5
:100C50000078401C5549087007E000BF53480078F1
:100C6000401C5249087000E000BF00BF4F480078A8
:100C700009280DDD7C200290012102A803F070FA02
:100C800000204A4908704D490870494908604DE7FD
:100C9000464800784A49097888427DD04348007820
:100CA00047490870002045490870414908603F489D
:100CB0000078C01E072874D2DFE800F00419453020
:100CC0001D585B0000203F4ACDE9002064234FF40B
:100CD000FA7201210290022001F0B9FA364890F828
:100CE0002D0020F00201344880F82D105AE06420D5
:100CF00000F00AF956E0002041F64812CDE9002044
:100D00006423322201460290012001F0A0FA2A4811
:100D1000807D20F002002849887543E000204FF4D0
:100D20007A52CDE900206423521101210290022061
:100D300001F08DFA204890F82D0020F002011E48A5
:100D400080F82D102EE0002041F64812CDE9002059
:100D50006423322201210290084601F078FA1648F5
:100D6000807D20F00200144988751BE000F0D8F85F
:100D700018E0002001214FF47A526423CDE90021CC
:100D800002905211022001F062FA0B4890F82D00F7
:100D900020F00201084801E005E002E080F82D1093
:100DA00000E000BF00BF00BFC0E600005000002010
:100DB000540000205C000020AC0000205100002006
:100DC00060000020007102000548007838B9032057
:100DD0000349087000200349087003490860704700
:100DE0005000002051000020540000202DE9F04F59
:100DF0008BB081468B46B9F1010F02DBB9F1080FC8
:100E000002DD0BB0BDE8F08F20222A4903A8FFF7CE
:100E1000EFFBA9F1010003A951F820502648D0F8B2
:100E20000D004FF4486180FB017001464FF48032A1
:100E300000233846FFF7F2F9029020480168029833
:100E40000C1A1F48844204DB94FBF0F100FB1144B0
:100E500008E0002C06DA1A4894FBF0F100FB114080
:100E600017494418A54202D10026B24615E0BBF14D
:100E7000000F09D0A54201DD2E1B02E01048001B27
:100E800046194FF0010A08E0A54201DA661B02E0AC
:100E90000B48401B06194FF0000A0020CDE9006006
:100EA0006423C82251460290012001F0D0F900BF0E
:100EB000A7E70000A05F0008AC0000205C00002055
:100EC000F727020010B588B00446012C01DB082C7E
:100ED00001DD08B010BD07480470202206496846AD
:100EE000FFF786FB601E5DF820000449086000BF24
:100EF000EFE7000058000020805F00085C00002041
:100F000010B502F04BFF10BD10B504460348047045
:100F10000146087802F08CFF10BD00004B00002055
:100F200010B5002002490870087802F081FF10BD5A
:100F30004B0000203748007880B93748007A36499E
:100F400008740846417A4174817A8174818981826A
:100F5000817B817501202F4908705AE02E48007A64
:100F6000C0EB001040002C49097CC1EBC10101EB32
:100F7000810100EB4100642190FBF1F026490874E7
:100F80000846407AC0EB001041002348407CC0EB8B
:100F9000C00000EB800001EB4000642190FBF1F009
:100FA000C1B21D484174807AC0EB001041001A485C
:100FB000807CC0EBC00000EB800001EB40006421AE
:100FC00090FBF1F0C1B2144881748089C0EB00102D
:100FD00041001148808AC0EBC00000EB800001EBAB
:100FE0004000642190FBF1F081B20B488182807B4C
:100FF000C0EB001041000848807DC0EBC00000EB52
:10100000800001EB4000642190FBF1F0C1B2024886
:101010008175704745000020DA00002010B502F00D
:1010200037F810BD10B500F073F8FFF7F7FF00F0C8
:1010300059F9FFF765FF00F041F900F05FFD01206D
:101040000349487088700871C870487110BD00006D
:101050002800002002460A2955D2DFE801F0540595
:101060000E172029323B444CC2EBC20000EB0210A9
:10107000264B1844B0F801007047C2EBC20000EBE9
:101080000210224B1844B0F90300F5E7C2EBC2008E
:1010900000EB02101D4B1844B0F80500ECE7C2EB62
:1010A000C20000EB0210194B1844D0F80700E3E728
:1010B000C2EBC20000EB0210144B1844B0F90B0055
:1010C000DAE7C2EBC20000EB0210104B1844D0F874
:1010D0000D00D1E7C2EBC20000EB02100B4B18442D
:1010E000D0F81100C8E7C2EBC20000EB0210074BBA
:1010F0001844407DC0E7C2EBC20000EB0210034B76
:101100001844807DB8E70020B6E70000AC0000205E
:1011100010B52E210548FFF7DAFA012003490870BF
:101120000220C875024802F0BFFF10BDAC000020CD
:101130005911000838B504468DF8004043208DF859
:1011400001007A208DF802006B208DF80300042145
:10115000684603F05DFD38BD70B50446FF25207874
:10116000012801D1002503E02078022800D10125C3
:10117000FF2D00D170BD6078432805D194F822205E
:10118000A11C284602F0E0FE00BFF3E71CB50648AC
:10119000411EA0F10F03CDE900109A8859881888E4
:1011A0000C3302F04EFB1CBDE900002011490988F8
:1011B000104A528811440F4A9288881800B90120B9
:1011C0000C49098864225143B1FBF0F1094A1172BC
:1011D0001146498864225143B1FBF0F1CAB2054976
:1011E0004A72898864225143B1FBF0F1CAB20149C5
:1011F0008A727047DA00002010B51648818A827D15
:10120000847CC388B3F5967F01DA002010BD642981
:1012100003DB1C2A01DC0320F8E732290DDB55290A
:101220000BDC282A03DD162C01DC0220EEE7282A3D
:1012300003DC162C01DD0120E8E741F2883083420F
:1012400001DD0320E2E7B3F5E16F01DA0220DDE71B
:101250000020DBE7DA00002010B5FFF7CDFF0446E1
:101260003CB90020124908701249088012490870E0
:1012700010BD0F48007884420CD10E480088142815
:1012800005DA0C480088401C0A49088007E00A4833
:10129000047004E0002007490880054804700548F0
:1012A0000088142802DB04480078E1E7FF20DFE72C
:1012B00046000020480000204A00002010B503F03E
:1012C000A5F910BD10B5064803F0B5F900F03CF8DB
:1012D000FFF76CFFFFF75AFFFFF72CFE10BD000071
:1012E0003C00002010B502F0B7FD00200649487010
:1012F00000210548C170012002F00AFE00210220F1
:1013000002F006FE10BD00004C00002070B505463E
:101310000C465DB90B484470C4702146012002F0B0
:10132000F7FD2146022002F0F3FD0AE0022D08DC61
:10133000681E044901EB400044702146284602F033
:10134000E7FD70BD4C00002010B51D4840881D49C8
:101350001D4A127821F81200194880881B491A4A40
:10136000127821F812001648C0881949164A1278D6
:1013700021F81200124801881648134A127820F802
:10138000121011480078401CC0B20F49087005289F
:1013900001DB002008700B4802F01DFA0E4908809E
:1013A0000A4802F018FA0C494880094802F013FA7A
:1013B00009498880074802F00EFA0749C88010BD25
:1013C0003C000020F200002044000020FC0000202F
:1013D0000601002010010020DA00002010B586B0C0
:1013E000FB480068401CFA490860084600680A216A
:1013F000B0FBF1F201FB120080B9FFF727FBFFF70A
:1014000061FFF4480078FFF795FEF2480078012864
:1014100001D1022000E00120EE490870EE4840783A
:10142000012828D104A8FFF7EBFA5A208DF808000C
:10143000BDF81000C0B28DF80900BDF81000000A18
:101440008DF80A00BDF81200C0B28DF80B00BDF88F
:101450001200000A8DF80C00BDF81400C0B28DF81F
:101460000D00BDF81400000A8DF80E00072102A837
:1014700002F076FE00BFD848807801281BD15B209F
:101480008DF800001722D5490DF10100FFF76BF828
:101490001821684602F064FE5B208DF800001722D8
:1014A000CE4917310DF10100FFF75DF818216846AC
:1014B00002F056FE00BFC848007901280CD1FFF7A2
:1014C000CBFE04465D208DF814008DF815400221F6
:1014D00005A802F045FE00BFBF48C078012813D11F
:1014E0005C208DF81000BE4840788DF81100BC4893
:1014F000C0788DF81200BB4800788DF813000521E4
:1015000004A802F02DFE00BFB34800780A287AD262
:10151000DFE800F079053B6B9AC7FEFCFBFAB2A24C
:101520000121084602F005FCB3A20121022002F0CD
:1015300000FCB249086804F011FA04B20323224601
:101540000421022002F0C2FBADA20121032002F01F
:10155000F0FBAA49486804F001FA04B203232246CA
:101560000421184602F0B2FBA6A20121042002F0D9
:10157000E0FBA249886804F0F1F904B20323224693
:101580000421084602F0A2FB47E29448D0F80D205F
:101590009DA102A8FEF766FE02AA0121084602F0FC
:1015A000C8FB8E48B0F90B209AA102A8FEF75AFE9C
:1015B00002AA0121022002F0BCFB8848426A98A1DD
:1015C00002A8FEF74FFE02AA0121032002F0B1FBA0
:1015D0008248B0F9222095A102A8FEF743FE02AA94
:1015E0000121042002F0A5FB17E29348428893A151
:1015F00002A8FEF737FE02AA0121084602F099FB75
:101600008D48828800E007E28FA102A8FEF72AFE3B
:1016100002AA0121022002F08CFB8748C2888DA11A
:1016200002A8FEF71FFE02AA0121032002F081FB9F
:10163000814802888AA102A8FEF714FE02AA0121AD
:10164000042002F076FBE8E18848028888A102A81D
:10165000FEF708FE02AA0121084602F06AFB834851
:10166000428886A102A8FEF7FDFD02AA0121022000
:1016700002F05FFB7D48828883A102A8FEF7F2FD9D
:1016800002AA0121032002F054FB7848C28881A1FC
:1016900002A8FEF7E7FD02AA0121042002F049FB9F
:1016A000BBE17248027A7EA102A8FEF7DBFD02AA26
:1016B0000121084602F03DFB6C48427A7CA102A859
:1016C000FEF7D0FD02AA0121022002F032FB67489A
:1016D000827A7BA102A8FEF7C5FD02AA01210320A0
:1016E00002F027FB614800886049498808445F4947
:1016F0008988421876A102A8FEF7B4FD02AA01214A
:10170000042002F016FB88E153E154E027E0FFE7F4
:101710005648828972A102A8FEF7A4FD02AA0121FF
:10172000084602F006FB5148827B71A102A8FEF731
:1017300099FD02AA0121022002F0FBFA4B48C27B6C
:101740006FA102A8FEF78EFD02AA0121032002F07C
:10175000F0FA6FA20121042002F0EBFA5DE14348A8
:10176000807C00904148437C027C6DA102A8FEF77A
:1017700079FD02AA0121084602F0DBFA3B48837D8D
:10178000828A6CA102A8FEF76DFD02AA0121022047
:1017900002F0CFFA3548C28869A102A8FEF762FDBF
:1017A00002AA0121032002F0C4FA69A20121042047
:1017B00002F0BFFA31E1FFF71FFD044668A20121E4
:1017C000084602F0B6FA012C00D1D1E0D6E00000C4
:1017D000300000203400002028000020AC00002051
:1017E0004C0000204B0000204D505520417474697E
:1017F0007475646500000000523A0000AC020020DD
:10180000503A0000593A00004D3120506F733A258C
:10181000366C64004D312056656C3A253464000006
:101820004D3220506F733A25366C64004D3220568D
:10183000656C3A25346400003C000020525F526120
:10184000773A253564000000475F5261773A2535C5
:1018500064000000425F5261773A25356400000061
:10186000435F5261773A253564000000DA000020BA
:10187000525F436C6E3A253564000000475F436C4D
:101880006E3A253564000000425F436C6E3A2535A0
:1018900064000000435F436C6E3A2535640000002D
:1018A000525063745F5261773A20253364252500D6
:1018B000475063745F5261773A20253364252500D1
:1018C000425063745F5261773A20253364252500C6
:1018D00053756D5F436C6E203A253564000000003F
:1018E0004875655F5261773A202533640000000037
:1018F0005361745F5261773A202533640000000021
:1019000056616C5F5261773A202533640000000015
:101910004D6F64653A20496E737420485356000039
:10192000523A25326420473A25326420423A253221
:1019300064000000483A25336420533A253364009C
:10194000436C6561725F436C6E3A2535640000003C
:1019500046696E616C204675736564204F4B0000CC
:101960002D2D2D20535441545553202D2D2D000045
:101970002CA20121032002F0DCF914E0022C05D195
:101980002CA20121032002F0D4F90CE0032C05D194
:101990002CA20121032002F0CCF904E02DA20121A8
:1019A000032002F0C6F92FA20121042002F0C1F9A0
:1019B00033E0FFF751FC04462EA20121084602F055
:1019C000B8F9032C05D12FA20121032002F0B1F9AF
:1019D0001CE0012C05D12FA20121032002F0A9F95E
:1019E00014E0022C05D12FA20121032002F0A1F95D
:1019F0000CE0FF2C05D12FA20121032002F099F960
:101A000004E030A20121032002F093F915A2012184
:101A1000042002F08EF900E000BF00BFFFF782F85B
:101A200006B010BD204245414E3A20574849544522
:101A300020200000204245414E3A2059454C4C4F51
:101A400057200000204245414E3A20475245454E1E
:101A500020200000204245414E3A204E4F4E452066
:101A6000202000002D2D2D2D2D2D2D2D2D2D2D2D1A
:101A70002D2D00002D534D41525420434845434BDA
:101A80002D000000205B5748495445204245414EF7
:101A90005D200000205B59454C4C4F57204245418A
:101AA0004E5D0000205B475245454E204245414E69
:101AB0005D2000002020434845434B494E472E2ED1
:101AC0002E20000020202020454D50545920202059
:101AD0002020000000BFFEE710B501468A78887814
:101AE000801EC3B2002005E0CC1C245C1444E2B28A
:101AF000441CA0B29842F7DB104610BD10B501F0AF
:101B00005DFF024802F022FB10BD0000111B00081F
:101B100010B50446204601F023FF10BDF0B591B08A
:101B2000684601F0F5FE20B39DF80200032820DB93
:101B30009DF8035001AE9DF80200C01EC7B20024FC
:101B400013E00D4810F83400A8420CD10A4800EB0D
:101B5000C400406838B1084800EBC4003946426808
:101B60003046904703E0601C84B2232CE9D300BFC9
:101B700000BF11B0F0BD0000B065000821B10268DF
:101B800042F00102026004E002684FF6FE731A4060
:101B90000260704701684FF6FE721140016000213B
:101BA000016041608160C1604B49884208D14A4967
:101BB0000839496841F00F01474A083A51608AE004
:101BC00045491431884208D143490839496841F0F0
:101BD000F001414A083A51607DE03F49283188428E
:101BE00008D13D490839496841F470613A4A083AD8
:101BF000516070E038493C31884208D13649083993
:101C0000496841F47041344A083A516063E032490E
:101C10005031884208D130490839496841F470216F
:101C20002D4A083A516056E02B496431884208D168
:101C300029490839496841F47001274A083A516036
:101C400049E025497831884208D123490839496853
:101C500041F07061204A083A51603CE01F498842D7
:101C600006D1011F096841F00F01021F116032E027
:101C70001A491431884208D11849091F096841F0EE
:101C8000F001164A121F116025E0144928318842DC
:101C900008D11249091F096841F470610F4A121FE7
:101CA000116018E00D493C31884208D10B49091FE9
:101CB000096841F47041094A121F11600BE007499D
:101CC0005031884207D10549091F096841F4702144
:101CD000024A121F116070470800024008040240C7
:101CE0000146486880B2704710B50022026847F686
:101CF000F0739A430C6A8B6823430C6923434C6945
:101D000023438C692343CC6923434C6A23438C6A65
:101D100023431A430260CB6843600B6883604B68BF
:101D2000C36010BD704700000146114A12884A4343
:101D30004FF0E0235A6100229A611A46126942F07C
:101D400001021A6100BF4FF0E022106900F00102A9
:101D50001AB100F48032002AF5D04FF0E022126967
:101D600022F001024FF0E0231A6100229A617047CD
:101D7000640000200146114A12884A434FF0E023D4
:101D80005A6100229A611A46126942F001021A61F0
:101D900000BF4FF0E022106900F001021AB100F418
:101DA0008032002AF5D04FF0E022126922F00102C1
:101DB0004FF0E0231A6100229A6170476200002010
:101DC00010B54FF0804002F00AFD6421484310BD79
:101DD0000EB50121084602F0A1FA684602F060FE45
:101DE00041F61F40ADF800004FF6FF70ADF804005B
:101DF0000020ADF80200ADF806008DF80800694635
:101E00004FF0804002F0FAFD0121880702F0DBFC70
:101E10000EBD000000B5A1B0C820FFF785FF03216B
:101E200036A002F0F5FF4FF47A70FFF77DFF4FF414
:101E3000FA7233A133A000F0E3F84FF4FA7230A144
:101E400032A000F0DDF84FF47A722DA131A000F03D
:101E5000D7F810B9002021B000BD32A334A237A1B9
:101E600001A8FEF7FFF942F2107225A101A800F0C7
:101E7000C7F840B94FF4FA7236A1002000F0C0F85C
:101E800008B90020E7E74FF4FA721DA133A000F073
:101E9000B7F84FF4FA72002134A000F0B1F84FF413
:101EA000FA70FFF741FF35A336A23AA101A8FEF769
:101EB000D9F941F2883212A101A800F0A1F840B985
:101EC0004FF47A723AA1002000F09AF808B9002085
:101ED000C1E74FF47A720AA13AA000F091F808B96C
:101EE0000020B8E74FF47A723AA13BA000F088F8DE
:101EF00008B90020AFE70120ADE700002B2B2B0035
:101F00004F4B000041540D0A000000004154453081
:101F10000D0A000041542B43574D4F44453D310DB0
:101F20000A00000034343730343437300000000009
:101F30005265646D69204B373000000041542B43DB
:101F4000574A41503D222573222C222573220D0A27
:101F500000000000474F54204950000041542B43DB
:101F600049504D55583D300D0A00000041542B4357
:101F70004950434C4F53450D0A0000003334353669
:101F80000000000031302E3234352E3135392E31FB
:101F90003735000041542B43495053544152543D6E
:101FA00022544350222C222573222C25730D0A0023
:101FB000414C524541445920434F4E4E45435445B0
:101FC0004400000041542B4349504D4F44453D319E
:101FD0000D0A00003E00000041542B434950534578
:101FE0004E440D0A0000000010B508E0FFF712FF94
:101FF000012800D110BD4FF47A70FFF795FEF5E788
:102000002DE9F043A1B005460E4617460024802175
:1020100001A8FEF77EFB01E002F0D6FE02F016FEFC
:102020000028F9D145B12846FEF77EFA1FFA80F85C
:102030004146284602F0ECFE1EB9012021B0BDE861
:10204000F0834FF0000824E00120FFF76DFE1AE056
:1020500002F0BAFE81467F2C05D3202209A901A8EF
:10206000FEF7F8FA20242046611C8CB201A901F881
:10207000009000200855314601A8FEF743FA08B148
:102080000120DBE700BF02F0E1FD0028E0D108F10C
:102090000108B845D8D30020D0E77FB506460C46E6
:1020A0001546002000900190029003908DF800608A
:1020B000F3208DF80100AB208DF802008DF803406D
:1020C0008DF804506B208DF805000621684602F05B
:1020D0009FFD7FBD7FB506460C461546002000904B
:1020E0000190029003908DF8006046208DF8010069
:1020F00069208DF802008DF803408DF804506B20A4
:102100008DF805000621684602F082FD7FBD1FB5EF
:102110000446002000900190029003908DF800404A
:102120009C208DF8010048208DF802006B208DF86E
:1021300003000421684602F06BFD1FBD2DE9F04F3E
:1021400089B005460E461746984613AC94E8100E23
:10215000202101A8FEF7DDFA8DF804504C208DF8FF
:102160000500AE208DF806008DF807608DF8087028
:102170008DF80980129800128DF80A001298C0B2EA
:102180008DF80B00200E8DF80C00200C8DF80D0042
:10219000200A8DF80E00E0B28DF80F004FEA2920DA
:1021A0008DF8100009F0FF008DF811004FEA2A2089
:1021B0008DF812000AF0FF008DF813004FEA2B2073
:1021C0008DF814000BF0FF008DF8150017988DF8AE
:1021D00016006B208DF81700142101A802F018FDDD
:1021E00009B0BDE8F08F7FB505460C460020009091
:1021F0000190029003908DF8005093208DF801001B
:1022000088208DF802008DF803406B208DF80400C3
:102210000521684602F0FCFC7FBD7FB506460C46F2
:102220001546002000900190029003908DF8006008
:102230009A208DF801008DF802408DF803506B2034
:102240008DF804000521684602F0E2FC7FBD2DE90F
:10225000FF4706460F4615469846DDE90D9A0C9C49
:10226000002000900190029003908DF80060FD2006
:102270008DF801008DF8027028128DF80300E8B285
:102280008DF804008DF80580200E8DF80600200CD6
:102290008DF80700200A8DF80800E0B28DF80900DB
:1022A0008DF80A908DF80BA06B208DF80C000D2195
:1022B000684602F0ADFCBDE8FF871FB5044600206C
:1022C00000900190029003908DF800400E208DF850
:1022D000010052208DF802006B208DF803000421CC
:1022E000684602F095FC1FBD1FB504460020009013
:1022F0000190029003908DF800400A208DF80100B3
:102300006D208DF802006B208DF8030004216846D3
:1023100002F07EFC1FBD7FB505460C4600200090F4
:102320000190029003908DF80050FE208DF801007E
:1023300098208DF802008DF803406B208DF8040082
:102340000521684602F064FC7FBD1FB504460020ED
:1023500000900190029003908DF80040FF208DF8CE
:10236000010066208DF802006B208DF80300042127
:10237000684602F04DFC1FBD2DE9FF4105460F46A2
:1023800014461E46DDF8288000200090019002903F
:1023900003908DF80050F6208DF801008DF8027042
:1023A00020128DF80300E0B28DF804008DF805606E
:1023B0008DF806806B208DF807000821684602F032
:1023C00027FCBDE8FF812DE9F041024600250026EB
:1023D000002000230024002791F803C00CF00F0513
:1023E00091F803C00CF0100CBCF1000F03D091F871
:1023F00002C04CEA050591F800C0BCF1000F31D0D5
:10240000146800202BE04FF0010C0CFA00F3B1F837
:1024100000C00CEA03069E4220D183004FF00F0C4F
:102420000CFA03F7BC4305FA03FC4CEA040491F8E8
:1024300003C0BCF1280F06D14FF0010C0CFA00FCD0
:10244000C2F814C00AE091F803C0BCF1480F05D1EE
:102450004FF0010C0CFA00FCC2F810C0401C082818
:10246000D1D31460B1F800C0BCF1FF0F34DD546863
:1024700000202EE000F1080C4FF0010808FA0CF3E0
:10248000B1F800C00CEA03069E4221D183004FF050
:102490000F0C0CFA03F7BC4305FA03FC4CEA0404E6
:1024A00091F803C0BCF1280F05D100F1080C08FA1F
:1024B0000CF8C2F8148091F803C0BCF1480F07D1A2
:1024C00000F1080C4FF0010808FA0CF8C2F810806F
:1024D000401C0828CED35460BDE8F081024600209D
:1024E00093680B400BB1012000E000207047416170
:1024F0007047016170470AB1016100E041617047B6
:1025000070B504460D46FEF7EFFA7D21002001F07C
:1025100091FF70BD70B504460D46FEF755FC79215C
:10252000002001F087FF70BD70B504460D46022DF6
:1025300000DA70BD61782078FEF758FC20787A21A7
:1025400001F078FF00BFF4E770B504460E46012E97
:1025500000DA70BD25782846FEF7D6FC6D210020F4
:1025600001F068FF00BFF4E770B504460D46FEF7C2
:10257000D7FC6E21002001F05DFF70BD2DE9F04118
:1025800004460D46032D01DABDE8F0812678607817
:1025900008B1012000E000200746A07808B1012022
:1025A00000E000208046B8F1000F01D0012000E0DB
:1025B000002002460FB1012000E000200146304615
:1025C000FFF76BFD2078602101F034FF00BFDBE7EF
:1025D0002DE9F04104460D46032D01DABDE8F081F6
:1025E0002678607808B1012000E000208046A778B6
:1025F0003A4641463046FFF76DFD2078692101F0EB
:1026000019FF00BFEAE770B504460D4600F0FCFC78
:102610007121002001F00EFF70BD000070B504466E
:102620000D46012D00DA70BD2078044948707221F2
:10263000002001F0FFFE00BFF5E7000028000020A9
:1026400070B504460D46012D00DA70BD267830467F
:10265000FFF75DFD2078682101F0ECFE00BFF4E794
:102660002DE9F04F8BB004460D46112D02DA0BB068
:10267000BDE8F08F2678607808B1012000E00020E6
:102680000A90A77894F803806079217940EA0129BB
:10269000607A217A40EA0120E17940EA0140A1799B
:1026A00040EA016AE07AA17A40EA012B607B217B53
:1026B00040EA01200990E07BA17B40EA01200890DC
:1026C000207C08B1012000E00020079007A807C87F
:1026D00043468DE8000ECDE9032105903A46304689
:1026E0000A99FFF72BFD2078662101F0A3FE00BFB9
:1026F000BDE72DE9F04104460D46022D01DABDE8A3
:10270000F0812678607808B1012000E000200746BB
:102710000FB1012000E0002001463046FFF763FDC5
:102720002078652101F086FE00BFE8E72DE9F04141
:1027300004460D46032D01DABDE8F081267867785E
:10274000A07808B1012000E000208046B8F1000F19
:1027500001D0012000E00020024639463046FFF754
:102760005CFD2078672101F065FE00BFE4E7000012
:1027700070B504460D46012D00DA70BD207804497D
:10278000C8707421002001F055FE00BFF5E700007D
:10279000280000202DE9FF5F04460D460A2D01DACE
:1027A000BDE8FF9F2678607808B1012000E0002096
:1027B0000390E078A17840EA012794F80480207A19
:1027C000E17940EA0120A17940EA0140617940EADB
:1027D0000169607A08B1012000E000208246A07AF9
:1027E00008B1012000E000208346BBF1000F01D0BA
:1027F000012000E00020BAF1000F01D0012100E02B
:10280000002143463A46CDE90091029030460399B3
:10281000FFF71DFD2078622101F00CFE00BFBFE72D
:102820002DE9F04F87B004460F460A2F02DA07B0B1
:10283000BDE8F08F2578607808B1012000E0002025
:102840000690E078A17840EA012894F80490207A74
:10285000E17940EA0120A17940EA0140617940EA4A
:10286000016A607A08B1012000E000200590A07A9A
:1028700008B1012000E000200490012D01D1194889
:1028800000E019480390504603F0BCF81749029045
:1028900002F06EFF83465846039903F0FBF84FF0B1
:1028A0007C51019002F0F0FE029003F073F80646AE
:1028B000049808B1012100E00021059808B1012029
:1028C00000E000204B464246CDE9006002912846D8
:1028D0000699FFF7BCFC2078782101F0ABFD00BF22
:1028E000A5E7000066C6B34300007A460000C84270
:1028F00038B504460D4685208DF800000448007860
:102900008DF801000221684601F02AFC38BD000064
:102910004B000020704770477FB504460D4602A863
:10292000FEF76EF880208DF80000BDF80800C0B2F8
:102930008DF80100BDF80800000A8DF80200BDF80E
:102940000A00C0B28DF80300BDF80A00000A8DF835
:102950000400BDF80C00C0B28DF80500BDF80C00F5
:10296000000A8DF806000721684601F0F9FB7FBDDB
:1029700030B589B004460D4605A800F0C9FE812097
:102980008DF804000E2205A90DF10500FDF7EBFD01
:102990000F2101A801F0E4FB09B030BD7CB504466D
:1029A0000D46012D00DA7CBD267826B1012E12D00D
:1029B000022E28D11BE084208DF8000014480088E6
:1029C000ADF8010012494988ADF8031005216846A9
:1029D00001F0C6FB18E084208DF804000C48008844
:1029E000ADF80500032101A801F0BAFB0CE084203A
:1029F0008DF8040006484088ADF80500032101A8C1
:102A000001F0AEFB00E000BF00BF00BFCBE700005D
:102A10004C0000202DE9FC4706460F46022F01DA44
:102A2000BDE8FC873078012801D0012000E00020BB
:102A30008146757829464846FEF70CFB04464FF060
:102A4000010887208DF800000A2D2BD2DFE805F061
:102A5000050D0E0F19101A1B060700BF00BFE0B2CC
:102A60008DF801004FF002081DE000BF00BF00BF5D
:102A7000E0B28DF80100200A8DF802004FF0030843
:102A800011E000BF00BFE0B28DF80100200A8DF810
:102A90000200200C8DF80300200E8DF804004FF08A
:102AA000050800E0BCE700BF4146684601F058FB5E
:102AB00000BFB5E770B586B004460D46002D06DDB3
:102AC0002078012801D0012002E0002000E0002051
:102AD000064686208DF80000C6EBC60000EB061007
:102AE000064A811817220DF10100FDF73CFD18215F
:102AF000684601F035FB06B070BD0000AC00002058
:102B000070B504460D46012D00DA70BD26783046BA
:102B1000FFF7D3FB20786B2101F08CFC00BFF4E7BA
:102B200070B504460D46012D00DA70BD267830469A
:102B3000FFF7DAFB20786A2101F07CFC00BFF4E7A4
:102B400070B505460C46012C03DB6F21002001F017
:102B500071FC70BD70B504460D46012D00DA70BDE4
:102B60002078044908717521002001F063FC00BF42
:102B7000F5E70000280000202DE9F04104460F464B
:102B8000022F01DABDE8F0812578667831462846C3
:102B9000FEF7BCFB6C21284601F04CFC00BFF1E7BE
:102BA00070B504460D46012D00DA70BD2078FEF7A1
:102BB00089F920787B2101F03DFC00BFF5E700009A
:102BC00070B504460D46012D00DA70BD2078054928
:102BD000087000F03BFF7021002001F02BFC00BFCB
:102BE000F3E700002800002070B504460D46012DD3
:102BF00000DA70BD2078044988707321002001F04C
:102C000019FC00BFF5E70000280000202DE9F04185
:102C100004460D46022D01DABDE8F0812678607881
:102C200008B1012000E0002007460FB1012000E0BC
:102C3000002001463046FFF76EFB2078632101F04B
:102C4000F9FB00BFE8E770B504460D46012D00DA38
:102C500070BD26783046FFF778FB2078642101F0BC
:102C6000E9FB00BFF4E72DE9F84F04460D46062DB9
:102C700001DABDE8F88F2678607808B1012000E01D
:102C800000208146E078A17840EA012794F804808A
:102C9000607908B1012000E000208246BAF1000FFF
:102CA00001D0012000E0002043463A46494600900A
:102CB0003046FFF761FB2078612101F0BBFB00BFCC
:102CC000D7E700BFFEE7000010B540210A48FFF734
:102CD0000EFC80210848FFF70AFC0220FFF74AF8A3
:102CE00040210548FFF705FC0220FFF743F840218B
:102CF0000148FFF7FCFB10BD000C014008B50121A5
:102D0000082001F01BFBC020ADF8000003208DF867
:102D1000020014208DF8030069460648FFF753FBB4
:102D200040210448FFF7E5FB80210248FFF7E1FB63
:102D300008BD0000000C014010B540210A48FFF713
:102D4000D6FB80210848FFF7D4FB0220FFF712F8DA
:102D500040210548FFF7CDFB0220FFF70BF840218B
:102D60000148FFF7C4FB10BD000C014070B50546DB
:102D7000002480211548FFF7BCFB002618E0402105
:102D80001248FFF7B4FB0220FEF7F4FF40210F4882
:102D9000FFF7AFFB6006040E80210C48FFF79EFB97
:102DA00008B1601CC4B20220FEF7E4FF701CC6B27A
:102DB000082EE4DB40210548FFF799FB15B9FFF722
:102DC000BBFF01E0FFF780FF204670BD000C014013
:102DD00070B5044640211448FFF789FB002520E028
:102DE00004F0800020B180210F48FFF782FB03E050
:102DF00080210D48FFF77BFB6006040E0520FEF7DF
:102E0000B9FF40210848FFF774FB0520FEF7B2FF29
:102E100040210548FFF76BFB0520FEF7ABFF681C60
:102E2000C5B2082DDCDB70BD000C014010B580215F
:102E30000B48FFF75EFB40210948FFF75AFB0420CF
:102E4000FEF798FF80210648FFF751FB0420FEF7AC
:102E500091FF40210248FFF74AFB012010BD00000E
:102E6000000C014010B580210A48FFF740FB042008
:102E7000FEF780FF40210748FFF73BFB0420FEF7E9
:102E800079FF80210348FFF734FB0420FEF772FF2F
:102E900010BD0000000C014010B500248021114835
:102EA000FFF727FB40210F48FFF723FB0520FEF724
:102EB00061FF0AE0601CC4B2FA2C03DDFFF7D2FF09
:102EC000012010BD0120FEF755FF80210548FFF7C6
:102ED00005FB0028EED140210248FFF708FB002047
:102EE000EFE70000000C014070B505460E461446A1
:102EF000234601223146284600F001F870BD2DE935
:102F0000F0410646884615461F46FFF78FFF002111
:102F100041EA4601C8B2FFF75BFFFFF7BDFF20B1F2
:102F2000FFF7A0FF0020BDE8F0814046FFF750FF0B
:102F3000FFF7B2FF18B1FFF795FF0020F3E7FFF7A7
:102F400075FF012101EB4601C8B2FFF741FFFFF712
:102F5000A3FF18B1FFF786FF0020E4E700240DE08F
:102F6000681EA04204D10020FFF700FF385503E09F
:102F70000120FFF7FBFE3855601CC4B2AC42EFDB0A
:102F8000FFF770FF2846CEE737B504460D4602AB83
:102F900001222946204600F001F83EBD2DE9F0410E
:102FA00005460E4617469846FFF740FF002141EAC6
:102FB0004501C8B2FFF70CFFFFF76EFF20B1FFF726
:102FC00051FF0020BDE8F0813046FFF701FFFFF719
:102FD00063FF18B1FFF746FF0020F3E700240CE081
:102FE00018F80400FFF7F4FEFFF756FF18B1FFF7DB
:102FF00039FF0020E6E7601CC4B2BC42F0DBFFF7FB
:1030000031FF0120DEE7000030B587B000200090DE
:1030100001900290002421E003A800F079FBBDF9A3
:10302000140002F0D7FC0546009902F02DFB009039
:10303000BDF9160002F0CEFC0546019902F024FB12
:103040000190BDF9180002F0C5FC0546029902F096
:103050001BFB02900220FEF767FE641CC82CDBDB22
:103060000949009802F084FB084908600649019864
:1030700002F07EFB054948600349029802F078FBA4
:103080000249886007B030BD00004843B802002004
:1030900008B5FFF733FE002000906946752000F068
:1030A0007DFB9DF80000682801D0012008BD80212B
:1030B0006B2000F087FB6420FEF736FE00216B20BA
:1030C00000F080FB0121192000F07CFB03211A2075
:1030D00000F078FB08211B2000F074FB00211C206D
:1030E00000F070FB0021232000F06CFB0021382051
:1030F00000F068FB3220FEF717FEFFF785FF002087
:10310000D4E7000003B59BB0FE4800681A90FD4864
:1031100040681990FB4880681890FA48C06817907A
:103120001B98B0F90000099002F054FC0F901B9816
:10313000B0F90200099002F04DFC0E901B98B0F916
:103140000400099002F046FC0D901B98B0F90800AD
:10315000069002F03FFC0790EB480068014606909D
:10316000079802F027FEE949089002F001FBE849C0
:10317000099002F08FFC0C901B98B0F90A000690A1
:1031800002F028FC0790E048406801460690079846
:1031900002F010FEDD49089002F0EAFADC490990DD
:1031A00002F078FC0B901B98B0F90C00069002F02E
:1031B00011FC0790D448806801460690079802F0F9
:1031C000F9FDD249089002F0D3FAD149099002F0F2
:1031D00061FC0A9000210F9802F08CFB09D10021BC
:1031E0000E9802F087FB04D100210D9802F082FBBB
:1031F0007ED00D99084602F04DFC08900E990846C5
:1032000002F048FC06900F99084602F043FC059036
:10321000069902F039FA0790089902F035FA0990F8
:1032200002F01CFA169016990F9802F0A1FA0F906E
:1032300016990E9802F09CFA0E9016990D9802F0CD
:1032400097FA0D9018991A9802F024FC0890179993
:10325000199802F01FFC0790089902F0ABFD4FF09F
:103260008041099002F016FC1590DDE9171002F07C
:1032700011FC0890DDE9191002F00CFC0790089988
:1032800002F002FA4FF08041099002F003FC149022
:103290001799084602F0FEFB09901899084602F0BB
:1032A000F9FB07901999084602F0F4FB05901A996A
:1032B000084602F0EFFB0490059902F07BFD0690B2
:1032C000079902F077FD0890099902F0DDF9139053
:1032D00014990D9802F0DEFB099013990E9802F0F4
:1032E000D9FB0890099902F065FD1290139900E04E
:1032F0006EE00F9802F0CEFB099015990D9802F040
:10330000C9FB0890099902F055FD119015990E9886
:1033100002F0C0FB099014990F9802F0BBFB0890D3
:10332000099902F047FD10907A49129802F0B2FB19
:10333000099079480168099802F0A6F97649086071
:103340007449119802F0A6FB099074480168099825
:1033500002F09AF9714908606E49109802F09AFBE0
:1033600009906F480168099802F08EF96C4908606D
:103370004FF08040129902F08DFB0890664801687A
:10338000089802F081F909900C9902F07DF90C90EF
:103390004FF08040119902F07DFB08905F48016872
:1033A000089802F071F909900B9902F06DF90B90F1
:1033B0004FF08040109902F06DFB0890584801686A
:1033C000089802F061F909900A9902F05DF90A90F3
:1033D0004FF07C501C9902F05DFB08900A991798F9
:1033E00002F058FB06900B99189802F053FB0490DA
:1033F000199880F0004002900C9902F04BFB03906A
:10340000049902F0D7FC0590069902F0D3FC0790CE
:10341000089902F03FFB09901A9902F035F91A90C9
:103420004FF07C501C9902F035FB08900B991798CF
:1034300002F030FB06900A99189802F02BFB0490DA
:103440000C991A9802F026FB0390049902F01CF9DB
:103450000590069902F0AEFC0790089902F01AFB5D
:103460000990199902F010F919904FF07C501C99AD
:1034700002F010FB08900C99179802F00BFB0690D5
:103480000A99199802F006FB04900B991A9802F019
:1034900001FB0390049902F08DFC0590069902F05F
:1034A000F3F80790089902F0F5FA0990189902F0DC
:1034B000EBF818904FF07C501C9902F0EBFA089052
:1034C0000C99189802F0E6FA06900B99199802F0F8
:1034D000E1FA04900A991A9802F0DCFA0390049930
:1034E00002F0D2F80590069902F064FC0790089962
:1034F00002F0D0FA0990179902F0C6F817901799C0
:1035000008460FE070000020B8020020000083424F
:1035100035FA8E3C0AD7A33B8000002084000020AF
:103520008800002002F0B6FA08901899084602F0C8
:10353000B1FA06901999084602F0ACFA04901A996B
:10354000084602F0A7FA0390049902F09DF805904E
:10355000069902F099F80790089902F095F80990F9
:1035600002F07CF8169016991A9802F001F9654954
:1035700008601699199802F0FBF86249486016999C
:10358000189802F0F5F85F498860DDE9161002F03E
:10359000EFF85C49C8600846806802900846806879
:1035A0000190029902F076FA049056484068029021
:1035B000544840680190029902F06CFA0390049913
:1035C00002F062F84FF08041059002F063FA4FF08C
:1035D0007E51069002F05BFB08904A48C068039059
:1035E000484880680290039902F054FA05904548D3
:1035F00040680390434800680290039902F04AFA39
:103600000490059902F040F84FF08041069002F0D6
:1036100041FA0790089901F0D5FD3B49099002F065
:1036200039FA3A4908603748406804903548C0681C
:103630000390049902F02EFA0690324880680490B4
:10364000304800680390049902F024FA0590069926
:1036500002F0B0FB4FF08041079002F01BFA089097
:1036600001F01EFD2849099002F014FA274948602C
:103670002448C06802902348C0680190029902F073
:1036800009FA04901F48806802901E4880680190E3
:10369000029902F0FFF90390049901F0F5FF4FF051
:1036A0008041059002F0F6F94FF07E51069002F04D
:1036B000EEFA089013488068039012484068029020
:1036C000039902F0E7F905900E48C06803900D4891
:1036D00000680290039902F0DDF90490059901F069
:1036E000D3FF4FF08041069002F0D4F9079008997B
:1036F00001F068FD0449099002F0CCF903498860A3
:103700001DB000BD70000020E02E6542AC0200201C
:103710001FB504460E2269463B2000F048F80E28EB
:1037200002D0012004B010BD9DF801009DF80010EA
:1037300040EA012000B220809DF803009DF80210AD
:1037400040EA012000B260809DF805009DF8041059
:1037500040EA012000B2A0809DF807009DF8061005
:1037600040EA012000B2E0809DF809009DF80810B1
:1037700040EA012000B220819DF80B009DF80A105C
:1037800040EA012000B260819DF80D009DF80C1008
:1037900040EA012000B2A0810020C3E770B50446D2
:1037A0000D462A4621466820FFF79EFB70BD70B586
:1037B00004460D4616462B46324621466820FFF742
:1037C0009EFB70BD70B504460D462A462146682012
:1037D000FFF7DAFB70BD3EB50246106800905068F6
:1037E00001901089ADF8080000211BE0002013E0D3
:1037F0003DF81040431C3DF813309C420ADD3DF873
:103800001030441C3DF814402DF81040441C2DF895
:10381000143000BF431CD8B2C1F104038342E7DC7B
:10382000481CC1B20429E1DBBDF80200BDF8041058
:103830000844BDF806100844032190FBF1F080B263
:103840003EBD2DE9F0431E46DDE9077C884205DDDB
:10385000904201DD054606E0154604E0914201DD97
:103860000D4600E015462B46884205DA904201DA03
:10387000054606E0154604E0914201DA0D4600E0F7
:103880001546A846A3EB080464255D434FF6FF796F
:10389000B5FBF9F58CF8005023B900253D70358053
:1038A000BDE8F08364256543B5FBF3F53D7014B9BD
:1038B0000025358028E000BF834208D1A1EB020932
:1038C000C9EB09194FEA890999FBF4F516E08B4217
:1038D0000AD1A2EB0009C9EB09194FEA890999FB42
:1038E000F4F909F1780509E0A0EB0109C9EB091920
:1038F0004FEA890999FBF4F909F1F005002D01DA85
:1039000005F5B475358000BF00BFC9E700BFFEE70D
:1039100010B504460F4800880F490988884201D134
:10392000002010BD0B48008800EB00100B4A02EB92
:10393000800144222046FCF716FE06490988481CEF
:10394000C11700EB5171C910A0EBC101014A1180F0
:103950000120E6E78C0000208E000020C402002039
:1039600070B5044611490988481CC11700EB517114
:10397000C910A0EBC1018DB20D480088854206D167
:103980000C480068401C0B490860002070BD0749C6
:10399000098801EB0111084A02EB8100442221460B
:1039A000FCF7E1FD014805800120EFE78E000020D3
:1039B0008C00002090000020C40200200020034959
:1039C0000880034908800349086070478C00002084
:1039D0008E000020900000207047000070B500218C
:1039E00000230F22C47804B3154C246804F4E06467
:1039F000C4F5E064210AC1F10403CA40447804FA22
:103A000003F184781440214309010E4C0678A15536
:103A1000047804F01F050124AC4005786D11AD0059
:103A200005F1E025C5F8004109E0047804F01F0520
:103A30000124AC40044D0678761145F8264070BD4F
:103A40000CED00E000E400E080E100E070B500244F
:103A50000EE00021204600F0EDF8002504E00020F3
:103A600000F08BF9681CC5B2802DF8DB601CC4B275
:103A7000082CEEDB70BD000008B50121102000F01D
:103A80005DFC14208DF8030002208DF802004FF435
:103A90004040ADF8000069460648FEF794FC01225C
:103AA000D1030448FEF727FD012291030148FEF7E8
:103AB00022FD08BD0010014070B50546002419E044
:103AC00080202041284008B1012000E0002002466B
:103AD0004FF480410E48FEF70EFD0122D1030C4841
:103AE000FEF709FD00224FF400410948FEF703FDEF
:103AF000601CC4B2082CE3DB0122D1030448FEF7AA
:103B0000FAFC00224FF400410148FEF7F4FC70BDBE
:103B10000010014010B5012291030A48FEF7EBFCAA
:103B20000122D1030748FEF7E6FC00224FF4804152
:103B30000448FEF7E0FC00224FF400410148FEF784
:103B4000DAFC10BD0010014010B500224FF4804196
:103B50000648FEF7D0FC0122D1030448FEF7CBFC57
:103B6000012291030148FEF7C6FC10BD0010014080
:103B700070B5002407E0002500E06D1C42F21070D3
:103B80008542FAD3641CB4F57A7FF4D3FFF774FF4F
:103B9000AE2000F0E2F8D52000F0DFF8802000F041
:103BA000DCF8A82000F0D9F83F2000F0D6F8D320A8
:103BB00000F0D3F8002000F0D0F8402000F0CDF85D
:103BC000A12000F0CAF8C82000F0C7F8DA2000F001
:103BD000C4F8122000F0C1F8812000F0BEF8CF2018
:103BE00000F0BBF8D92000F0B8F8F12000F0B5F8EB
:103BF000DB2000F0B2F8302000F0AFF8A42000F095
:103C0000ACF8A62000F0A9F88D2000F0A6F814204A
:103C100000F0A3F8AF2000F0A0F8FFF717FF70BD89
:103C200010B50246012000E050430B1EA1F1010136
:103C3000FAD110BD70B505460C4645F0B00000F055
:103C40008CF8102141EA141000F087F804F00F00FE
:103C500000F083F870BD00002DE9F04105460E46E6
:103C60001746721ED206110E6A1E5206100EFFF77C
:103C7000E1FF002409E0A7F12001134A02EB011142
:103C8000085D00F07AF8601CC4B2082CF3DB721EE9
:103C9000D206110E6A1E012303EB4202D0B2FFF7D7
:103CA000C9FF00240BE0A7F12001074A02EB011233
:103CB00004F10801505C00F060F8601CC4B2082CEC
:103CC000F1DBBDE8F0810000C05F00082DE9F0479E
:103CD0008146884615461E46002D06DB2B224146AE
:103CE0004846FFF7B9FF2F4605E02D2241464846DA
:103CF000FFF7B2FF6F42002417E0301B411E0A207D
:103D0000FFF78EFFB7FBF0F00A21B0FBF1F201FBE9
:103D1000120000F1300A08EB0400401CC1B2524608
:103D20004846FFF799FF601CC4B2B442E5DBBDE82A
:103D3000F0872DE9F04107460E461546002407E0BE
:103D40002A5D3019C1B23846FFF786FF601CC4B245
:103D5000285D0028F4D1BDE8F08110B50446FFF7D6
:103D6000D9FE7820FFF7A8FE0020FFF7A5FE204629
:103D7000FFF7A2FEFFF7E8FE10BD10B50446FFF7FF
:103D8000C9FE7820FFF798FE4020FFF795FE2046F9
:103D9000FFF792FEFFF7D8FE10BD000000B589B016
:103DA0000121022000F0BAFA0121042000F0C6FA35
:103DB0004020ADF8200018208DF8230003208DF856
:103DC000220008A91848FEF7FEFA0020ADF81A00F4
:103DD000ADF816006320ADF818004720ADF81400C8
:103DE00000208DF81C0005A9104800F007FE01A86E
:103DF00000F0F3FD6020ADF804000020ADF80C00E9
:103E00000120ADF806000020ADF80A0001A907481E
:103E100000F0E8FC0821054800F030FD01210348CE
:103E200000F0D1FC09B000BD0008014000040040D2
:103E300070B50446642C00DD642404EB441000EBF0
:103E400040006421B0FBF1F52946024800F0CFFDA7
:103E500070BD00000004004000B589B001210420BD
:103E600000F05CFA0121082000F068FA4FF480703D
:103E7000ADF8200018208DF8230003208DF82200D3
:103E800008A92148FEF79FFA4FF40070ADF8200012
:103E900008A91D48FEF797FA0020ADF81A00ADF802
:103EA000160044F61F60ADF818004720ADF8140066
:103EB00000208DF81C0005A9144800F09FFD01A802
:103EC00000F08BFD6020ADF804000020ADF80C0080
:103ED0000120ADF806000020ADF80A0001A90B484A
:103EE00000F0D6FC01A9094800F02CFD0821074884
:103EF00000F01EFD0821054800F062FD0121034885
:103F000000F061FC09B000BD000C01400008004059
:103F10002DE9F04104460D46284601F073FD0746A1
:103F2000FCF7C2FD0646012C04D13146054800F0DD
:103F300060FD05E0022C03D13146024800F05BFD34
:103F4000BDE8F081000800402DE9F0411C2A01DAAB
:103F5000BDE8F081CF7891F802C047EA0C27C0EBAA
:103F6000C00C0CEB001CDFF83881C444ACF80170C5
:103F70004F7991F804C047EA0C273FB2C0EBC00C60
:103F80000CEB001CC444ACF80370CF7991F806C068
:103F900047EA0C27C0EBC00C0CEB001CC444ACF887
:103FA00005704F7A3F0691F80AC047EA0C4791F82E
:103FB0000BC047EA0C2791F80CC047EA0C040F7AB3
:103FC000012F01D1674200E02746C0EBC00C0CEB8B
:103FD000001CDFF8CC80C444CCF80770CF7B91F88C
:103FE0000EC047EA0C273DB24F7B012F01D16F4233
:103FF00000E02F463FB2C0EBC00C0CEB001CDFF81A
:10400000A080C444ACF80B704F7C3F0691F812C0FE
:1040100047EA0C4791F813C047EA0C2791F814C0FF
:1040200047EA0C030F7C012F01D15F4200E01F46DD
:10403000C0EBC00C0CEB001CDFF86480C444CCF86F
:104040000D708F7D3F0691F817C047EA0C4791F835
:1040500018C047EA0C2791F819C047EA0C064F7DB3
:10406000012F01D1774200E03746C0EBC00C0CEBCA
:10407000001CDFF82C80C444CCF811708F7EC0EB9C
:10408000C00C0CEB001CC4448CF81570CF7EC0EB48
:10409000C00C0CEB001CC4448CF8167000BF57E732
:1040A000AC00002070470000014908607047000024
:1040B000A400002030B589B03CE000F08BFD044640
:1040C0001F4801780078401C1D4A10701D48445458
:1040D00000256B2C04D110460078042800DB012554
:1040E00005B3184800788DF80000164840788DF820
:1040F000010013480078C01E80B2ADF82200BDF860
:1041000022201049891C0DF10200FCF72CFA0E4800
:10411000006818B168460C490968884700200849BA
:10412000087000BF06480078802802D300200449A8
:10413000087000BF00F0BEFC0028BEDC09B030BD36
:10414000A800002028050020A400002002490860E3
:104150000021024A11607047980000209C00002056
:1041600030B591B005460C46402C00DD4024FF20C0
:104170008DF80000FB208DF80100A01CC0B28DF866
:104180000200002C06DD2DB1224629460DF1030068
:10419000FCF7E9F96846FDF79FFC8DF843009DF8B0
:1041A000000000F043FE9DF8010000F03FFE9DF886
:1041B000020000F03BFE002C04DD21460DF103005F
:1041C00000F026FE9DF8430000F030FE11B030BD37
:1041D00010B500F03BFD88B94248007868B142480C
:1041E0000088401C40490880084600880A2804DDF1
:1041F00000203C4908703C49088010BD6BE000F08D
:10420000E3FD044600203849088036480078052838
:104210005FD2DFE800F0030B1D324600FF2C04D113
:104220003248047001202F49087052E0FC2C05D15F
:104230002E48447002202B49087008E0FF2C03D15F
:1042400001202849087002E000202649087040E05B
:10425000022C01DB422C03DD0020224908700BE018
:1042600022488470002022490880022C01D10420B9
:1042700000E003201B4908702BE01D4801880088DE
:10428000401C1B4A10801948C01C4454C01E807832
:10429000801E11460988884202DC042011490870FA
:1042A00017E0124880F84340FDF716FCA04207D102
:1042B0001048006848B10D480E490968884704E075
:1042C0000D480068401C0C49086000200549087032
:1042D00000BF00BF00BF00F0B9FC00288FDC00BFAA
:1042E0008BE7000094000020A0000020E4040020E0
:1042F00096000020980000209C00002029B1064A6A
:1043000052690243044B5A6104E0034A52698243F2
:10431000014B5A61704700000010024029B1064A63
:10432000D2690243044BDA6104E0034AD269824352
:10433000014BDA61704700000010024029B1064AC3
:1043400092690243044B9A6104E0034A92698243F2
:10435000014B9A61704700000010024030B5002107
:104360000022002400232D4D6D6805F00C0121B1C1
:10437000042905D0082923D105E0294D056022E054
:10438000274D05601FE0254D6D6805F47012234D23
:104390006D6805F48034022505EB92421CB9214D6D
:1043A000554305600BE01D4D6D6805F400351DB1EA
:1043B0001C4D5543056002E0194D5543056002E070
:1043C000174D056000BF00BF144D6D6805F0F0018A
:1043D0000909154D6B5C0568DD4045600F4D6D6842
:1043E00005F4E061090A104D6B5C4568DD408560AD
:1043F0000A4D6D6805F46051C90A0B4D6B5C456848
:10440000DD40C560054D6D6805F44041890B074DE1
:104410006B5CC568B5FBF3F5056130BD001002406B
:1044200000127A0000093D00140000202400002042
:104430007047000038B504460D4605A0006800909E
:104440008DF8014002216846FFF78AFE38BD000062
:104450009000000010B500F001F810BD0CB5002070
:10446000019000903348006840F480303149086082
:1044700000BF3048006800F4003000900198401CF4
:104480000190009818B90198B0F5A06FF1D12948B2
:10449000006800F4003010B10120009001E000201D
:1044A00000900098012843D12348006840F0100094
:1044B000214908600846006820F0030008600846AB
:1044C000006840F0020008601A48406819494860D6
:1044D0000846406848600846406840F4806048608C
:1044E0000846406820F47C1048600846406840F464
:1044F000E81048600846006840F08070086000BF1F
:104500000C48006800F000700028F9D009484068A5
:1045100020F00300074948600846406840F0020068
:10452000486000BF0348406800F00C000828F9D13B
:104530000CBD00000010024000200240042808D1F9
:104540004FF0E021096941F004014FF0E0221161D0
:1045500007E04FF0E021096921F004014FF0E0226B
:10456000116170477047000010B51348006840F0B3
:1045700001001149086008464068104908400E498A
:104580004860084600680E4908400B490860084624
:10459000006820F4802008600846406820F4FE008F
:1045A00048604FF41F008860FFF754FF4FF0006031
:1045B0000449086010BD0000001002400000FFF830
:1045C000FFFFF6FE08ED00E010B56FF00400FFF706
:1045D000B5FF0A4800680A49B0FBF1F009490880B4
:1045E0000846008800EB4001C1EBC0104FF6FF7198
:1045F00001EAC0000449088010BD0000000000204E
:1046000000127A00620000206400002010B5012131
:10461000002000F0B0F80320FDF786FB0321002006
:1046200000F0A9F8F621012000F0A5F802210F20E2
:1046300000F0A1F810BD3EB5044602A9132000F019
:104640002DF800B93EBD9DF8080000F0010000B94A
:10465000F8E708226946142000F04EF800B9F1E7A7
:104660009DF800009DF8011040EA012020809DF88F
:1046700002009DF8031040EA012060809DF80400CC
:104680009DF8051040EA0120A0809DF806009DF8E5
:10469000071040EA0120E08000BFD3E770B5044670
:1046A0000D46FEF7C3FB5220FEF792FBFEF7F4FB2C
:1046B00018B1FEF7D7FB002070BD44F08000FEF774
:1046C00087FBFEF7E9FB18B1FEF7CCFB0020F3E710
:1046D000FEF7ACFB5320FEF77BFBFEF7DDFB18B1CA
:1046E000FEF7C0FB0020E7E70020FEF73FFB287045
:1046F000FEF7B8FB0120DFE72DE9F04107460D4644
:104700001646FEF793FB5220FEF762FBFEF7C4FB52
:1047100020B1FEF7A7FB0020BDE8F08147F0A00024
:10472000FEF756FBFEF7B8FB18B1FEF79BFB002027
:10473000F2E7FEF77BFB5320FEF74AFBFEF7ACFBEC
:1047400018B1FEF78FFB0020E6E700240DE0701E95
:10475000A04204D10020FEF709FB285503E0012008
:10476000FEF704FB2855601CC4B2B442EFDBFEF731
:1047700079FB0120D0E770B504460D46FEF756FBE5
:104780005220FEF725FBFEF787FB18B1FEF76AFB08
:10479000002070BD44F08000FEF71AFBFEF77CFBA2
:1047A00018B1FEF75FFB0020F3E72846FEF710FB89
:1047B000FEF772FB18B1FEF755FB0020E9E7FEF7A4
:1047C00051FB0120E5E721B1028842F0010202809D
:1047D00004E002884FF6FE731A40028070470146DB
:1047E000888C704770B5002400220023058C4FF69A
:1047F000FE7635400584028C8388048B4FF68F75D6
:104800002C40B51E2C400D882C43751E2A400D8966
:104810002A434D882A43144DA8420BD0134DA84279
:1048200008D0134DA84205D0124DA84202D0124D17
:10483000A84213D14FF6F7752A404D892A434FF607
:10484000FB752A408D882A434FF6FF652B404FF6B3
:10485000FF552B408D892B43CD892B4383800483C7
:10486000CD888586028470BD002C01400034014053
:104870000040014000440140004801400A46002138
:10488000018B4FF6F7731940114301837047000005
:1048900070B5002400220023058C4FF6FF663540DA
:1048A0000584028C8388848B4FF68F752C404FF6DD
:1048B000FC752C400D882C434FF6FF552A400D897E
:1048C0004FF6FF7606EA05252A434D8806EA0525B8
:1048D0002A43154DA84202D0144DA8421DD14FF2D3
:1048E000FF752A404D894FF6FF7606EA05252A43D3
:1048F0004FF6FF352A408D8806EA05252A434EF6F5
:10490000FF752B404DF6FF752B408D8906EA051586
:104910002B43CD8906EA05152B4383808483CD88FC
:104920008587028470BD0000002C014000340140E6
:104930000A460021818B4FF6F7731940114381839A
:104940007047000070B5002200230024058C4EF64D
:10495000FF7635400584038C8488828B48F6FF758A
:104960002A404FF6FF452A400D884FF6FF7606EAAB
:1049700005252A434DF6FF752B400D8906EA0535BE
:104980002B434D8806EA05352B430B4DA84202D038
:104990000A4DA84208D14BF6FF752C408D894FF681
:1049A000FF7606EA85152C4384808283CD88A0F8A3
:1049B0004050038470BD0000002C014000340140D1
:1049C0000A460021818B4FF2FF7319404FF6FF73A7
:1049D00003EA02231943818370470021018041804B
:1049E0008180C180018141818181C181704781863F
:1049F000704781877047A0F84010704700220288F6
:104A00001D4B98420ED01D4B98420BD0B0F1804FF9
:104A100008D01B4B984205D01A4B984202D01A4B33
:104A2000984204D14FF68F731A404B881A43174BA4
:104A3000984207D0164B984204D04FF6FF431A40D5
:104A4000CB881A4302808B8883850B8803850A4BA9
:104A500098420BD0094B984208D00E4B984205D093
:104A60000D4B984202D00D4B984201D10B7A038630
:104A70000123838270470000002C01400034014074
:104A80000004004000080040000C004000100040FE
:104A90000014004000400140004401400048014033
:104AA0004FF6FF71818000210180C1804180017239
:104AB000704700000848018808480088814204DBEC
:104AC00006480088081A80B2704704480088C0F180
:104AD0008000084480B2F7E76600002068000020EC
:104AE00010B540F225510F4800F0EBF9C0B10D4868
:104AF00000F0A2FAC4B20C480C49098844540B498E
:104B00000988481CC11700EB5161C911A0EBC11104
:104B1000064A118040F22551024800F0A1F900BF79
:104B200010BD0000003801401A010020660000207E
:104B300010B586B00446012144F20400FFF7FEFBE5
:104B40004FF40070ADF8140018208DF81700032002
:104B50008DF8160005A91D48FDF735FC4FF480605F
:104B6000ADF8140048208DF8170005A91748FDF787
:104B70002AFC01940020ADF810000C20ADF80E00C6
:104B80000020ADF80C00ADF80A00ADF8080001A94E
:104B90000F4800F0E5F925208DF8000001208DF880
:104BA000010000208DF8020001208DF80300684606
:104BB000FEF714FF012240F22551054800F0ABF941
:104BC0000121034800F05BF906B010BD0008014068
:104BD0000038014000210B4800880B4A128890429F
:104BE0000ED00A48074A1288815C064A1288501C77
:104BF000C21700EB5262D211A0EBC212014B1A8015
:104C00000846704768000020660000201A01002056
:104C100070B504460D4603E014F8010B00F006F8E9
:104C2000281EA5F101018DB2F6D170BD10B5044664
:104C300000BF8021044800F037F90028F9D0214650
:104C4000014800F0FEF910BD0038014010B50C48D5
:104C5000FDF746F8C0F5807084B20A4804800A481F
:104C60000088844204DB08480088201A80B210BD06
:104C700005480088C0F58070204480B2F7E7000046
:104C80006C0002406A0000206C00002008B540F271
:104C900024410A4800F015F978B1084800880090CE
:104CA0000648001D0088009000BF0548FDF718F871
:104CB000C0F580700349088000BF08BD0044004073
:104CC0006C0002406A00002010B592B00446012139
:104CD0004804FFF723FB01210420FFF72FFB0121EC
:104CE0000846FFF70BFB18208DF847000420ADF8AD
:104CF000440003208DF8460011A92F48FDF763FBFF
:104D000048208DF847000820ADF8440011A92A4832
:104D1000FDF759FB0D940020ADF840000C20ADF8D4
:104D20003E000020ADF83C00ADF83A00ADF8380088
:104D30000DA9224800F014F92148FCF72BFF1F4869
:104D4000001D02901F480390002004904FF48070D3
:104D50000590002006908020079000200890099080
:104D600020200A9000020B9000200C9002A9144809
:104D7000FCF7BAFF01211248FCF700FF0122402195
:104D80000E4800F088F826208DF8040001208DF8E8
:104D900005008DF806008DF8070001A8FEF71EFE3D
:104DA000012240F22441054800F0B5F801210348F2
:104DB00000F065F812B010BD00080140004400404A
:104DC0006C0002409A01002070B500240D48FCF7E9
:104DD00087FFC0F5807085B20B480088A8420ED0CE
:104DE0000A4809490988445C07490988481CC117D1
:104DF00000EB11610912A0EB0121034A118020464A
:104E000070BD00006C0002406C0000209A01002080
:104E100070B504460D4603E014F8010B00F006F8E7
:104E2000281EA5F101018DB2F6D170BD10B5044662
:104E300000BF8021044800F037F80028F9D021464F
:104E4000014800F0FEF810BD0044004070B5054672
:104E50000C462846FFF76CFE2046FFF735FF70BD75
:104E600010B50022002340F66A14A14200D100BF11
:104E70000A1201249440A3B2DC43048010BD21B186
:104E8000828942F40052828104E082894DF6FF73E8
:104E90001A40828170471AB1838A0B43838202E0F1
:104EA000838A8B438382704702460020B1F5007FDE
:104EB00000D100BF13880B400BB1012000E000209F
:104EC000704770B50246002400230025002040F6FC
:104ED0006A16B14200D100BFC1F3421501F01F03B1
:104EE000012606FA03F3012D02D19689334006E02C
:104EF000022D02D1168A334001E0968A33400C120B
:104F0000012606FA04F41688344013B10CB10120CE
:104F100000E0002070BDF0B5034600240026002507
:104F2000002040F66A17B94200D100BF1846C1F30D
:104F3000421401F01F06012707FA06F5012C01D1E2
:104F40000C3004E0022C01D1103000E014301AB112
:104F500007682F43076002E00768AF430760F0BDB2
:104F60002DE9F04786B005460E460024A24600BF54
:104F7000A1460027B08900B100BF2F462C8A4CF60D
:104F8000FF700440F08804432C82AC894EF6F31085
:104F90000440B08831890843718908430443AC81D7
:104FA000AC8A4FF6FF400440B0890443AC8201A8AC
:104FB000FFF7D4F91F48874202D1DDF810A001E0C5
:104FC000DDF80CA0A88900F4004040B10AEBCA004B
:104FD00000EB0A1031684900B0FBF1F807E00AEB7A
:104FE000CA0000EB0A1031688900B0FBF1F86420B8
:104FF000B8FBF0F004012009642101FB1089A889A5
:1050000000F4004040B1322000EBC900B0FBF1F0E9
:1050100000F00700044308E0322000EB091064218F
:10502000B0FBF1F000F00F0004432C8106B0BDE8A6
:10503000F08700000038014001468888C0F308006E
:105040007047C1F308028280704700BFFEE741004D
:10505000080218BF04200A0E18BF40F001004FF0EC
:105060007F4232EA010108BF40F00200012808BF78
:1050700005207047012100F044BF00F005BB00216E
:10508000084600F075BB6FF05E01080700F039BFFD
:1050900030380A2801D201207047002070470000F4
:1050A0002DE9F04104464FF00E4000EB4400B0F112
:1050B000506F204655D84FF0FC41B1EB440F1CD245
:1050C00024F000404FF07E5100F0E1FD4FF0FF3141
:1050D00000F017FF054600F0C1FA14F0004F1DBFA5
:1050E0002F4F304E80F000402F4F08BF2F4E4FF013
:1050F000404100F0CFFC044605E000273E46014653
:1051000000F0C8FC05462A49284600F0C3FC29499E
:1051100000F0BAFA294600F0BDFC274900F0B4FAC5
:10512000294600F0B7FC254900F0AEFA294600F008
:10513000B1FC234900F0A8FA80462946204600F039
:10514000A9FC414600F0A6FC05463146204600F089
:105150009BFA294600F098FA3946BDE8F04100F084
:1051600093BA4FF0E441B1EB440F08D9FFF76FFF5A
:10517000042808BFFFF787FF2046BDE8F0814FF005
:105180007F41B1EB440F03D2BDE8F041FFF772BF9E
:105190000120FBF764FBBDE8F041FFF770BF0000A2
:1051A0000000C9BF22AAFDB90000C93F22AAFD39EB
:1051B00024FE1C3DC78AD83C1E67383D1B93993D91
:1051C000AFAA2A3E2DE9F0474FF0684202EB4003B8
:1051D0000C460546B3F1654F3CBF02EB4102B2F10C
:1051E000654F80F0CD8000BFC0F3C752C1F3C753F5
:1051F000D21A1B2A06DD10F0004F14BF87488848DA
:10520000BDE8F08712F11A0F2FDA11F0004F06D027
:1052100010F0004F0CBF83488348BDE8F08721465B
:10522000284600F0A5FA0646FFF711FF042808BF3C
:10523000FFF729FF2846FFF70AFF05462046FFF73C
:1052400006FF04463046FFF702FF042D18BF052D68
:1052500008D1042C18BF052C04D1002804BF02205B
:10526000FBF7FDFA3046BDE8F0874200B2EB410F94
:1052700025D910F0004F19BF6C4F6D4E6D4F6E4E1B
:10528000224685F0004415460A4680F0004110464B
:105290000A1A5200B2F1807F3ED248406749DFF8D7
:1052A000A0A110F0004F18D04FF03F48384600F052
:1052B00081FD07465146304600F07CFD17E011F0B5
:1052C000004F04BF00263746E2D010F0004F19BF50
:1052D0005C4F5D4E5D4F5E4EDAE74FF07C583846CE
:1052E00000F0D2F907465146304600F0CDF90646A7
:1052F0004146284600F0CEFB214600F0C5F9824623
:105300002146404600F0C6FB294600F0C0FC51464D
:1053100000F02EFA044604E02146284600F028FA60
:105320000446014600F0B6FB80464A4900F0B2FB55
:10533000494900F0A9F9414600F0ACFB474900F0AB
:10534000A3F9414600F0A6FB454900F09DF941460E
:1053500000F0A0FB434900F097F90546414620467E
:1053600000F098FB294600F095FB314600F08CF9DF
:10537000214600F089F93946BDE8F04700F084B9CC
:105380004FF07F42B2EB400F28BFB2EB410F03D288
:10539000BDE8F047FFF771BE40EA01035B0008BFBC
:1053A00044F0FF410AD0B2EB400F08BFB2EB410F0F
:1053B00006D125F0804024F0804105460C4613E7D5
:1053C000B2EB400F12BF5FEA410345F0FF4004F02B
:1053D00000413FF409AFB2EB410F12BF5FEA400258
:1053E00005F0004044F0FF413FF4FEAE4A0092EA6F
:1053F00040033FF5F9AE002AACBF4FF09F464FF097
:105400003E56314600F046FB05463146204600F048
:1054100041FB044628462146E6E60000DB0FC9BFF3
:10542000DB0FC93FDB0F4940DB0F49C00000C9BF9C
:1054300022AAFDB90000C93F22AAFD390060ED3E55
:10544000C30ACE37000049C022AA7DBA00004940F5
:1054500022AA7D3A2DAD65BD8FB8D53D0FB511BEE1
:1054600061C84C3EA8AAAABEFFF7AEF8FCF7B0FC94
:105470004FF4E1310846FFF7E9FC4FF47A70FCF78E
:1054800053FCFEF775FBFEF7E1FA36A20121084650
:10549000FEF74FFC37A201210220FEF74AFC39A299
:1054A00001210320FEF745FCFCF79EFD012834D1C5
:1054B000FEF7CCFA37A201210846FEF73AFC39A2E2
:1054C00001210220FEF735FC3AA201210320FEF75C
:1054D00030FC3CA201210420FEF72BFC4FF47A7033
:1054E000FCF722FCFEF7B2FA3AA201210846FEF7C9
:1054F00020FC3AA201210220FEF71BFC3AA2012166
:105500000320FEF716FC39A204210320FEF711FC4C
:105510001B213AA0FFF77CFC15E0FEF797FA3EA2AC
:1055200001210846FEF705FC3FA201210220FEF7FB
:1055300000FC42A201210320FEF7FBFB43A2012154
:105540000420FEF7F6FBFBF76DFD0AE0FEF740FED8
:10555000FEF7B0FDFCF7E2FAFBF740FF0220FCF794
:10556000E3FBF3E74553503832363620426F6F7411
:105570002E2E2E00436F6E6E656374696E67205722
:1055800069466900506C6561736520576169742EC6
:105590002E2E20005769466920436F6E6E65637436
:1055A0006564210054435020536572766572204F24
:1055B0004B000000506173732D5468727520526562
:1055C0006164790057616974696E67204461746130
:1055D0002E2E2E0057494649000000005265646D8A
:1055E00069204B373000000049503A0031302E32EC
:1055F00034352E3135392E313735000048656C6C25
:105600006F2053657276657221204920616D2053A9
:10561000544D33322E0D0A0045535020436F6E66B1
:105620006967204641494C00312E436865636B2011
:1056300041542B43574A415000000000322E43682A
:1056400065636B205443502049500000332E52654F
:1056500073657420426F61726400000070B5054686
:1056600000F020FB044620F00040C0F1FF40C00FD6
:1056700008D025F00040C0F1FF40C00F04BF01205A
:10568000FBF7EDF8204670BD90EA010F48BF81F0AE
:10569000004100F19683421A3CBF801A89184FEAF4
:1056A000D0524FF07F4C1CEA410FA2EBD15318BFF0
:1056B0009CEA026F00F03B804FF0004C4CEA002067
:1056C0004CEA012121FA03FC10EB0C0C1ED202F172
:1056D000FF325FEA1C2040EBC25038BF70471CF01D
:1056E0007F0F4FEA400C18BFBCF17F4F38BF7047A7
:1056F000C3F12003994008BF20F00100BCF17F4FA7
:1057000038BF7047A0F1C04000F08BBA4FEA3C00B0
:10571000000A40EBC25028BF1CF0FF0F4FEA400CBC
:10572000E6D018BFBCF17F4F38BF7047EAE79CEA6C
:10573000026F05D010EA5C0F08BF00F00040704710
:1057400010B500F028FA00BF64FBBE3E014800F02F
:10575000A6BB00BF0000C07F401058BFC0F1404052
:10576000491058BFC1F140418142EFF300807047BA
:105770004FF47F0C1CEAD0121EBF1CEAD11392EA30
:105780000C0F93EA0C0F00F0858090EA010F48BFE0
:1057900042F4807240F4000C41F400002CF07F4190
:1057A00020F07F4000B58142A2EB03020FF2081CFB
:1057B000ACEB504EC0F100009EF800E04FEA4E0EF8
:1057C00000FB0EFC38BF49004FEA2C1C02F5FA0220
:1057D0000CFB0EF34FEACE1E4FEA112C4FEAC1210B
:1057E0000EEB635E42EB22420EFB0CFC4FEA1C53B5
:1057F00000FB03114FEA112C4FEA01310EFB0CFCA8
:105800004FEADC4C00FB0C11C14228BF09184CEBDD
:1058100003335DF804EB10EB410143EBC250B2F5EA
:105820007C0F38BF704729D512F0F00F1CBF00F174
:10583000C04000F0004070470081828384858687E5
:1058400088898B8C8D8E8F919293959697999A9C3F
:105850009D9FA0A2A3A5A7A8AAACAEB0B2B3B5B7AE
:10586000B9BCBEC0C2C5C7C9CCCED1D4D7D9DCDF84
:10587000E2E6E9ECF0F3F7FAFE0000004FEA400C34
:105880000CF1807CBCF17E4F28BF7047B0F1C04066
:1058900000F0C7B990EA010F0CEAD11348BF42F4F7
:1058A0008072624538BF634507D213F47F0F16D06C
:1058B00080EA010000F00040704710B500F06BF97D
:1058C000097EFC3E00F005B880EA010000F00040CF
:1058D000704780EA010000F0004000F0A2B912F425
:1058E0007F0F04BF0248704780EA010000F099B9B9
:1058F0000000C07F50EA010C00F113801CF5000F7E
:1059000058BFBCF5000F01D48842704707D710F587
:10591000000F58BF11F5000F15D488427047894217
:1059200070471CF5000F04D5BCF5000FF7D5814278
:1059300070474FF0807C1CEB400F38BF1CEB410FD1
:1059400001D28142704710B500F025F99224490038
:105950004FF000504FF08051FFF7FEBE41000B0E9C
:10596000D3F19E0208D950F400034FEA032323FA2F
:1059700002F048BF4042704710B500F00CF900BF7C
:1059800049922480002070476FF0004282EA200094
:1059900070470000C10DD1F19E0206DB4FEA0023E3
:1059A00043F0004323FA02F07047004207D54FEA64
:1059B0004001B1F1FE4F02D24FF00000704710B528
:1059C00000F0E9F849922480002070476FEA200037
:1059D0007047000010F0004148BF4042B0FA80F329
:1059E00010FA03F2C3F19D030BD051EAC35101EB4E
:1059F0001220530638BF704700F1010008BF20F0A5
:105A000001007047B0FA80F310FA03F2C3F19D036E
:105A10000AD0D90501EB1220530638BF704700F1B8
:105A2000010008BF20F001007047000050EA010C9F
:105A300000F113801CF5000F58BFBCF5000F01D416
:105A40008842704707D710F5000F58BF11F5000FB7
:105A500015D488427047894270471CF5000F04D561
:105A6000BCF5000FF7D5814270474FF0807C1CEBEE
:105A7000400F38BF1CEB410F01D28142704710B577
:105A800000F089F8922449004FF000504FF0805107
:105A9000FFF762BE4FF47F0C1CEAD0121EBF1CEA57
:105AA000D11392EA0C0F93EA0C0F00F0478090EAB2
:105AB000010F48BF42F480724FF0004C4CEA0020C6
:105AC0004CEA012102EB0302A0FB0113A2F5000244
:105AD000002918BF43F001035B0028BF4FEA3303DE
