:020000040800F2
:10000000B00B0020DD010008012A00082B1E0008AB
:1000100033290008810D00088F3E00080000000011
:10002000000000000000000000000000493400084B
:10003000D10F000800000000BD3000087D35000829
:10004000F7010008F7010008F7010008F7010008B0
:10005000F7010008F7010008F7010008F7010008A0
:10006000F7010008F7010008F7010008F701000890
:10007000F7010008F7010008F7010008F701000880
:10008000F7010008F7010008F7010008F701000870
:10009000F7010008F7010008F7010008F701000860
:1000A000F7010008F7010008F7010008F701000850
:1000B000F7010008F7010008F7010008F701000840
:1000C000F7010008F7010008F7010008F701000830
:1000D000F701000825390008D13A0008F7010008A7
:1000E000F7010008F7010008F7010008F701000810
:1000F000F7010008F7010008F7010008F701000800
:10010000F7010008F7010008F7010008F7010008EF
:10011000F7010008F7010008F7010008F7010008DF
:10012000F7010008F7010008F7010008F7010008CF
:1001300000F002F800F042F80AA090E8000C8244B7
:100140008344AAF10107DA4501D100F037F8AFF294
:10015000090EBAE80F0013F0010F18BFFB1A43F0A5
:10016000010318477052000090520000103A24BF5B
:1001700078C878C1FAD8520724BF30C830C144BF0C
:1001800004680C607047000000230024002500264E
:10019000103A28BF78C1FBD8520728BF30C148BFEA
:1001A0000B607047642900F09D80732900F029835B
:1001B000002070471FB51FBD10B510BD00F02EFB0D
:1001C0001146FFF7F7FF04F071F800F04CFB03B4A1
:1001D000FFF7F2FF03BC00F04FFB00000948804727
:1001E00009480047FEE7FEE7FEE7FEE7FEE7FEE719
:1001F000FEE7FEE7FEE7FEE704480549054A064B31
:10020000704700008135000831010008B00500206A
:10021000B00B0020B0070020B00700200FB41CB5C1
:10022000074B06AA7B4469460090059800F0BFFA88
:100230000020694600F0CEFA1CBC5DF814FB0000FB
:10024000AD05000070B5044685690068C10601D59A
:10025000302600E02026C00707D070BDD4E9012178
:1002600030469047206A401C20626D1EF6D570BD56
:1002700070B5044685690078C00707D170BDD4E920
:10028000012120209047206A401C20626D1EF6D577
:1002900070BD70B50C460546012A05D02878800649
:1002A00000D5EA69002302E0012305E05B1C9342CC
:1002B00002D2E05C0028F9D1A869E618C01AA8614A
:1002C000286A184428622846FFF7BCFF04E0D5E9F5
:1002D000012114F8010B9047B442F8D32846FFF7E8
:1002E000C7FF70BD2DE9F04106460024106875294E
:1002F000314616A510D0AFF30080002802DA404244
:1003000013A507E031688A0701D512A502E0490765
:1003100004D511A5012401E0AFF3008000210A22D9
:1003200006F1240709E0B0FBF2FCB0FBF2F302FB9C
:100330001C00303078541846491C0028F3D123465D
:100340002A463046BDE8F04100F0D2B90000000076
:100350002D0000002B000000200000002DE9F047D8
:100360004FF0000A89460446C0F820A02046E16804
:100370008847002876D0252806D0D4E90121904767
:10038000206A401C2062F1E7E16820460026884789
:10039000C4F81CA005460027C4F818A02A2D09D0CF
:1003A000284603F097FD38B304EB8708303DC8F8C2
:1003B000185019E059F8041B204604EB870291619C
:1003C000E1688847012F054618D1E069002820DA46
:1003D00026F020061DE0D8F8180000EB800005EBA1
:1003E00040003038C8F818002046E16888470546C4
:1003F00003F070FD0028EED1012F0AD02E2D08D178
:100400002046E16888477F1C0546022F46F02006FB
:10041000C4DBA069002803DA404246F00106A0616F
:10042000F00701D026F010066C2D0AD0682D08D0F8
:100430004C2D39D06A2D35D0742D35D07A2D33D04E
:1004400016E0E1682F4620468847B84205460AD1A3
:100450006C2F27D04FF48060E16806432046884720
:10046000054605E027E06C2F1AD04FF48070064354
:100470000DB3A5F14100192802D8203546F40066D5
:100480004A462946204626604E46FFF78BFE80B13D
:1004900001280BD0F61D26F0070000F1080965E7DA
:1004A0004020E4E78020D7E70020D5E706F10409E3
:1004B0005CE7284661E7206ABDE8F08730B505466D
:1004C0000B462A4613F8014B12F8010B08B1A04263
:1004D000F8D01CB1002802D06D1CF1E7284630BDD1
:1004E00010B5431C02E010F8011B71B18107FAD16D
:1004F0004FF0013202C88C1A8C4314EAC211F9D0B1
:10050000C01A0A0603D0C01E10BDC01A10BD0A04CE
:1005100001D0801E10BD0902FCD0401E10BD032A70
:1005200040F2308010F0030C00F0158011F8013B10
:10053000BCF1020F624498BF11F801CB00F8013BF7
:1005400038BF11F8013BA2F1040298BF00F801CBBB
:1005500038BF00F8013B11F0030300F02580083A92
:10056000C0F0088051F8043B083A51F804CBA0E8E9
:100570000810F5E7121D5CBF51F8043B40F8043B3E
:10058000AFF30080D20724BF11F8013B11F801CB73
:1005900048BF11F8012B24BF00F8013B00F801CB44
:1005A00048BF00F8012B704710B5203AC0F00B800F
:1005B000B1E81850203AA0E81850B1E81850A0E867
:1005C0001850BFF4F5AF5FEA027C24BFB1E81850C1
:1005D000A0E8185044BF18C918C0BDE810405FEA31
:1005E000827C24BF51F8043B40F8043B08BF7047AD
:1005F000D20728BF31F8023B48BF11F8012B28BFB2
:1006000020F8023B48BF00F8012B7047431A28BF6F
:100610009A427FF6C9AF104410F0030F11441EBF79
:1006200011F8013D521E00F8013D10F0030F7FF458
:10063000F6AF103AC0F00A8010B531E91850103A00
:1006400020E91850BFF4F9AFBDE81040530724BFAC
:1006500031E9081020E9081044BF51F8043D40F882
:10066000043D12F0030F08BF7047D20728BF31F8CE
:10067000023D48BF11F8012C28BF20F8023D48BFB9
:1006800000F8012C70474FF0000200B51346944665
:100690009646203922BFA0E80C50A0E80C50B1F1DA
:1006A0002001BFF4F7AF090728BFA0E80C5048BFEE
:1006B0000CC05DF804EB890028BF40F8042B08BF8C
:1006C000704748BF20F8022B11F0804F18BF00F888
:1006D000012B704770477047704710B500F096F8CF
:1006E000006810BD10B5044600F090F8046010BD1D
:1006F0002DE9F0470D4699469246044600F124083C
:100700000168880604D5E06921F01001216000E04D
:100710000120A84201DD471B00E00027A1697A19EA
:1007200002EB0900081AA0612078C00602D4204616
:10073000FFF788FD002608E0D4E901211AF8060039
:100740009047206A401C761C20624E45F4DB2078DE
:10075000C0060AD52046FFF775FD06E0D4E9012161
:1007600030209047206A401C2062381EA7F1010704
:10077000F4DC07E0D4E9012118F805009047206A6D
:10078000401C2062281EA5F10105F3DC2046FFF77E
:100790006FFD2078000602D50220BDE8F087012019
:1007A000FBE7000001694A1C02610878704700B548
:1007B0008FB0CDE901310021059105497944CDE99A
:1007C000031011466846FFF7C9FD0FB000BD0000D9
:1007D000E5FFFFFF0A6802F8010B0A60704710B5D9
:1007E000436913B1AFF3008001E0FFF752FD012030
:1007F00010BD127800F124010A7000224A70012213
:10080000EDE711684FF0FF32E9E70000004870475C
:100810005005002000487047500500207546FFF73E
:10082000F9FFAE4605006946534620F007008546AD
:1008300018B020B5FFF7E0FCBDE820404FF00006FF
:100840004FF000074FF000084FF0000B21F00701B8
:10085000AC46ACE8C009ACE8C009ACE8C009ACE8FB
:10086000C0098D46704710B50446AFF3008020469E
:10087000BDE81040FFF7ABBC01491820ABBEFEE756
:10088000260002007047000070B50446ECB10F4925
:1008900008680F4903F0EAFF054603F07FFF00B246
:1008A00020800A4948680A4903F0E0FF054603F042
:1008B00075FF00B2608005498868054903F0D6FFDE
:1008C000054603F06BFF00B2A08070BD540200200B
:1008D0000000C84210B5044801F0C8FF18B9034928
:1008E000014801F0BDFC10BD440200200AD7233CA2
:1008F0002DE9F04104460B49204603F059FE80469D
:10090000094903F0B3FF0746084903F0DDFD064639
:100910004FF07C5103F0D8FD054603F05BFF80B239
:10092000BDE8F081000034430000FA440000FA43BF
:1009300010B502F047FA10BD10B504460348047024
:100940000146087802F088FA10BD00003F00002040
:1009500010B5002002490870087802F07DFA10BD39
:100960003F00002010B501F047FC10BD10B500F0AD
:1009700061F8FFF7F7FF00F0B9F8FFF7D9FF00F0D3
:10098000A9F800F011FA01200149487110BD0000DA
:100990002800002002460A2947D2DFE801F0460578
:1009A0000C141B222A31383FC2EBC200204B03EB50
:1009B000800040887047C2EBC2001D4B03EB8000F3
:1009C000B0F90400F6E7C2EBC200194B03EB80005C
:1009D000C088EFE7C2EBC200154B03EB80008068D4
:1009E000E8E7C2EBC200124B03EB8000B0F90C0049
:1009F000E0E7C2EBC2000E4B03EB80000069D9E7D1
:100A0000C2EBC2000A4B03EB80004069D2E7C2EBA5
:100A1000C200074B03EB8000007ECBE7C2EBC200B5
:100A2000034B03EB8000407EC4E70020C2E70000D8
:100A30008C00002010B538210548FFF724FE012066
:100A40000349087002200877024802F039FB10BD04
:100A50008C0000207D0A000838B504468DF800405F
:100A600043208DF801007A208DF802006B208DF86C
:100A700003000421684602F0EDFF38BD70B504465E
:100A8000FF252078012801D1002503E020780228E5
:100A900000D10125FF2D00D170BD6078432805D11C
:100AA00094F82220A11C284602F062FA00BFF3E766
:100AB00020B103490A68026049684160704700003C
:100AC0003600002010B1024909780170704700001B
:100AD0003E0000200348002101604160024801708F
:100AE00070470000360000203E00002010B502F0E4
:100AF000C7F910BD70B504460D46022C08DA0B4844
:100B000000EB44004570611CC8B2294602F014FA9B
:100B100054B906484570C5702946012002F00CFA08
:100B20002946022002F008FA70BD000040000020B3
:100B300010B586B078480068401C774908600846C0
:100B400000680A21B0FBF1F201FB120070B9FFF757
:100B5000C1FE72480078FFF77FFF704800780128D7
:100B600001D1022000E001206C4908706C484078F7
:100B7000012828D104A8FFF787FE5A208DF8080025
:100B8000BDF81000C0B28DF80900BDF81000000AD1
:100B90008DF80A00BDF81200C0B28DF80B00BDF848
:100BA0001200000A8DF80C00BDF81400C0B28DF8D8
:100BB0000D00BDF81400000A8DF80E00072102A8F0
:100BC00002F0DAFA00BF5648807801281BD15B207A
:100BD0008DF800001C2253490DF10100FFF79FFC26
:100BE0001821684602F0C8FA5B208DF800001C222C
:100BF0004C491C310DF10100FFF791FC18216846AA
:100C000002F0BAFA00BF4648C078012813D15C2030
:100C10008DF81000444840788DF811004248C078A3
:100C20008DF81200414800788DF81300052104A8C2
:100C300002F0A2FA00BF3A480078012802D0022848
:100C400065D135E03AA20121084602F086F83CA2BF
:100C50000121022002F081F83A49086803F09EFD64
:100C600004B2032322460421022002F043F836A2F4
:100C70000121032002F071F83249486803F08EFD2B
:100C800004B2032322460421184602F033F82FA2AF
:100C90000121042002F061F82A49886803F07EFDF2
:100CA00004B2032322460421084602F023F82FE071
:100CB0001C4827A1026902A8FFF7B0FA02AA012185
:100CC000084602F04AF81748B0F90C2023A102A800
:100CD000FFF7A4FA02AA0121022002F03EF811480F
:100CE00021A1C26A02A8FFF799FA02AA01210320F2
:100CF00002F033F80B48B0F928201EA102A8FFF734
:100D00008DFA02AA0121042002F027F800E000BFBA
:100D100000BF06B010BD00003000002034000020ED
:100D2000280000208C000020400000203F00002010
:100D30004D5055204174746974756465000000005D
:100D4000523A000054020020503A0000593A000084
:100D50004D3120506F733A25366C64004D3120566A
:100D6000656C3A25346400004D3220506F733A258B
:100D7000366C64004D322056656C3A2534640000B0
:100D800000BFFEE710B501468A788878801EC3B29E
:100D9000002005E0CC1C245C1444E2B2441CA0B248
:100DA0009842F7DB104610BD10B501F01BFE02485B
:100DB00002F0D8F910BD0000BD0D000810B50446C2
:100DC000204601F0E1FD10BDF0B591B0684601F09C
:100DD000B3FD20B39DF80200032820DB9DF80350EB
:100DE00001AE9DF80200C01EC7B2002413E00D48FA
:100DF00010F83400A8420CD10A4800EBC400406847
:100E000038B1084800EBC400394642683046904784
:100E100003E0601C84B21E2CE9D300BF00BF11B0F8
:100E2000F0BD0000E452000821B1026842F0010266
:100E3000026004E002684FF6FE731A4002607047D9
:100E400001684FF6FE7211400160002101604160AF
:100E50008160C1604B49884208D14A4908394968D4
:100E600041F00F01474A083A51608AE04549143180
:100E7000884208D143490839496841F0F001414AA4
:100E8000083A51607DE03F492831884208D13D4908
:100E90000839496841F470613A4A083A516070E093
:100EA00038493C31884208D136490839496841F40B
:100EB0007041344A083A516063E032495031884207
:100EC00008D130490839496841F470212D4A083A5F
:100ED000516056E02B496431884208D129490839CC
:100EE000496841F47001274A083A516049E02549B0
:100EF0007831884208D123490839496841F0706146
:100F0000204A083A51603CE01F49884206D1011F3F
:100F1000096841F00F01021F116032E01A491431D3
:100F2000884208D11849091F096841F0F001164AA2
:100F3000121F116025E014492831884208D1124956
:100F4000091F096841F470610F4A121F116018E00F
:100F50000D493C31884208D10B49091F096841F409
:100F60007041094A121F11600BE007495031884255
:100F700007D10549091F096841F47021024A121F6F
:100F800011607047080002400804024001464868AA
:100F900080B2704710B50022026847F6F0739A439A
:100FA0000C6A8B6823430C6923434C6923438C6987
:100FB0002343CC6923434C6A23438C6A23431A435B
:100FC0000260CB6843600B6883604B68C36010BDF0
:100FD000704700000146114A12884A434FF0E0234F
:100FE0005A6100229A611A46126942F001021A619E
:100FF00000BF4FF0E022106900F001021AB100F4C6
:101000008032002AF5D04FF0E022126922F001026E
:101010004FF0E0231A6100229A61704746000020D9
:101020000146114A12884A434FF0E0235A610022D8
:101030009A611A46126942F001021A6100BF4FF02C
:10104000E022106900F001021AB100F48032002A97
:10105000F5D04FF0E022126922F001024FF0E023B8
:101060001A6100229A6170474400002000B5A1B0C7
:10107000C820FFF7AFFF032136A002F0EBFD4FF4CD
:101080007A70FFF7A7FF4FF4FA7233A133A000F094
:10109000E3F84FF4FA7230A132A000F0DDF84FF41B
:1010A0007A722DA131A000F0D7F810B9002021B03C
:1010B00000BD32A334A237A101A8FFF7AFF842F276
:1010C000107225A101A800F0C7F840B94FF4FA72D8
:1010D00036A1002000F0C0F808B90020E7E74FF47F
:1010E000FA721DA133A000F0B7F84FF4FA72002194
:1010F00034A000F0B1F84FF4FA70FFF76BFF35A39E
:1011000036A23AA101A8FFF789F841F2883212A16C
:1011100001A800F0A1F840B94FF47A723AA100207A
:1011200000F09AF808B90020C1E74FF47A720AA1DA
:101130003AA000F091F808B90020B8E74FF47A72AD
:101140003AA13BA000F088F808B90020AFE70120E1
:10115000ADE700002B2B2B004F4B000041540D0A34
:1011600000000000415445300D0A000041542B435B
:10117000574D4F44453D310D0A000000343437309F
:1011800034343730000000005265646D69204B37FD
:101190003000000041542B43574A41503D222573F3
:1011A000222C222573220D0A00000000474F5420F4
:1011B0004950000041542B4349504D55583D300D86
:1011C0000A00000041542B434950434C4F53450DF6
:1011D0000A000000333435360000000031302E3173
:1011E000392E35302E3137350000000041542B4365
:1011F000495053544152543D22544350222C2225ED
:1012000073222C25730D0A00414C5245414459204C
:10121000434F4E4E454354454400000041542B4338
:1012200049504D4F44453D310D0A00003E0000003D
:1012300041542B43495053454E440D0A00000000D1
:1012400010B508E0FFF712FF012800D110BD4FF4E0
:101250007A70FFF7BFFEF5E72DE9F043A1B0054630
:101260000E4617460024802101A8FFF70CFA01E082
:1012700002F0CCFC02F00CFC0028F9D145B1284664
:10128000FFF72EF91FFA80F84146284602F0E2FCEB
:101290001EB9012021B0BDE8F0834FF0000824E022
:1012A0000120FFF797FE1AE002F0B0FC81467F2C88
:1012B00005D3202209A901A8FFF7A8F92024204678
:1012C000611C8CB201A901F800900020085531463C
:1012D00001A8FFF7F3F808B10120DBE700BF02F037
:1012E000D7FB0028E0D108F10108B845D8D3002089
:1012F000D0E77FB506460C461546002000900190C9
:10130000029003908DF80060F3208DF80100AB206F
:101310008DF802008DF803408DF804506B208DF895
:1013200005000621684602F095FB7FBD7FB50646A5
:101330000C461546002000900190029003908DF815
:10134000006046208DF8010069208DF802008DF8BC
:1013500003408DF804506B208DF805000621684687
:1013600002F078FB7FBD1FB504460020009001907D
:10137000029003908DF800409C208DF801004820D9
:101380008DF802006B208DF803000421684602F0FE
:1013900061FB1FBD2DE9F04F89B005460E4617468B
:1013A000984613AC94E8100E202101A8FFF76BF9C2
:1013B0008DF804504C208DF80500AE208DF8060005
:1013C0008DF807608DF808708DF80980129800126A
:1013D0008DF80A001298C0B28DF80B00200E8DF81F
:1013E0000C00200C8DF80D00200A8DF80E00E0B2E4
:1013F0008DF80F004FEA29208DF8100009F0FF004A
:101400008DF811004FEA2A208DF812000AF0FF0033
:101410008DF813004FEA2B208DF814000BF0FF001D
:101420008DF8150017988DF816006B208DF81700B1
:10143000142101A802F00EFB09B0BDE8F08F7FB5C2
:1014400005460C46002000900190029003908DF814
:10145000005093208DF8010088208DF802008DF84F
:1014600003406B208DF804000521684602F0F2FA73
:101470007FBD7FB506460C461546002000900190C2
:10148000029003908DF800609A208DF801008DF88D
:1014900002408DF803506B208DF80400052168464A
:1014A00002F0D8FA7FBD2DE9FF4706460F461546E4
:1014B0009846DDE90D9A0C9C002000900190029066
:1014C00003908DF80060FD208DF801008DF802700A
:1014D00028128DF80300E8B28DF804008DF805801D
:1014E000200E8DF80600200C8DF80700200A8DF8DC
:1014F0000800E0B28DF809008DF80A908DF80BA075
:101500006B208DF80C000D21684602F0A3FABDE8AF
:10151000FF871FB5044600200090019002900390C1
:101520008DF800400E208DF8010052208DF8020049
:101530006B208DF803000421684602F08BFA1FBD72
:101540001FB50446002000900190029003908DF892
:1015500000400A208DF801006D208DF802006B20FC
:101560008DF803000421684602F074FA1FBD7FB5B0
:1015700005460C46002000900190029003908DF8E3
:101580000050FE208DF8010098208DF802008DF8A3
:1015900003406B208DF804000521684602F05AFADA
:1015A0007FBD1FB50446002000900190029003907B
:1015B0008DF80040FF208DF8010066208DF80200B4
:1015C0006B208DF803000421684602F043FA1FBD2A
:1015D0002DE9FF4105460F4614461E46DDF82880DA
:1015E000002000900190029003908DF80050F620AA
:1015F0008DF801008DF8027020128DF80300E0B222
:101600008DF804008DF805608DF806806B208DF84C
:1016100007000821684602F01DFABDE8FF812DE9A8
:10162000F041024600250026002000230024002768
:1016300091F803C00CF00F0591F803C00CF0100CEA
:10164000BCF1000F03D091F802C04CEA050591F8F7
:1016500000C0BCF1000F31D0146800202BE04FF027
:10166000010C0CFA00F3B1F800C00CEA03069E422C
:1016700020D183004FF00F0C0CFA03F7BC4305FA9E
:1016800003FC4CEA040491F803C0BCF1280F06D116
:101690004FF0010C0CFA00FCC2F814C00AE091F8FB
:1016A00003C0BCF1480F05D14FF0010C0CFA00FC4F
:1016B000C2F810C0401C0828D1D31460B1F800C093
:1016C000BCF1FF0F34DD546800202EE000F1080C5F
:1016D0004FF0010808FA0CF3B1F800C00CEA030659
:1016E0009E4221D183004FF00F0C0CFA03F7BC434C
:1016F00005FA03FC4CEA040491F803C0BCF1280F7E
:1017000005D100F1080C08FA0CF8C2F8148091F821
:1017100003C0BCF1480F07D100F1080C4FF00108DD
:1017200008FA0CF8C2F81080401C0828CED3546088
:10173000BDE8F0810246002093680B400BB1012008
:1017400000E00020704741617047016170470AB1B5
:10175000016100E04161704770B504460E46012EFC
:1017600000DA70BD25782846FFF7E6F86D210020E5
:1017700001F06CFE00BFF4E770B504460D46FFF7BC
:10178000E7F86E21002001F061FE70BD2DE9F04107
:1017900004460D46032D01DABDE8F0812678607815
:1017A00008B1012000E000200746A07808B1012020
:1017B00000E000208046B8F1000F01D0012000E0D9
:1017C000002002460FB1012000E000200146304613
:1017D000FFF78FFD2078602101F038FE00BFDBE7C6
:1017E0002DE9F04104460D46032D01DABDE8F081F4
:1017F0002678607808B1012000E000208046A778B4
:101800003A4641463046FFF791FD2078692101F0C4
:101810001DFE00BFEAE770B504460D4600F0A8FCC7
:101820007121002001F012FE70BD000070B5044669
:101830000D46012D00DA70BD2078044948707221F0
:10184000002001F003FE00BFF5E7000028000020A3
:1018500070B504460D46012D00DA70BD267830467D
:10186000FFF781FD2078682101F0F0FD00BFF4E76B
:101870002DE9F04F8BB004460D46112D02DA0BB066
:10188000BDE8F08F2678607808B1012000E00020E4
:101890000A90A77894F803806079217940EA0129B9
:1018A000607A217A40EA0120E17940EA0140A17999
:1018B00040EA016AE07AA17A40EA012B607B217B51
:1018C00040EA01200990E07BA17B40EA01200890DA
:1018D000207C08B1012000E00020079007A807C87D
:1018E00043468DE8000ECDE9032105903A46304687
:1018F0000A99FFF74FFD2078662101F0A7FD00BF90
:10190000BDE72DE9F04104460D46022D01DABDE8A0
:10191000F0812678607808B1012000E000200746B9
:101920000FB1012000E0002001463046FFF787FD9F
:101930002078652101F08AFD00BFE8E72DE9F0413C
:1019400004460D46032D01DABDE8F081267867785C
:10195000A07808B1012000E000208046B8F1000F17
:1019600001D0012000E00020024639463046FFF752
:1019700080FD2078672101F069FD00BFE4E70000E9
:1019800070B504460D46012D00DA70BD207804497B
:10199000C8707421002001F059FD00BFF5E7000078
:1019A000280000202DE9FF5F04460D460A2D01DACC
:1019B000BDE8FF9F2678607808B1012000E0002094
:1019C0000390E078A17840EA012794F80480207A17
:1019D000E17940EA0120A17940EA0140617940EAD9
:1019E0000169607A08B1012000E000208246A07AF7
:1019F00008B1012000E000208346BBF1000F01D0B8
:101A0000012000E00020BAF1000F01D0012100E028
:101A1000002143463A46CDE90091029030460399B1
:101A2000FFF741FD2078622101F010FD00BFBFE704
:101A300038B504460D4685208DF80000044800782E
:101A40008DF801000221684601F096FB38BD0000C8
:101A50003F00002030B585B004460D4603A8FFF7CF
:101A600027F882208DF800000398CDF80100049833
:101A7000CDF805000921684601F07EFB05B030BDB8
:101A80007CB504460D4601A8FFF71CF883208DF8AD
:101A900000009DF804008DF801000221684601F065
:101AA0006BFB7CBD7FB504460D4602A8FEF7ECFE3D
:101AB00080208DF80000BDF80800C0B28DF801004C
:101AC000BDF80800000A8DF80200BDF80A00C0B297
:101AD0008DF80300BDF80A00000A8DF80400BDF877
:101AE0000C00C0B28DF80500BDF80C00000A8DF89E
:101AF00006000721684601F03FFB7FBD30B589B085
:101B000004460D4605A800F0B1FE81208DF80400C2
:101B10000E2205A90DF10500FEF701FD0F2101A818
:101B200001F02AFB09B030BD7CB504460D46012DFD
:101B300000DA7CBD267826B1012E12D0022E28D1E3
:101B40001BE084208DF8000014480088ADF80100E7
:101B500012494988ADF803100521684601F00CFBD5
:101B600018E084208DF804000C480088ADF80500CA
:101B7000032101A801F000FB0CE084208DF8040093
:101B800006484088ADF80500032101A801F0F4FAE9
:101B900000E000BF00BF00BFCBE700004000002016
:101BA0002DE9FC4706460F46022F01DABDE8FC8707
:101BB0003078012801D0012000E0002081467578AE
:101BC00029464846FEF7E6FE04464FF00108872006
:101BD0008DF800000A2D2BD2DFE805F0050D0E0F61
:101BE00019101A1B060700BF00BFE0B28DF80100F4
:101BF0004FF002081DE000BF00BF00BFE0B28DF84B
:101C00000100200A8DF802004FF0030811E000BF28
:101C100000BFE0B28DF80100200A8DF80200200C10
:101C20008DF80300200E8DF804004FF0050800E049
:101C3000BCE700BF4146684601F09EFA00BFB5E729
:101C400070B586B004460D46002D06DD20780128CB
:101C500001D0012002E0002000E00020064686209E
:101C60008DF80000C6EBC600064A02EB80011C227C
:101C70000DF10100FEF753FC1821684601F07CFAD3
:101C800006B070BD8C00002070B504460D46012DD5
:101C900000DA70BD26783046FFF73BFC20786B21D8
:101CA00001F0D4FB00BFF4E770B504460D46012DEA
:101CB00000DA70BD26783046FFF742FC20786A21B2
:101CC00001F0C4FB00BFF4E770B505460C46012CDB
:101CD00003DB6F21002001F0B9FB70BD70B5044635
:101CE0000D46012D00DA70BD207804490871752178
:101CF000002001F0ABFB00BFF5E70000280000204A
:101D00002DE9F04104460F46022F01DABDE8F081CB
:101D10002578667831462846FEF7ECFE6C21284689
:101D200001F094FB00BFF1E770B504460D46012DAC
:101D300000DA70BD20780549087000F09BFE702124
:101D4000002001F083FB00BFF3E700002800002023
:101D500070B504460D46012D00DA70BD20780449A7
:101D600088707321002001F071FB00BFF5E70000CF
:101D7000280000202DE9F04104460D46022D01DA2D
:101D8000BDE8F0812678607808B1012000E00020ED
:101D900007460FB1012000E0002001463046FFF762
:101DA000E6FB2078632101F051FB00BFE8E770B546
:101DB00004460D46012D00DA70BD26783046FFF747
:101DC000F0FB2078642101F041FB00BFF4E72DE92E
:101DD000F84F04460D46062D01DABDE8F88F267847
:101DE000607808B1012000E000208146E078A17809
:101DF00040EA012794F80480607908B1012000E0EE
:101E000000208246BAF1000F01D0012000E000203E
:101E100043463A46494600903046FFF7D9FB2078C2
:101E2000612101F013FB00BFD7E700BFFEE7000010
:101E300010B540210A48FFF786FC80210848FFF7CB
:101E400082FC0220FFF7ECF840210548FFF77DFCFB
:101E50000220FFF7E5F840210148FFF774FC10BDB0
:101E6000000C014008B50121082001F073FAC020E0
:101E7000ADF8000003208DF8020014208DF8030057
:101E800069460648FFF7CBFB40210448FFF75DFC9D
:101E900080210248FFF759FC08BD0000000C0140FA
:101EA00010B540210A48FFF74EFC80210848FFF793
:101EB0004CFC0220FFF7B4F840210548FFF745FC31
:101EC0000220FFF7ADF840210148FFF73CFC10BDB0
:101ED000000C014070B50546002480211548FFF72D
:101EE00034FC002618E040211248FFF72CFC0220A9
:101EF000FFF796F840210F48FFF727FC6006040E15
:101F000080210C48FFF716FC08B1601CC4B2022007
:101F1000FFF786F8701CC6B2082EE4DB40210548A6
:101F2000FFF711FC15B9FFF7BBFF01E0FFF780FFDA
:101F3000204670BD000C014070B504464021144895
:101F4000FFF701FC002520E004F0800020B1802193
:101F50000F48FFF7FAFB03E080210D48FFF7F3FB82
:101F60006006040E0520FFF75BF840210848FFF7E4
:101F7000ECFB0520FFF754F840210548FFF7E3FB91
:101F80000520FFF74DF8681CC5B2082DDCDB70BDDD
:101F9000000C014010B580210B48FFF7D6FB402113
:101FA0000948FFF7D2FB0420FFF73AF880210648E2
:101FB000FFF7C9FB0420FFF733F840210248FFF781
:101FC000C2FB012010BD0000000C014010B58021B3
:101FD0000A48FFF7B8FB0420FFF722F84021074822
:101FE000FFF7B3FB0420FFF71BF880210348FFF73E
:101FF000ACFB0420FFF714F810BD0000000C0140FA
:1020000010B5002480211148FFF79FFB40210F48A5
:10201000FFF79BFB0520FFF703F80AE0601CC4B242
:10202000FA2C03DDFFF7D2FF012010BD0120FEF7DF
:10203000F7FF80210548FFF77DFB0028EED1402106
:102040000248FFF780FB0020EFE70000000C014092
:1020500070B505460E4614462346012231462846F1
:1020600000F001F870BD2DE9F0410646884615469E
:102070001F46FFF78FFF002141EA4601C8B2FFF774
:102080005BFFFFF7BDFF20B1FFF7A0FF0020BDE819
:10209000F0814046FFF750FFFFF7B2FF18B1FFF79E
:1020A00095FF0020F3E7FFF775FF012101EB4601E3
:1020B000C8B2FFF741FFFFF7A3FF18B1FFF786FF94
:1020C0000020E4E700240DE0681EA04204D10020B7
:1020D000FFF700FF385503E00120FFF7FBFE3855FE
:1020E000601CC4B2AC42EFDBFFF770FF2846CEE7BE
:1020F00037B504460D4602AB01222946204600F0C2
:1021000001F83EBD2DE9F04105460E4617469846BA
:10211000FFF740FF002141EA4501C8B2FFF70CFF7D
:10212000FFF76EFF20B1FFF751FF0020BDE8F081FF
:102130003046FFF701FFFFF763FF18B1FFF746FFD7
:102140000020F3E700240CE018F80400FFF7F4FE89
:10215000FFF756FF18B1FFF739FF0020E6E7601CD4
:10216000C4B2BC42F0DBFFF731FF0120DEE7000024
:1021700030B587B00020009001900290002421E04B
:1021800003A800F073FBBDF9140002F043FB054601
:10219000009902F099F90090BDF9160002F03AFB9F
:1021A0000546019902F090F90190BDF9180002F07E
:1021B00031FB0546029902F087F902900220FEF7F2
:1021C00009FF641CC82CDBDB0949009802F0F0F918
:1021D000084908600649019802F0EAF90549486093
:1021E0000349029802F0E4F90249886007B030BD63
:1021F000000048436002002008B5FFF733FE0020CE
:1022000000906946752000F077FB9DF80000682873
:1022100001D0012008BD80216B2000F081FB6420EB
:10222000FEF7D8FE00216B2000F07AFB0121192077
:1022300000F076FB03211A2000F072FB08211B201E
:1022400000F06EFB00211C2000F06AFB002123201F
:1022500000F066FB0021382000F062FB0020D9E787
:1022600003B59BB0FE4800681A90FD48406819907D
:10227000FB4880681890FA48C06817901B98B0F91E
:102280000000099002F0C6FA0F901B98B0F9020006
:10229000099002F0BFFA0E901B98B0F90400099063
:1022A00002F0B8FA0D901B98B0F90800069002F001
:1022B000B1FA0790EB48006801460690079802F0D3
:1022C00033FCE949089002F073F9E849099002F0FB
:1022D000CDFA0C901B98B0F90A00069002F09AFA19
:1022E0000790E048406801460690079802F01CFC01
:1022F000DD49089002F05CF9DC49099002F0B6FA79
:102300000B901B98B0F90C00069002F083FA07902E
:10231000D448806801460690079802F005FCD2492F
:10232000089002F045F9D149099002F09FFA0A900D
:1023300000210F9802F0FEF909D100210E9802F059
:10234000F9F904D100210D9802F0F4F97ED00D992D
:10235000084602F08BFA08900E99084602F086FAB9
:1023600006900F99084602F081FA0590069902F04E
:10237000ABF80790089902F0A7F8099002F08EF8E0
:10238000169016990F9802F013F90F9016990E985F
:1023900002F00EF90E9016990D9802F009F90D90C1
:1023A00018991A9802F062FA08901799199802F091
:1023B0005DFA0790089902F0B7FB4FF08041099051
:1023C00002F054FA1590DDE9171002F04FFA089068
:1023D000DDE9191002F04AFA0790089902F074F842
:1023E0004FF08041099002F041FA14901799084685
:1023F00002F03CFA09901899084602F037FA079063
:102400001999084602F032FA05901A99084602F026
:102410002DFA0490059902F087FB0690079902F0C7
:1024200083FB0890099902F04FF8139014990D98C6
:1024300002F01CFA099013990E9802F017FA08900E
:10244000099902F071FB1290139900E06EE00F9869
:1024500002F00CFA099015990D9802F007FA08900D
:10246000099902F061FB119015990E9802F0FEF99E
:10247000099014990F9802F0F9F90890099902F05F
:1024800053FB10907A49129802F0F0F909907948BC
:102490000168099802F018F87649086074491198A3
:1024A00002F0E4F9099074480168099802F00CF808
:1024B000714908606E49109802F0D8F909906F4888
:1024C0000168099802F000F86C4908604FF08040FC
:1024D000129902F0CBF9089066480168089801F05B
:1024E000F3FF09900C9901F0EFFF0C904FF0804042
:1024F000119902F0BBF908905F480168089801F053
:10250000E3FF09900B9901F0DFFF0B904FF0804043
:10251000109902F0ABF9089058480168089801F04A
:10252000D3FF09900A9901F0CFFF0A904FF07C5039
:102530001C9902F09BF908900A99179802F096F9F5
:1025400006900B99189802F091F90490199880F070
:10255000004002900C9902F089F90390049902F06E
:10256000E3FA0590069902F0DFFA0790089902F065
:102570007DF909901A9901F0A7FF1A904FF07C504D
:102580001C9902F073F908900B99179802F06EF9F4
:1025900006900A99189802F069F904900C991A9813
:1025A00002F064F90390049901F08EFF05900699FA
:1025B00002F0BAFA0790089902F058F909901999AF
:1025C00001F082FF19904FF07C501C9902F04EF9F7
:1025D00008900C99179802F049F906900A991998F1
:1025E00002F044F904900B991A9802F03FF9039015
:1025F000049902F099FA0590069901F065FF079099
:10260000089902F033F90990189901F05DFF1890CC
:102610004FF07C501C9902F029F908900C991898F9
:1026200002F024F906900B99199802F01FF9049012
:102630000A991A9802F01AF90390049901F044FFDC
:102640000590069902F070FA0790089902F00EF9C9
:102650000990179901F038FF1790179908460FE075
:1026600050000020600200200000834235FA8E3CBA
:102670000AD7A33B6000002064000020680000200F
:1026800002F0F4F808901899084602F0EFF8069066
:102690001999084602F0EAF804901A99084602F0DF
:1026A000E5F80390049901F00FFF0590069901F0F9
:1026B0000BFF0790089901F007FF099001F0EEFE6B
:1026C000169016991A9801F073FF654908601699DB
:1026D000199801F06DFF624948601699189801F049
:1026E00067FF5F498860DDE9161001F061FF5C4912
:1026F000C860084680680290084680680190029988
:1027000002F0B4F80490564840680290544840687B
:102710000190029902F0AAF80390049901F0D4FE06
:102720004FF08041059002F0A1F84FF07E510690E5
:1027300002F068F908904A48C068039048488068E9
:102740000290039902F092F8059045484068039082
:10275000434800680290039902F088F804900599B4
:1027600001F0B2FE4FF08041069002F07FF8079032
:10277000089901F049FC3B49099002F077F83A4981
:1027800008603748406804903548C0680390049951
:1027900002F06CF806903248806804903048006877
:1027A0000390049902F062F80590069902F0BCF9D2
:1027B0004FF08041079002F059F8089001F092FB29
:1027C0002849099002F052F8274948602448C06817
:1027D00002902348C0680190029902F047F80490E3
:1027E0001F48806802901E4880680190029902F09C
:1027F0003DF80390049901F067FE4FF08041059089
:1028000002F034F84FF07E51069002F0FBF8089089
:10281000134880680390124840680290039902F0C0
:1028200025F805900E48C06803900D480068029096
:10283000039902F01BF80490059901F045FE4FF052
:102840008041069002F012F80790089901F0DCFB35
:102850000449099002F00AF8034988601DB000BDE0
:1028600050000020E02E6542540200201FB50446AF
:102870000E2269463B2000F048F80E2802D00120C5
:1028800004B010BD9DF801009DF8001040EA012041
:1028900000B220809DF803009DF8021040EA01205C
:1028A00000B260809DF805009DF8041040EA012008
:1028B00000B2A0809DF807009DF8061040EA0120B4
:1028C00000B2E0809DF809009DF8081040EA012060
:1028D00000B220819DF80B009DF80A1040EA01200B
:1028E00000B260819DF80D009DF80C1040EA0120B7
:1028F00000B2A0810020C3E770B504460D462A4609
:1029000021466820FFF7A4FB70BD70B504460D4654
:1029100016462B46324621466820FFF7A4FB70BDC1
:1029200070B504460D462A4621466820FFF7E0FBB5
:1029300070BD00BFFEE7000010B504460F480088D8
:102940000F490988884201D1002010BD0B4800883A
:1029500000EB00100B4A02EB800144222046FDF7F9
:10296000DEFD06490988481CC11700EB5171C910EA
:10297000A0EBC101014A11800120E6E76C000020B4
:102980006E0000206C02002070B5044611490988D1
:10299000481CC11700EB5171C910A0EBC1018DB2E9
:1029A0000D480088854206D10C480068401C0B4940
:1029B0000860002070BD0749098801EB0111084A31
:1029C00002EB810044222146FDF7A9FD0148058064
:1029D0000120EFE76E0000206C0000207000002056
:1029E0006C02002000200349088003490880034945
:1029F000086070476C0000206E000020700000200E
:102A00007047000070B5002100230F22C47804B382
:102A1000154C246804F4E064C4F5E064210AC1F1B3
:102A20000403CA40447804FA03F184781440214333
:102A300009010E4C0678A155047804F01F05012405
:102A4000AC4005786D11AD0005F1E025C5F80041F9
:102A500009E0047804F01F050124AC40044D067819
:102A6000761145F8264070BD0CED00E000E400E072
:102A700080E100E070B500240EE00021204600F067
:102A8000EDF8002504E0002000F08BF9681CC5B2C9
:102A9000802DF8DB601CC4B2082CEEDB70BD00009A
:102AA00008B50121102000F055FC14208DF803001A
:102AB00002208DF802004FF44040ADF80000694656
:102AC0000648FEF7ACFD0122D1030448FEF73FFEA5
:102AD000012291030148FEF73AFE08BD00100140B3
:102AE00070B50546002419E080202041284008B137
:102AF000012000E0002002464FF480410E48FEF71E
:102B000026FE0122D1030C48FEF721FE00224FF4DD
:102B100000410948FEF71BFE601CC4B2082CE3DB31
:102B20000122D1030448FEF712FE00224FF40041B7
:102B30000148FEF70CFE70BD0010014010B50122E7
:102B400091030A48FEF703FE0122D1030748FEF76E
:102B5000FEFD00224FF480410448FEF7F8FD0022FC
:102B60004FF400410148FEF7F2FD10BD0010014096
:102B700010B500224FF480410648FEF7E8FD01221F
:102B8000D1030448FEF7E3FD012291030148FEF75B
:102B9000DEFD10BD0010014070B5002407E00025E7
:102BA00000E06D1C42F210708542FAD3641CB4F54B
:102BB0007A7FF4D3FFF774FFAE2000F0E2F8D5205F
:102BC00000F0DFF8802000F0DCF8A82000F0D9F851
:102BD0003F2000F0D6F8D32000F0D3F8002000F01A
:102BE000D0F8402000F0CDF8A12000F0CAF8C820AD
:102BF00000F0C7F8DA2000F0C4F8122000F0C1F8A5
:102C0000812000F0BEF8CF2000F0BBF8D92000F002
:102C1000B8F8F12000F0B5F8DB2000F0B2F8302071
:102C200000F0AFF8A42000F0ACF8A62000F0A9F85E
:102C30008D2000F0A6F8142000F0A3F8AF2000F0DB
:102C4000A0F8FFF717FF70BD10B50246012000E0A5
:102C500050430B1EA1F10101FAD110BD70B505461C
:102C60000C4645F0B00000F08CF8102141EA141039
:102C700000F087F804F00F0000F083F870BD00004A
:102C80002DE9F04105460E461746721ED206110E7A
:102C90006A1E5206100EFFF7E1FF002409E0A7F1BB
:102CA0002001134A02EB0111085D00F07AF8601C64
:102CB000C4B2082CF3DB721ED206110E6A1E012369
:102CC00003EB4202D0B2FFF7C9FF00240BE0A7F1EB
:102CD0002001074A02EB011204F10801505C00F0E8
:102CE00060F8601CC4B2082CF1DBBDE8F081000084
:102CF000F24C00082DE9F0478146884615461E46ED
:102D0000002D06DB2B2241464846FFF7B9FF2F4630
:102D100005E02D2241464846FFF7B2FF6F420024EE
:102D200017E0301B411E0A20FFF78EFFB7FBF0F0C3
:102D30000A21B0FBF1F201FB120000F1300A08EBAE
:102D40000400401CC1B252464846FFF799FF601C80
:102D5000C4B2B442E5DBBDE8F0872DE9F041074697
:102D60000E461546002407E02A5D3019C1B23846E8
:102D7000FFF786FF601CC4B2285D0028F4D1BDE8CF
:102D8000F08110B50446FFF7D9FE7820FFF7A8FEC2
:102D90000020FFF7A5FE2046FFF7A2FEFFF7E8FEA2
:102DA00010BD10B50446FFF7C9FE7820FFF798FE66
:102DB0004020FFF795FE2046FFF792FEFFF7D8FE72
:102DC00010BD000000B589B00121022000F0B2FA68
:102DD0000121042000F0BEFA4020ADF820001820A8
:102DE0008DF8230003208DF8220008A91848FEF76B
:102DF00016FC0020ADF81A00ADF816006320ADF8FF
:102E000018004720ADF8140000208DF81C0005A91B
:102E1000104800F01FFD01A800F00BFD6020ADF888
:102E200004000020ADF80C000120ADF806000020E1
:102E3000ADF80A0001A9074800F000FC0821054888
:102E400000F048FC0121034800F0ECFB09B000BD94
:102E5000000801400004004070B50446642C00DD09
:102E6000642404EB441000EB40006421B0FBF1F556
:102E70002946024800F0E7FC70BD00000004004055
:102E800000B589B00121042000F054FA0121082086
:102E900000F060FA4FF48070ADF8200018208DF833
:102EA000230003208DF8220008A92148FEF7B7FB74
:102EB0004FF40070ADF8200008A91D48FEF7AFFBE5
:102EC0000020ADF81A00ADF8160044F61F60ADF80A
:102ED00018004720ADF8140000208DF81C0005A94B
:102EE000144800F0B7FC01A800F0A3FC6020ADF886
:102EF00004000020ADF80C000120ADF80600002011
:102F0000ADF80A0001A90B4800F0EEFB01A9094841
:102F100000F044FC0821074800F036FC0821054871
:102F200000F07AFC0121034800F07CFB09B000BDF1
:102F3000000C0140000800402DE9F04104460D4618
:102F4000284601F07FFC0746FDF7D2FC0646012C1F
:102F500004D13146054800F078FC05E0022C03D18D
:102F60003146024800F073FCBDE8F08100080040E3
:102F70002DE9F0411C2A01DABDE8F081CF7891F803
:102F800002C047EA0C27C0EBC00CDFF82C8108EB2D
:102F90008C0CACF802704F7991F804C047EA0C270A
:102FA0003FB2C0EBC00C08EB8C0CACF80470CF79CE
:102FB00091F806C047EA0C27C0EBC00C08EB8C0C5C
:102FC000ACF806704F7A3F0691F80AC047EA0C4702
:102FD00091F80BC047EA0C2791F80CC047EA0C06A1
:102FE0000F7A012F01D1774200E03746C0EBC00CC9
:102FF000DFF8C48008EB8C0CCCF80870CF7B91F81C
:103000000EC047EA0C273BB24F7B012F01D15F4234
:1030100000E01F463FB2C0EBC00CDFF89C8008EB1D
:103020008C0CACF80C704F7C3F0691F812C047EA4C
:103030000C4791F813C047EA0C2791F814C047EAEF
:103040000C050F7C012F01D16F4200E02F46C0EB31
:10305000C00CDFF8648008EB8C0CCCF810708F7D0E
:103060003F0691F817C047EA0C4791F818C047EAA5
:103070000C2791F819C047EA0C044F7D012F01D1AC
:10308000674200E02746C0EBC00CDFF82C8008EB5D
:103090008C0CCCF814708F7EC0EBC00C08EB8C0C41
:1030A0008CF81870CF7EC0EBC00C08EB8C0C8CF841
:1030B000197000BF60E700008C000020704700001E
:1030C00001490860704700008400002030B589B0D5
:1030D0003CE000F0A1FC04461F4801780078401C49
:1030E0001D4A10701D48445400256B2C04D1104615
:1030F0000078042800DB012505B3184800788DF816
:103100000000164840788DF8010013480078C01E72
:1031100080B2ADF82200BDF822201049891C0DF1C3
:103120000200FDF7FCF90E48006818B168460C492A
:103130000968884700200849087000BF06480078E1
:10314000802802D300200449087000BF00F0D4FB9F
:103150000028BEDC09B030BD88000020D00400206B
:1031600084000020024908600021024A1160704773
:10317000780000207C00002030B591B005460C4658
:10318000402C00DD4024FF208DF80000FB208DF84E
:103190000100A01CC0B28DF80200002C06DD2DB18C
:1031A000224629460DF10300FDF7B9F96846FDF7FF
:1031B000E9FD8DF843009DF8000000F059FD9DF8F1
:1031C000010000F055FD9DF8020000F051FD002CBB
:1031D00004DD21460DF1030000F03CFD9DF84300A5
:1031E00000F046FD11B030BD10B500F051FC88B9BB
:1031F0004248007868B142480088401C4049088035
:10320000084600880A2804DD00203C4908703C4933
:10321000088010BD6BE000F0F9FC0446002038493E
:1032200008803648007805285FD2DFE800F0030BFD
:103230001D324600FF2C04D13248047001202F4972
:10324000087052E0FC2C05D12E48447002202B4916
:10325000087008E0FF2C03D101202849087002E023
:1032600000202649087040E0022C01DB422C03DDDF
:103270000020224908700BE0224884700020224977
:103280000880022C01D1042000E003201B490870B3
:103290002BE01D4801880088401C1B4A10801948FB
:1032A000C01C4454C01E8078801E11460988884284
:1032B00002DC04201149087017E0124880F84340EE
:1032C000FDF760FDA04207D11048006848B10D48E5
:1032D0000E490968884704E00D480068401C0C4905
:1032E000086000200549087000BF00BF00BF00F063
:1032F000CFFB00288FDC00BF8BE7000074000020AC
:10330000800000208C04002076000020780000203F
:103310007C00002029B1064A52690243044B5A61DD
:1033200004E0034A52698243014B5A61704700002E
:103330000010024029B1064AD2690243044BDA6107
:1033400004E0034AD2698243014BDA61704700000E
:103350000010024029B1064A92690243044B9A6167
:1033600004E0034A92698243014B9A61704700006E
:103370000010024030B500210022002400232D4D12
:103380006D6805F00C0121B1042905D0082923D16D
:1033900005E0294D056022E0274D05601FE0254D21
:1033A0006D6805F47012234D6D6805F480340225B4
:1033B00005EB92421CB9214D554305600BE01D4DB4
:1033C0006D6805F400351DB11C4D5543056002E0E4
:1033D000194D5543056002E0174D056000BF00BF61
:1033E000144D6D6805F0F0010909154D6B5C056819
:1033F000DD4045600F4D6D6805F4E061090A104D30
:103400006B5C4568DD4085600A4D6D6805F4605170
:10341000C90A0B4D6B5C4568DD40C560054D6D68A4
:1034200005F44041890B074D6B5CC568B5FBF3F5AE
:10343000056130BD0010024000127A0000093D0015
:1034400014000020240000207047000038B5044616
:103450000D4605A0006800908DF8014002216846E5
:10346000FFF78AFE38BD00009000000010B500F0A4
:1034700001F810BD0CB500200190009033480068A1
:1034800040F480303149086000BF3048006800F4E3
:10349000003000900198401C0190009818B90198E4
:1034A000B0F5A06FF1D12948006800F4003010B1E8
:1034B0000120009001E0002000900098012843D1F5
:1034C0002348006840F01000214908600846006861
:1034D00020F0030008600846006840F00200086021
:1034E0001A484068194948600846406848600846DC
:1034F000406840F4806048600846406820F47C10D2
:1035000048600846406840F4E81048600846006893
:1035100040F08070086000BF0C48006800F0007048
:103520000028F9D00948406820F0030007494860A6
:103530000846406840F00200486000BF0348406809
:1035400000F00C000828F9D10CBD0000001002406A
:1035500000200240042808D14FF0E021096941F021
:1035600004014FF0E022116107E04FF0E02109690A
:1035700021F004014FF0E022116170477047000014
:1035800010B51348006840F0010011490860084672
:103590004068104908400E494860084600680E49D6
:1035A00008400B4908600846006820F48020086045
:1035B0000846406820F4FE0048604FF41F00886011
:1035C000FFF754FF4FF000600449086010BD000091
:1035D000001002400000FFF8FFFFF6FE08ED00E0DB
:1035E00010B56FF00400FFF7B5FF0A4800680A49FC
:1035F000B0FBF1F0094908800846008800EB400163
:10360000C1EBC0104FF6FF7101EAC0000449088009
:1036100010BD00000000002000127A0044000020CD
:103620004600002021B1028842F00102028004E03D
:1036300002884FF6FE731A400280704770B500246E
:1036400000220023058C4FF6FE7635400584028C5F
:103650008388048B4FF68F752C40B51E2C400D8847
:103660002C43751E2A400D892A434D882A43144D48
:10367000A8420BD0134DA84208D0134DA84205D044
:10368000124DA84202D0124DA84213D14FF6F77541
:103690002A404D892A434FF6FB752A408D882A43DC
:1036A0004FF6FF652B404FF6FF552B408D892B437E
:1036B000CD892B4383800483CD888586028470BDA9
:1036C000002C014000340140004001400044014012
:1036D000004801400A460021018B4FF6F77319405C
:1036E000114301837047000070B5002400220023BD
:1036F000058C4FF6FF6635400584028C8388848BE9
:103700004FF68F752C404FF6FC752C400D882C43DE
:103710004FF6FF552A400D894FF6FF7606EA05253C
:103720002A434D8806EA05252A43154DA84202D0B2
:10373000144DA8421DD14FF2FF752A404D894FF616
:10374000FF7606EA05252A434FF6FF352A408D8885
:1037500006EA05252A434EF6FF752B404DF6FF7508
:103760002B408D8906EA05152B43CD8906EA051500
:103770002B4383808483CD888587028470BD0000BD
:10378000002C0140003401400A460021818B4FF695
:10379000F7731940114381837047000070B5002210
:1037A00000230024058C4EF6FF7635400584038CFB
:1037B0008488828B48F6FF752A404FF6FF452A40E1
:1037C0000D884FF6FF7606EA05252A434DF6FF756C
:1037D0002B400D8906EA05352B434D8806EA053551
:1037E0002B430B4DA84202D00A4DA84208D14BF6FC
:1037F000FF752C408D894FF6FF7606EA85152C4320
:1038000084808283CD88A0F84050038470BD00007E
:10381000002C0140003401400A460021818B4FF208
:10382000FF7319404FF6FF7303EA022319438183A4
:1038300070470021018041808180C18001814181E8
:103840008181C18170478186704781877047A0F868
:1038500040107047002202881D4B98420ED01D4B2D
:1038600098420BD0B0F1804F08D01B4B984205D046
:103870001A4B984202D01A4B984204D14FF68F73DC
:103880001A404B881A43174B984207D0164B984260
:1038900004D04FF6FF431A40CB881A4302808B882E
:1038A00083850B8803850A4B98420BD0094B9842BD
:1038B00008D00E4B984205D00D4B984202D00D4BCC
:1038C000984201D10B7A038601238382704700005E
:1038D000002C01400034014000040040000800407A
:1038E000000C004000100040001400400040014067
:1038F0000044014000480140084801880848008809
:10390000814204DB06480088081A80B270470448E8
:103910000088C0F18000084480B2F7E7480000202A
:103920004A00002010B540F225510F4800F0EBF995
:10393000C0B10D4800F0A2FAC4B20C480C49098885
:1039400044540B490988481CC11700EB5161C91147
:10395000A0EBC111064A118040F22551024800F047
:10396000A1F900BF10BD000000380140C4000020D4
:103970004800002010B586B00446012144F204003E
:10398000FFF7E8FC4FF40070ADF8140018208DF834
:10399000170003208DF8160005A91D48FDF73FFE0E
:1039A0004FF48060ADF8140048208DF8170005A989
:1039B0001748FDF734FE01940020ADF810000C20EC
:1039C000ADF80E000020ADF80C00ADF80A00ADF81F
:1039D000080001A90F4800F0E5F925208DF8000046
:1039E00001208DF8010000208DF8020001208DF8E3
:1039F00003006846FFF706F8012240F2255105480A
:103A000000F0ABF90121034800F05BF906B010BDEE
:103A1000000801400038014000210B4800880B4A93
:103A2000128890420ED00A48074A1288815C064AE2
:103A30001288501CC21700EB5262D211A0EBC212C6
:103A4000014B1A80084670474A00002048000020B9
:103A5000C400002070B504460D4603E014F8010BC5
:103A600000F006F8281EA5F101018DB2F6D170BD57
:103A700010B5044600BF8021044800F037F9002843
:103A8000F9D02146014800F0FEF910BD0038014090
:103A900010B50C48FDF77AFAC0F5807084B20A4878
:103AA00004800A480088844204DB08480088201A01
:103AB00080B210BD05480088C0F58070204480B2F7
:103AC000F7E700006C0002404C0000204E00002090
:103AD00008B540F224410A4800F015F978B10848C9
:103AE000008800900648001D0088009000BF05482F
:103AF000FDF74CFAC0F580700349088000BF08BD8F
:103B0000004400406C0002404C00002010B592B010
:103B1000044601214804FFF70DFC01210420FFF7B2
:103B200019FC01210846FFF7F5FB18208DF8470026
:103B30000420ADF8440003208DF8460011A92F4859
:103B4000FDF76DFD48208DF847000820ADF84400D2
:103B500011A92A48FDF763FD0D940020ADF840003F
:103B60000C20ADF83E000020ADF83C00ADF83A0066
:103B7000ADF838000DA9224800F014F92148FDF7EE
:103B80005FF91F48001D02901F4803900020049019
:103B90004FF4807005900020069080200790002050
:103BA0000890099020200A9000020B9000200C90B1
:103BB00002A91448FDF7EEF901211248FDF734F986
:103BC000012240210E4800F088F826208DF80400DC
:103BD00001208DF805008DF806008DF8070001A87A
:103BE000FEF710FF012240F22441054800F0B5F82D
:103BF0000121034800F065F812B010BD0008014033
:103C0000004400406C0002404401002070B50024D4
:103C10000D48FDF7BBF9C0F5807085B20B480088F0
:103C2000A8420ED00A4809490988445C0749098816
:103C3000481CC11700EB11610912A0EB0121034AD6
:103C40001180204670BD00006C0002404E00002034
:103C50004401002070B504460D4603E014F8010B42
:103C600000F006F8281EA5F101018DB2F6D170BD55
:103C700010B5044600BF8021044800F037F8002842
:103C8000F9D02146014800F0FEF810BD0044004084
:103C900070B505460C462846FFF76CFE2046FFF738
:103CA00035FF70BD10B50022002340F66A14A14212
:103CB00000D100BF0A1201249440A3B2DC43048067
:103CC00010BD21B1828942F40052828104E08289D0
:103CD0004DF6FF731A40828170471AB1838A0B43F5
:103CE000838202E0838A8B438382704702460020EE
:103CF000B1F5007F00D100BF13880B400BB101204C
:103D000000E00020704770B5024600240023002523
:103D1000002040F66A16B14200D100BFC1F342153F
:103D200001F01F03012606FA03F3012D02D1968943
:103D3000334006E0022D02D1168A334001E0968A14
:103D400033400C12012606FA04F41688344013B1ED
:103D50000CB1012000E0002070BDF0B50346002446
:103D600000260025002040F66A17B94200D100BFA6
:103D70001846C1F3421401F01F06012707FA06F5A1
:103D8000012C01D10C3004E0022C01D1103000E0F4
:103D900014301AB107682F43076002E00768AF4389
:103DA0000760F0BD2DE9F04786B005460E460024B9
:103DB000A24600BFA1460027B08900B100BF2F4630
:103DC0002C8A4CF6FF700440F08804432C82AC89A6
:103DD0004EF6F3100440B0883189084371890843D6
:103DE0000443AC81AC8A4FF6FF400440B0890443E1
:103DF000AC8201A8FFF7BEFA1F48874202D1DDF866
:103E000010A001E0DDF80CA0A88900F4004040B14A
:103E10000AEBCA0000EB0A1031684900B0FBF1F868
:103E200007E00AEBCA0000EB0A1031688900B0FB1A
:103E3000F1F86420B8FBF0F004012009642101FBD3
:103E40001089A88900F4004040B1322000EBC9007D
:103E5000B0FBF1F000F00700044308E0322000EB73
:103E600009106421B0FBF1F000F00F0004432C8135
:103E700006B0BDE8F08700000038014001468888A0
:103E8000C0F308007047C1F308028280704700BF8A
:103E9000FEE74100080218BF04200A0E18BF40F0D8
:103EA00001004FF07F4232EA010108BF40F00200FA
:103EB000012808BF05207047012100F0DCBE00F09A
:103EC00003BB0021084600F073BB6FF05E010807DA
:103ED00000F0D1BE30380A2801D2012070470020FE
:103EE000704700002DE9F04104464FF00E4000EB12
:103EF0004400B0F1506F204655D84FF0FC41B1EB73
:103F0000440F1CD224F000404FF07E5100F07AFDA7
:103F10004FF0FF3100F0AFFE054600F0BFFA14F09D
:103F2000004F1DBF2F4F304E80F000402F4F08BF75
:103F30002F4E4FF0404100F099FC044605E0002769
:103F40003E46014600F092FC05462A49284600F00C
:103F50008DFC294900F0B8FA294600F087FC274972
:103F600000F0B2FA294600F081FC254900F0ACFAD5
:103F7000294600F07BFC234900F0A6FA804629463A
:103F8000204600F073FC414600F070FC05463146C7
:103F9000204600F099FA294600F096FA3946BDE825
:103FA000F04100F091BA4FF0E441B1EB440F08D971
:103FB000FFF76FFF042808BFFFF787FF2046BDE823
:103FC000F0814FF07F41B1EB440F03D2BDE8F041E7
:103FD000FFF772BF0120FCF785FBBDE8F041FFF75A
:103FE00070BF00000000C9BF22AAFDB90000C93F90
:103FF00022AAFD3924FE1C3DC78AD83C1E67383DE5
:104000001B93993DAFAA2A3E2DE9F0474FF0684235
:1040100002EB40030C460546B3F1654F3CBF02EB93
:104020004102B2F1654F80F0CD8000BFC0F3C752AE
:10403000C1F3C753D21A1B2A06DD10F0004F14BF7C
:1040400087488848BDE8F08712F11A0F2FDA11F07F
:10405000004F06D010F0004F0CBF83488348BDE8E6
:10406000F0872146284600F0A3FA0646FFF711FF25
:10407000042808BFFFF729FF2846FFF70AFF054677
:104080002046FFF706FF04463046FFF702FF042DE7
:1040900018BF052D08D1042C18BF052C04D1002809
:1040A00004BF0220FCF71EFB3046BDE8F08742004B
:1040B000B2EB410F25D910F0004F19BF6C4F6D4E78
:1040C0006D4F6E4E224685F0004415460A4680F03C
:1040D000004110460A1A5200B2F1807F3ED2484099
:1040E0006749DFF8A0A110F0004F18D04FF03F480B
:1040F000384600F019FD07465146304600F014FDE1
:1041000017E011F0004F04BF00263746E2D010F050
:10411000004F19BF5C4F5D4E5D4F5E4EDAE74FF0CA
:104120007C58384600F0D0F907465146304600F03A
:10413000CBF906464146284600F098FB214600F0A0
:10414000C3F982462146404600F090FB294600F024
:1041500059FC514600F02CFA044604E0214628465A
:1041600000F026FA0446014600F080FB80464A49EA
:1041700000F07CFB494900F0A7F9414600F076FBCE
:10418000474900F0A1F9414600F070FB454900F0B5
:104190009BF9414600F06AFB434900F095F905465A
:1041A0004146204600F062FB294600F05FFB3146A5
:1041B00000F08AF9214600F087F93946BDE8F0475A
:1041C00000F082B94FF07F42B2EB400F28BFB2EB54
:1041D000410F03D2BDE8F047FFF771BE40EA01038B
:1041E0005B0008BF44F0FF410AD0B2EB400F08BFAC
:1041F000B2EB410F06D125F0804024F08041054606
:104200000C4613E7B2EB400F12BF5FEA410345F0E3
:10421000FF4004F000413FF409AFB2EB410F12BF81
:104220005FEA400205F0004044F0FF413FF4FEAE7B
:104230004A0092EA40033FF5F9AE002AACBF4FF0C6
:104240009F464FF03E56314600F010FB0546314682
:10425000204600F00BFB044628462146E6E6000017
:10426000DB0FC9BFDB0FC93FDB0F4940DB0F49C084
:104270000000C9BF22AAFDB90000C93F22AAFD392A
:104280000060ED3EC30ACE37000049C022AA7DBAC5
:104290000000494022AA7D3A2DAD65BD8FB8D53DBD
:1042A0000FB511BE61C84C3EA8AAAABEFFF798F987
:1042B0004FF4E1310846FFF7EBFC4FF47A70FCF75E
:1042C00089FEFEF769FCFEF7D5FB36A20121084600
:1042D000FEF743FD37A201210220FEF73EFD39A281
:1042E00001210320FEF739FDFCF7AAFF012834D194
:1042F000FEF7C0FB37A201210846FEF72EFD39A2CA
:1043000001210220FEF729FD3AA201210320FEF738
:1043100024FD3CA201210420FEF71FFD4FF47A701A
:10432000FCF758FEFEF7A6FB3AA201210846FEF76D
:1043300014FD3AA201210220FEF70FFD3AA201214D
:104340000320FEF70AFD39A204210320FEF705FD34
:104350001B213AA0FFF77EFC15E0FEF78BFB3EA287
:1043600001210846FEF7F9FC3FA201210220FEF7D9
:10437000F4FC42A201210320FEF7EFFC43A201213D
:104380000420FEF7EAFCFCF7F1FA0AE0FEF72CFF46
:10439000FEF79CFEFCF718FDFCF7CAFB0220FCF7B9
:1043A00019FEF3E74553503832363620426F6F74AA
:1043B0002E2E2E00436F6E6E656374696E672057F4
:1043C00069466900506C6561736520576169742E98
:1043D0002E2E20005769466920436F6E6E65637408
:1043E0006564210054435020536572766572204FF6
:1043F0004B000000506173732D5468727520526534
:104400006164790057616974696E67204461746101
:104410002E2E2E0057494649000000005265646D5B
:1044200069204B373000000049503A0031302E31BE
:10443000392E35302E3137350000000048656C6C60
:104440006F2053657276657221204920616D20537B
:10445000544D33322E0D0A0045535020436F6E6683
:104460006967204641494C00312E436865636B20E3
:1044700041542B43574A415000000000322E4368FC
:1044800065636B205443502049500000332E526521
:1044900073657420426F61726400000070B5054658
:1044A00000F0BAFA044620F00040C0F1FF40C00F0F
:1044B00008D025F00040C0F1FF40C00F04BF01202C
:1044C000FCF710F9204670BD90EA010F48BF81F05B
:1044D000004100F13083421A3CBF801A89184FEA2C
:1044E000D0524FF07F4C1CEA410FA2EBD15318BFC2
:1044F0009CEA026F00F03B804FF0004C4CEA002039
:104500004CEA012121FA03FC10EB0C0C1ED202F143
:10451000FF325FEA1C2040EBC25038BF70471CF0EE
:104520007F0F4FEA400C18BFBCF17F4F38BF704778
:10453000C3F12003994008BF20F00100BCF17F4F78
:1045400038BF7047A0F1C04000F057BA4FEA3C00B6
:10455000000A40EBC25028BF1CF0FF0F4FEA400C8E
:10456000E6D018BFBCF17F4F38BF7047EAE79CEA3E
:10457000026F05D010EA5C0F08BF00F000407047E2
:1045800010B500F0F4F900BF64FBBE3E014800F036
:1045900040BB00BF0000C07F401058BFC0F140408A
:1045A000491058BFC1F140418142EFF3008070478C
:1045B0004FF47F0C1CEAD0121EBF1CEAD11392EA02
:1045C0000C0F93EA0C0F00F0858090EA010F48BFB2
:1045D00042F4807240F4000C41F400002CF07F4162
:1045E00020F07F4000B58142A2EB03020FF2081CCD
:1045F000ACEB504EC0F100009EF800E04FEA4E0ECA
:1046000000FB0EFC38BF49004FEA2C1C02F5FA02F1
:104610000CFB0EF34FEACE1E4FEA112C4FEAC121DC
:104620000EEB635E42EB22420EFB0CFC4FEA1C5386
:1046300000FB03114FEA112C4FEA01310EFB0CFC79
:104640004FEADC4C00FB0C11C14228BF09184CEBAF
:1046500003335DF804EB10EB410143EBC250B2F5BC
:104660007C0F38BF704729D512F0F00F1CBF00F146
:10467000C04000F0004070470081828384858687B7
:1046800088898B8C8D8E8F919293959697999A9C11
:104690009D9FA0A2A3A5A7A8AAACAEB0B2B3B5B780
:1046A000B9BCBEC0C2C5C7C9CCCED1D4D7D9DCDF56
:1046B000E2E6E9ECF0F3F7FAFE0000004FEA400C06
:1046C0000CF1807CBCF17E4F28BF7047B0F1C04038
:1046D00000F093B990EA010F0CEAD11348BF42F4FD
:1046E0008072624538BF634507D213F47F0F16D03E
:1046F00080EA010000F00040704710B500F037F983
:10470000097EFC3E00F005B880EA010000F00040A0
:10471000704780EA010000F0004000F06EB912F42A
:104720007F0F04BF0248704780EA010000F065B9BE
:104730000000C07F50EA010C00F113801CF5000F4F
:1047400058BFBCF5000F01D48842704707D710F559
:10475000000F58BF11F5000F15D4884270478942E9
:1047600070471CF5000F04D5BCF5000FF7D581424A
:1047700070474FF0807C1CEB400F38BF1CEB410FA3
:1047800001D28142704710B500F0F1F8922449003F
:104790004FF000504FF08051FFF7FEBE41000B0E6E
:1047A000D3F19E0208D950F400034FEA032323FA01
:1047B00002F048BF4042704710B500F0D8F800BF83
:1047C00049922480002070476FF0004282EA200066
:1047D00070470000C10DD1F19E0206DB4FEA0023B5
:1047E00043F0004323FA02F07047004207D54FEA36
:1047F0004001B1F1FE4F02D24FF00000704710B5FA
:1048000000F0B5F849922480002070476FEA20003C
:104810007047000010F0004148BF4042B0FA80F3FA
:1048200010FA03F2C3F19D030BD051EAC35101EB1F
:104830001220530638BF704700F1010008BF20F076
:1048400001007047B0FA80F310FA03F2C3F19D0340
:104850000AD0D90501EB1220530638BF704700F18A
:10486000010008BF20F00100704700004FF47F0CEA
:104870001CEAD0121EBF1CEAD11392EA0C0F93EA75
:104880000C0F00F0478090EA010F48BF42F480729D
:104890004FF0004C4CEA00204CEA012102EB0302ED
:1048A000A0FB0113A2F50002002918BF43F0010389
:1048B0005B0028BF4FEA330342EB22425FEA132C2E
:1048C0004CEBC2502EBFBCEB436FB2F57C0F704770
:1048D0004FEA036CBCF1004F08BF20F00100B2F5B5
:1048E0007C0F38BF70470BD582F0FF0212F5803F76
:1048F000C8BF704700F1C040D8BF00F0004070470B
:1049000000F5000C5FEA4C0C48BF7047B0F1C040A6
:1049100000F073B890EA010F0CEAD11348BF42F4DB
:104920008072624538BF634504D280EA010000F01E
:104930000040704710B500F01AF800BF8900013E32
:1049400000F007B800F009B85FEA410C5FEA1C6CA0
:1049500008D080EA010000F050B85FEA400C5FEA3E
:104960001C6CF6D14FF00040A0F5800070470EF1AE
:10497000020E2EF0030E5EF8044B244204D44FEADC
:104980004102B2F17F4F11D84FEA4003B3F17F4F9C
:104990000CD80ED14FEAD07CB2F17F4F0CEB4C0C0F
:1049A0000CF1020C08BF4CEBD17C04E04FF0080C7A
:1049B00001E04FEAD17C0CEB4C0324FA03F404F041
:1049C0000704B4F1040C06D20EEB840CBDE81040D1
:1049D0004CF0010C6047DFE80CF0070802024FF0D2
:1049E0000040A0F5800010BD0846420018BFD2F17B
:1049F000807288BF00F0004010BDFF2141EAD05016
:104A0000C005704780F0004090EA010F7FF563AD6C
:104A100081F0004100F08FB84FEAD051002988BFE3
:104A2000D1F1FF0240F2758001F17D014FEA0020D3
:104A300070B5490840F0004038BF40080EA2430E50
:104A4000040CD25C02FB02F304FB03F3C3F140430A
:104A5000A3FB0254ED0D45EA442202FB02F3A0FB46
:104A600003546D42C4F1404438BF641EA2FB0535B7
:104A70000023E2FB0453EA0B42EA4342A0FB02326A
:104A800012F14004A2F12103E40903F07F031F2B7C
:104A900032D904EBC15070BDFEFAF7F3F0ECE9E651
:104AA000E4E1DEDCD9D7D4D2D0CECCCAC8C6C4C2E9
:104AB000C1BFBDBCBAB9B7B6B4B3B2B0AFAEACABA0
:104AC000AAA9A8A7A6A4A3A2A1A09F9E9E9D9C9BC5
:104AD0009A999897979695949393929190908F8E98
:104AE0008E8D8C8C8B8A8A89898887878686858437
:104AF000848383828281818004FB04F6B6EB0046C6
:104B000003D5E64248BF641CC3E7A64258BF641CF5
:104B1000BFE711F0FF0F02D100F00040704710B561
:104B2000FFF725FF7FDBFFBE90EA010F48BF81F052
:104B300000413FF5D0AC421A04D882F00042A0EB0D
:104B4000020011444FEAD0524FF07F4C1CEA410F53
:104B5000A2EBD15318BF9CEA026F4AD04FF0004C31
:104B60004CEA00204CEA012121FA03FCB0EB0C0CCA
:104B70000FD412F0FE0F36D05FEA4C001DD50012A4
:104B800040EBC25038BF70471CF03F0F18BF704752
:104B90000BE0A2F101025FEA1C2040EBC25038BFDB
:104BA00070471CF07F0F18BF7047C3F12003994076
:104BB00014BF401E20F00100704780084FEA122306
:104BC00008BF7047B0FA80FCA2EB0C02CCF1280CB5
:104BD00060FA0CF093EA122F04BF00EBC25070474A
:104BE0004FEAC3707047130A5FEADC1008BF7047D2
:104BF000F6E79CEA026F04D010EA5C0F08BF0020C1
:104C0000704710B5FFF7B3FE40DFF63E81F000407D
:104C100070470CF00F03092B08BF082000F05180EB
:104C20000A2B0BD0082B18BF704708BF1CF0400F91
:104C30000AD04FF000004FF0000170471CF0400F09
:104C400018BF4FF0004070471CF0100F08D020F044
:104C5000704300F07F4242EAD3014FEA437070474D
:104C600000F0604021F07F4242EA000201F07F4004
:104C700040EA727070474FF0FF0212EAD0521CBF38
:104C800092F0FF038B42C2BFD14200EBC15070478C
:104C9000002A0AD0002B0BD0002900F00040A4BF4E
:104CA00040F0FE4040F40000704700F000407047C4
:104CB00043024FF00B0C18BF4CF0806C7FF466ACD5
:104CC00070471CF4801F11D01CF4E02F03D06FEA52
:104CD000CC31490070474FF04050EFF3008222F092
:104CE000704242EA000282F3008870474FF00000F1
:104CF00070470000000000000000000000000000FD
:104D00000000000000F80000000000000033300048
:104D1000000000100C06100C06000000000000004F
:104D2000000040C07840C0784000043F04043F04C5
:104D30000400007088FC08300000001820FF211ECD
:104D40000000F008F000E018000000211C031E2104
:104D50001E0000F00888700000001E21232419277F
:104D6000211010160E0000000000000000000000DE
:104D70000000000000E018040200000000071820F6
:104D8000400000020418E000000000402018070066
:104D90000000404080F0804040000202010F01020C
:104DA0000200000000F0000000000101011F0101ED
:104DB0000100000000000000000080B07000000052
:104DC00000000000000000000000000101010101DE
:104DD0000101000000000000000000303000000071
:104DE0000000000000008060180400601806010048
:104DF000000000E010080810E000000F1020201054
:104E00000F00001010F8000000000020203F2020BC
:104E10000000007008080888700000302824222153
:104E20003000003008888848300000182020201109
:104E30000E000000C02010F8000000070424243FEA
:104E4000240000F808888808080000192120201193
:104E50000E0000E0108888180000000F11202011BB
:104E60000E0000380808C83808000000003F0000A5
:104E700000000070880808887000001C2221212290
:104E80001C0000E010080810E00000003122221190
:104E90000F00000000C0C000000000000030300023
:104EA00000000000008000000000000080600000A2
:104EB00000000000804020100800000102040810DB
:104EC00020004040404040404000040404040404EA
:104ED0000400000810204080000000201008040298
:104EE0000100007048080808F0000000003036019A
:104EF0000000C030C828E810E00007182724231459
:104F00000B000000C038E0000000203C2302022714
:104F1000382008F8888888700000203F2020201161
:104F20000E00C0300808080838000718202020109C
:104F3000080008F808080810E000203F2020201092
:104F40000F0008F88888E8081000203F2020232060
:104F5000180008F88888E8081000203F20000300A7
:104F60000000C03008080838000007182020221E62
:104F7000020008F808000008F808203F210101217C
:104F80003F20000808F8080800000020203F2020EB
:104F9000000000000808F8080800C08080807F003A
:104FA000000008F888C028180800203F2001263893
:104FB000200008F8080000000000203F20202020EA
:104FC000300008F8F800F8F80800203F003F003FE4
:104FD000200008F830C00008F808203F200007181B
:104FE0003F00E01008080810E0000F1020202010FB
:104FF0000F0008F808080808F000203F210101010F
:105000000000E01008080810E0000F1824243850B1
:105010004F0008F8888888887000203F2000030C23
:10502000302000708808080838000038202121222C
:105030001C00180808F8080818000000203F20008D
:10504000000008F808000008F808001F20202020B1
:105050001F000878880000C83808000007380E01D3
:105060000000F80800F80008F800033C0700073CBF
:105070000300081868808068180820302C03032C6F
:1050800030200838C800C83808000000203F200041
:10509000000010080808C838080020382621202001
:1050A0001800000000FE020202000000007F4040E5
:1050B0004000000C30C00000000000000001063875
:1050C000C00000020202FE000000004040407F00DD
:1050D00000000000040202020400000000000000C2
:1050E00000000000000000000000808080808080C0
:1050F00080800002020400000000000000000000A8
:1051000000000000808080800000001924222222FC
:105110003F2008F8008080000000003F112020118F
:105120000E000000008080800000000E1120202072
:105130001100000000808088F800000E112020106F
:105140003F200000808080800000001F2222222259
:105150001300008080F0888888180020203F2020DD
:1051600000000000808080808000006B9494949305
:10517000600008F8008080800000203F21000020AF
:105180003F2000809898000000000020203F202051
:105190000000000000809898000000C08080807FA0
:1051A000000008F8000080808000203F24022D309D
:1051B0002000000808F8000000000020203F202008
:1051C00000008080808080808000203F20003F2081
:1051D000003F8080008080800000203F2100002070
:1051E0003F200000808080800000001F20202020C1
:1051F0001F00808000808000000080FFA12020111F
:105200000E000000008080808000000E112020A091
:10521000FF80808080008080800020203F2120004F
:10522000010000008080808080000033242424243A
:105230001900008080E0808000000000001F202016
:1052400000008080000000808000001F20202010CF
:105250003F20808080000080808000010E300806A2
:10526000010080800080008080800F300C030C30B3
:105270000F0000808000808080000020312E0E31E1
:105280002000808080000080808080818E701806E1
:10529000010000808080808080000021302C22214D
:1052A000300000000000807C020200000000003F8F
:1052B000404000000000FF00000000000000FF0070
:1052C00000000002027C800000000040403F00001F
:1052D00000000006010102020404000000000000BA
:1052E00000000000600000008D1700086100000051
:1052F000CF1D000862000000A5190008630000002F
:10530000751D000864000000AF1D00086500000066
:10531000031900086600000071180008670000000B
:105320003D190008680000005118000869000000DD
:10533000E11700086A000000A91C00086B000000CB
:10534000891C00086C000000011D00086D000000B1
:10535000591700086E000000791700086F00000060
:10536000C91C000870000000291D00087100000021
:1053700017180008720000002D18000873000000C4
:10538000511D00087400000081190008750000001C
:10539000DD1C000880000000A51A00088100000044
:1053A000FD1A000882000000551A00088300000062
:1053B000811A000884000000291B000885000000F5
:1053C000311A000886000000411C00088700000018
:1053D000A11B0008F4530008000000208C0000000E
:1053E0006C010008805400088C000020240B000091
:1053F0008801000800A24A0400000000000000002C
:10540000010203040607080900000000010203046A
:105410000102030406070809020406080000000050
:10542000000000000000000001000000000000007B
:10543000000000000000000000000000000000006C
:10544000000000000000803F00000000000000009D
:10545000000000000000000000000000000000004C
:10546000000000000000000000000000000000003C
:10547000000000000000000000000000000000002C
:0400000508000131BD
:00000001FF
